{
    "_format": "hh-sol-artifact-1",
    "contractName": "Domains",
    "sourceName": "contracts/Domain.sol",
    "abi": [
        {
            "inputs": [
                {
                    "internalType": "string",
                    "name": "_tld",
                    "type": "string"
                }
            ],
            "stateMutability": "payable",
            "type": "constructor"
        },
        {
            "anonymous": false,
            "inputs": [
                {
                    "indexed": true,
                    "internalType": "address",
                    "name": "owner",
                    "type": "address"
                },
                {
                    "indexed": true,
                    "internalType": "address",
                    "name": "approved",
                    "type": "address"
                },
                {
                    "indexed": true,
                    "internalType": "uint256",
                    "name": "tokenId",
                    "type": "uint256"
                }
            ],
            "name": "Approval",
            "type": "event"
        },
        {
            "anonymous": false,
            "inputs": [
                {
                    "indexed": true,
                    "internalType": "address",
                    "name": "owner",
                    "type": "address"
                },
                {
                    "indexed": true,
                    "internalType": "address",
                    "name": "operator",
                    "type": "address"
                },
                {
                    "indexed": false,
                    "internalType": "bool",
                    "name": "approved",
                    "type": "bool"
                }
            ],
            "name": "ApprovalForAll",
            "type": "event"
        },
        {
            "anonymous": false,
            "inputs": [
                {
                    "indexed": true,
                    "internalType": "address",
                    "name": "from",
                    "type": "address"
                },
                {
                    "indexed": true,
                    "internalType": "address",
                    "name": "to",
                    "type": "address"
                },
                {
                    "indexed": true,
                    "internalType": "uint256",
                    "name": "tokenId",
                    "type": "uint256"
                }
            ],
            "name": "Transfer",
            "type": "event"
        },
        {
            "inputs": [
                {
                    "internalType": "address",
                    "name": "to",
                    "type": "address"
                },
                {
                    "internalType": "uint256",
                    "name": "tokenId",
                    "type": "uint256"
                }
            ],
            "name": "approve",
            "outputs": [],
            "stateMutability": "nonpayable",
            "type": "function"
        },
        {
            "inputs": [
                {
                    "internalType": "address",
                    "name": "owner",
                    "type": "address"
                }
            ],
            "name": "balanceOf",
            "outputs": [
                {
                    "internalType": "uint256",
                    "name": "",
                    "type": "uint256"
                }
            ],
            "stateMutability": "view",
            "type": "function"
        },
        {
            "inputs": [
                {
                    "internalType": "string",
                    "name": "",
                    "type": "string"
                }
            ],
            "name": "domains",
            "outputs": [
                {
                    "internalType": "address",
                    "name": "",
                    "type": "address"
                }
            ],
            "stateMutability": "view",
            "type": "function"
        },
        {
            "inputs": [
                {
                    "internalType": "string",
                    "name": "name",
                    "type": "string"
                }
            ],
            "name": "getAddress",
            "outputs": [
                {
                    "internalType": "address",
                    "name": "",
                    "type": "address"
                }
            ],
            "stateMutability": "view",
            "type": "function"
        },
        {
            "inputs": [
                {
                    "internalType": "uint256",
                    "name": "tokenId",
                    "type": "uint256"
                }
            ],
            "name": "getApproved",
            "outputs": [
                {
                    "internalType": "address",
                    "name": "",
                    "type": "address"
                }
            ],
            "stateMutability": "view",
            "type": "function"
        },
        {
            "inputs": [
                {
                    "internalType": "string",
                    "name": "name",
                    "type": "string"
                }
            ],
            "name": "getRecord",
            "outputs": [
                {
                    "internalType": "string",
                    "name": "",
                    "type": "string"
                }
            ],
            "stateMutability": "view",
            "type": "function"
        },
        {
            "inputs": [
                {
                    "internalType": "address",
                    "name": "owner",
                    "type": "address"
                },
                {
                    "internalType": "address",
                    "name": "operator",
                    "type": "address"
                }
            ],
            "name": "isApprovedForAll",
            "outputs": [
                {
                    "internalType": "bool",
                    "name": "",
                    "type": "bool"
                }
            ],
            "stateMutability": "view",
            "type": "function"
        },
        {
            "inputs": [],
            "name": "name",
            "outputs": [
                {
                    "internalType": "string",
                    "name": "",
                    "type": "string"
                }
            ],
            "stateMutability": "view",
            "type": "function"
        },
        {
            "inputs": [
                {
                    "internalType": "uint256",
                    "name": "tokenId",
                    "type": "uint256"
                }
            ],
            "name": "ownerOf",
            "outputs": [
                {
                    "internalType": "address",
                    "name": "",
                    "type": "address"
                }
            ],
            "stateMutability": "view",
            "type": "function"
        },
        {
            "inputs": [
                {
                    "internalType": "string",
                    "name": "name",
                    "type": "string"
                }
            ],
            "name": "price",
            "outputs": [
                {
                    "internalType": "uint256",
                    "name": "",
                    "type": "uint256"
                }
            ],
            "stateMutability": "pure",
            "type": "function"
        },
        {
            "inputs": [
                {
                    "internalType": "string",
                    "name": "",
                    "type": "string"
                }
            ],
            "name": "records",
            "outputs": [
                {
                    "internalType": "string",
                    "name": "",
                    "type": "string"
                }
            ],
            "stateMutability": "view",
            "type": "function"
        },
        {
            "inputs": [
                {
                    "internalType": "string",
                    "name": "name",
                    "type": "string"
                }
            ],
            "name": "register",
            "outputs": [],
            "stateMutability": "payable",
            "type": "function"
        },
        {
            "inputs": [
                {
                    "internalType": "address",
                    "name": "from",
                    "type": "address"
                },
                {
                    "internalType": "address",
                    "name": "to",
                    "type": "address"
                },
                {
                    "internalType": "uint256",
                    "name": "tokenId",
                    "type": "uint256"
                }
            ],
            "name": "safeTransferFrom",
            "outputs": [],
            "stateMutability": "nonpayable",
            "type": "function"
        },
        {
            "inputs": [
                {
                    "internalType": "address",
                    "name": "from",
                    "type": "address"
                },
                {
                    "internalType": "address",
                    "name": "to",
                    "type": "address"
                },
                {
                    "internalType": "uint256",
                    "name": "tokenId",
                    "type": "uint256"
                },
                {
                    "internalType": "bytes",
                    "name": "_data",
                    "type": "bytes"
                }
            ],
            "name": "safeTransferFrom",
            "outputs": [],
            "stateMutability": "nonpayable",
            "type": "function"
        },
        {
            "inputs": [
                {
                    "internalType": "address",
                    "name": "operator",
                    "type": "address"
                },
                {
                    "internalType": "bool",
                    "name": "approved",
                    "type": "bool"
                }
            ],
            "name": "setApprovalForAll",
            "outputs": [],
            "stateMutability": "nonpayable",
            "type": "function"
        },
        {
            "inputs": [
                {
                    "internalType": "string",
                    "name": "name",
                    "type": "string"
                },
                {
                    "internalType": "string",
                    "name": "record",
                    "type": "string"
                }
            ],
            "name": "setRecord",
            "outputs": [],
            "stateMutability": "nonpayable",
            "type": "function"
        },
        {
            "inputs": [
                {
                    "internalType": "bytes4",
                    "name": "interfaceId",
                    "type": "bytes4"
                }
            ],
            "name": "supportsInterface",
            "outputs": [
                {
                    "internalType": "bool",
                    "name": "",
                    "type": "bool"
                }
            ],
            "stateMutability": "view",
            "type": "function"
        },
        {
            "inputs": [],
            "name": "symbol",
            "outputs": [
                {
                    "internalType": "string",
                    "name": "",
                    "type": "string"
                }
            ],
            "stateMutability": "view",
            "type": "function"
        },
        {
            "inputs": [],
            "name": "tld",
            "outputs": [
                {
                    "internalType": "string",
                    "name": "",
                    "type": "string"
                }
            ],
            "stateMutability": "view",
            "type": "function"
        },
        {
            "inputs": [
                {
                    "internalType": "uint256",
                    "name": "tokenId",
                    "type": "uint256"
                }
            ],
            "name": "tokenURI",
            "outputs": [
                {
                    "internalType": "string",
                    "name": "",
                    "type": "string"
                }
            ],
            "stateMutability": "view",
            "type": "function"
        },
        {
            "inputs": [
                {
                    "internalType": "address",
                    "name": "from",
                    "type": "address"
                },
                {
                    "internalType": "address",
                    "name": "to",
                    "type": "address"
                },
                {
                    "internalType": "uint256",
                    "name": "tokenId",
                    "type": "uint256"
                }
            ],
            "name": "transferFrom",
            "outputs": [],
            "stateMutability": "nonpayable",
            "type": "function"
        }
    ],
    "bytecode": "0x60806040526040518061088001604052806108478152602001620049646108479139600990805190602001906200003892919062000287565b506040518060400160405280600d81526020017f3c2f746578743e3c2f7376673e00000000000000000000000000000000000000815250600a90805190602001906200008692919062000287565b50604051620051ab380380620051ab8339818101604052810190620000ac9190620004d4565b6040518060400160405280601981526020017f4b65776c20446f6d61696e73204e616d652053657276696365000000000000008152506040518060400160405280600481526020017f4b444e530000000000000000000000000000000000000000000000000000000081525081600090805190602001906200013092919062000287565b5080600190805190602001906200014992919062000287565b50505080600890805190602001906200016492919062000287565b50620001b16040518060400160405280601881526020017f2573206e616d652073657276696365206465706c6f796564000000000000000081525082620001b860201b6200150c1760201c565b5062000622565b6200025a8282604051602401620001d192919062000582565b6040516020818303038152906040527f4b5c4277000000000000000000000000000000000000000000000000000000007bffffffffffffffffffffffffffffffffffffffffffffffffffffffff19166020820180517bffffffffffffffffffffffffffffffffffffffffffffffffffffffff83818316178352505050506200025e60201b60201c565b5050565b60008151905060006a636f6e736f6c652e6c6f679050602083016000808483855afa5050505050565b8280546200029590620005ec565b90600052602060002090601f016020900481019282620002b9576000855562000305565b82601f10620002d457805160ff191683800117855562000305565b8280016001018555821562000305579182015b8281111562000304578251825591602001919060010190620002e7565b5b50905062000314919062000318565b5090565b5b808211156200033357600081600090555060010162000319565b5090565b6000604051905090565b600080fd5b600080fd5b600080fd5b600080fd5b6000601f19601f8301169050919050565b7f4e487b7100000000000000000000000000000000000000000000000000000000600052604160045260246000fd5b620003a08262000355565b810181811067ffffffffffffffff82111715620003c257620003c162000366565b5b80604052505050565b6000620003d762000337565b9050620003e5828262000395565b919050565b600067ffffffffffffffff82111562000408576200040762000366565b5b620004138262000355565b9050602081019050919050565b60005b838110156200044057808201518184015260208101905062000423565b8381111562000450576000848401525b50505050565b60006200046d6200046784620003ea565b620003cb565b9050828152602081018484840111156200048c576200048b62000350565b5b6200049984828562000420565b509392505050565b600082601f830112620004b957620004b86200034b565b5b8151620004cb84826020860162000456565b91505092915050565b600060208284031215620004ed57620004ec62000341565b5b600082015167ffffffffffffffff8111156200050e576200050d62000346565b5b6200051c84828501620004a1565b91505092915050565b600081519050919050565b600082825260208201905092915050565b60006200054e8262000525565b6200055a818562000530565b93506200056c81856020860162000420565b620005778162000355565b840191505092915050565b600060408201905081810360008301526200059e818562000541565b90508181036020830152620005b4818462000541565b90509392505050565b7f4e487b7100000000000000000000000000000000000000000000000000000000600052602260045260246000fd5b600060028204905060018216806200060557607f821691505b602082108114156200061c576200061b620005bd565b5b50919050565b61433280620006326000396000f3fe60806040526004361061012a5760003560e01c80636352211e116100ab578063bf40fac11161006f578063bf40fac114610428578063c1880a9814610465578063c87b56dd1461048e578063e985e9c5146104cb578063f2c298be14610508578063fe2c6198146105245761012a565b80636352211e1461033157806370a082311461036e57806395d89b41146103ab578063a22cb465146103d6578063b88d4fde146103ff5761012a565b806323b872dd116100f257806323b872dd1461023a57806326449235146102635780632d551432146102a057806342842e0e146102cb578063541e771d146102f45761012a565b806301ffc9a71461012f57806306fdde031461016c578063081812fc14610197578063095ea7b3146101d457806311dd8845146101fd575b600080fd5b34801561013b57600080fd5b5061015660048036038101906101519190612952565b610561565b604051610163919061299a565b60405180910390f35b34801561017857600080fd5b50610181610643565b60405161018e9190612a4e565b60405180910390f35b3480156101a357600080fd5b506101be60048036038101906101b99190612aa6565b6106d5565b6040516101cb9190612b14565b60405180910390f35b3480156101e057600080fd5b506101fb60048036038101906101f69190612b5b565b61075a565b005b34801561020957600080fd5b50610224600480360381019061021f9190612c00565b610872565b6040516102319190612a4e565b60405180910390f35b34801561024657600080fd5b50610261600480360381019061025c9190612c4d565b610925565b005b34801561026f57600080fd5b5061028a60048036038101906102859190612dd0565b610985565b6040516102979190612b14565b60405180910390f35b3480156102ac57600080fd5b506102b56109ce565b6040516102c29190612a4e565b60405180910390f35b3480156102d757600080fd5b506102f260048036038101906102ed9190612c4d565b610a5c565b005b34801561030057600080fd5b5061031b60048036038101906103169190612dd0565b610a7c565b6040516103289190612a4e565b60405180910390f35b34801561033d57600080fd5b5061035860048036038101906103539190612aa6565b610b32565b6040516103659190612b14565b60405180910390f35b34801561037a57600080fd5b5061039560048036038101906103909190612e19565b610be4565b6040516103a29190612e55565b60405180910390f35b3480156103b757600080fd5b506103c0610c9c565b6040516103cd9190612a4e565b60405180910390f35b3480156103e257600080fd5b506103fd60048036038101906103f89190612e9c565b610d2e565b005b34801561040b57600080fd5b5061042660048036038101906104219190612f7d565b610d44565b005b34801561043457600080fd5b5061044f600480360381019061044a9190612c00565b610da6565b60405161045c9190612b14565b60405180910390f35b34801561047157600080fd5b5061048c60048036038101906104879190613000565b610df1565b005b34801561049a57600080fd5b506104b560048036038101906104b09190612aa6565b610e9f565b6040516104c29190612a4e565b60405180910390f35b3480156104d757600080fd5b506104f260048036038101906104ed9190613081565b610ff1565b6040516104ff919061299a565b60405180910390f35b610522600480360381019061051d9190612c00565b611085565b005b34801561053057600080fd5b5061054b60048036038101906105469190612c00565b611466565b6040516105589190612e55565b60405180910390f35b60007f80ac58cd000000000000000000000000000000000000000000000000000000007bffffffffffffffffffffffffffffffffffffffffffffffffffffffff1916827bffffffffffffffffffffffffffffffffffffffffffffffffffffffff1916148061062c57507f5b5e139f000000000000000000000000000000000000000000000000000000007bffffffffffffffffffffffffffffffffffffffffffffffffffffffff1916827bffffffffffffffffffffffffffffffffffffffffffffffffffffffff1916145b8061063c575061063b826115a8565b5b9050919050565b606060008054610652906130f0565b80601f016020809104026020016040519081016040528092919081815260200182805461067e906130f0565b80156106cb5780601f106106a0576101008083540402835291602001916106cb565b820191906000526020600020905b8154815290600101906020018083116106ae57829003601f168201915b5050505050905090565b60006106e082611612565b61071f576040517f08c379a000000000000000000000000000000000000000000000000000000000815260040161071690613194565b60405180910390fd5b6004600083815260200190815260200160002060009054906101000a900473ffffffffffffffffffffffffffffffffffffffff169050919050565b600061076582610b32565b90508073ffffffffffffffffffffffffffffffffffffffff168373ffffffffffffffffffffffffffffffffffffffff1614156107d6576040517f08c379a00000000000000000000000000000000000000000000000000000000081526004016107cd90613226565b60405180910390fd5b8073ffffffffffffffffffffffffffffffffffffffff166107f561167e565b73ffffffffffffffffffffffffffffffffffffffff16148061082457506108238161081e61167e565b610ff1565b5b610863576040517f08c379a000000000000000000000000000000000000000000000000000000000815260040161085a906132b8565b60405180910390fd5b61086d8383611686565b505050565b6060600c8383604051610886929190613308565b9081526020016040518091039020805461089f906130f0565b80601f01602080910402602001604051908101604052809291908181526020018280546108cb906130f0565b80156109185780601f106108ed57610100808354040283529160200191610918565b820191906000526020600020905b8154815290600101906020018083116108fb57829003601f168201915b5050505050905092915050565b61093661093061167e565b8261173f565b610975576040517f08c379a000000000000000000000000000000000000000000000000000000000815260040161096c90613393565b60405180910390fd5b61098083838361181d565b505050565b600b818051602081018201805184825260208301602085012081835280955050505050506000915054906101000a900473ffffffffffffffffffffffffffffffffffffffff1681565b600880546109db906130f0565b80601f0160208091040260200160405190810160405280929190818152602001828054610a07906130f0565b8015610a545780601f10610a2957610100808354040283529160200191610a54565b820191906000526020600020905b815481529060010190602001808311610a3757829003601f168201915b505050505081565b610a7783838360405180602001604052806000815250610d44565b505050565b600c818051602081018201805184825260208301602085012081835280955050505050506000915090508054610ab1906130f0565b80601f0160208091040260200160405190810160405280929190818152602001828054610add906130f0565b8015610b2a5780601f10610aff57610100808354040283529160200191610b2a565b820191906000526020600020905b815481529060010190602001808311610b0d57829003601f168201915b505050505081565b6000806002600084815260200190815260200160002060009054906101000a900473ffffffffffffffffffffffffffffffffffffffff169050600073ffffffffffffffffffffffffffffffffffffffff168173ffffffffffffffffffffffffffffffffffffffff161415610bdb576040517f08c379a0000000000000000000000000000000000000000000000000000000008152600401610bd290613425565b60405180910390fd5b80915050919050565b60008073ffffffffffffffffffffffffffffffffffffffff168273ffffffffffffffffffffffffffffffffffffffff161415610c55576040517f08c379a0000000000000000000000000000000000000000000000000000000008152600401610c4c906134b7565b60405180910390fd5b600360008373ffffffffffffffffffffffffffffffffffffffff1673ffffffffffffffffffffffffffffffffffffffff168152602001908152602001600020549050919050565b606060018054610cab906130f0565b80601f0160208091040260200160405190810160405280929190818152602001828054610cd7906130f0565b8015610d245780601f10610cf957610100808354040283529160200191610d24565b820191906000526020600020905b815481529060010190602001808311610d0757829003601f168201915b5050505050905090565b610d40610d3961167e565b8383611a84565b5050565b610d55610d4f61167e565b8361173f565b610d94576040517f08c379a0000000000000000000000000000000000000000000000000000000008152600401610d8b90613393565b60405180910390fd5b610da084848484611bf1565b50505050565b6000600b8383604051610dba929190613308565b908152602001604051809103902060009054906101000a900473ffffffffffffffffffffffffffffffffffffffff16905092915050565b3373ffffffffffffffffffffffffffffffffffffffff16600b8585604051610e1a929190613308565b908152602001604051809103902060009054906101000a900473ffffffffffffffffffffffffffffffffffffffff1673ffffffffffffffffffffffffffffffffffffffff1614610e6957600080fd5b8181600c8686604051610e7d929190613308565b90815260200160405180910390209190610e989291906127bd565b5050505050565b6060610eaa82611612565b610ee9576040517f08c379a0000000000000000000000000000000000000000000000000000000008152600401610ee090613549565b60405180910390fd5b6000600660008481526020019081526020016000208054610f09906130f0565b80601f0160208091040260200160405190810160405280929190818152602001828054610f35906130f0565b8015610f825780601f10610f5757610100808354040283529160200191610f82565b820191906000526020600020905b815481529060010190602001808311610f6557829003601f168201915b505050505090506000610f93611c4d565b9050600081511415610fa9578192505050610fec565b600082511115610fde578082604051602001610fc692919061359a565b60405160208183030381529060405292505050610fec565b610fe784611c64565b925050505b919050565b6000600560008473ffffffffffffffffffffffffffffffffffffffff1673ffffffffffffffffffffffffffffffffffffffff16815260200190815260200160002060008373ffffffffffffffffffffffffffffffffffffffff1673ffffffffffffffffffffffffffffffffffffffff16815260200190815260200160002060009054906101000a900460ff16905092915050565b600073ffffffffffffffffffffffffffffffffffffffff16600b83836040516110af929190613308565b908152602001604051809103902060009054906101000a900473ffffffffffffffffffffffffffffffffffffffff1673ffffffffffffffffffffffffffffffffffffffff16146110fe57600080fd5b600061110a8383611466565b90508034101561114f576040517f08c379a00000000000000000000000000000000000000000000000000000000081526004016111469061360a565b60405180910390fd5b6000838360086040516020016111679392919061370a565b60405160208183030381529060405290506000600982600a6040516020016111919392919061373b565b604051602081830303815290604052905060006111ae6007611d0b565b905060006111ff87878080601f016020809104026020016040519081016040528093929190818152602001838380828437600081840152601f19601f82011690508083019250505050505050611d19565b9050600061120c82611ece565b90506113006040518060600160405280603181526020016142536031913989898080601f016020809104026020016040519081016040528093929190818152602001838380828437600081840152601f19601f820116905080830192505050505050506008805461127c906130f0565b80601f01602080910402602001604051908101604052809291908181526020018280546112a8906130f0565b80156112f55780601f106112ca576101008083540402835291602001916112f5565b820191906000526020600020905b8154815290600101906020018083116112d857829003601f168201915b50505050508661202f565b60006113368661130f876120d1565b846040516020016113229392919061390e565b6040516020818303038152906040526120d1565b905060008160405160200161134b91906139b7565b604051602081830303815290604052905061137d60405180606001604052806039815260200161421a60399139612269565b6113bc6040518060400160405280600e81526020017f46696e616c20746f6b656e5552490000000000000000000000000000000000008152508261150c565b6113dd60405180606001604052806039815260200161428460399139612269565b6113e73386612302565b6113f18582612320565b33600b8b8b604051611404929190613308565b908152602001604051809103902060006101000a81548173ffffffffffffffffffffffffffffffffffffffff021916908373ffffffffffffffffffffffffffffffffffffffff16021790555061145a6007612394565b50505050505050505050565b6000806114b684848080601f016020809104026020016040519081016040528093929190818152602001838380828437600081840152601f19601f82011690508083019250505050505050611d19565b9050600081116114c557600080fd5b60038114156114df576706f05b59d3b20000915050611506565b60048114156114f957670429d069189e0000915050611506565b67016345785d8a00009150505b92915050565b6115a482826040516024016115229291906139d9565b6040516020818303038152906040527f4b5c4277000000000000000000000000000000000000000000000000000000007bffffffffffffffffffffffffffffffffffffffffffffffffffffffff19166020820180517bffffffffffffffffffffffffffffffffffffffffffffffffffffffff83818316178352505050506123aa565b5050565b60007f01ffc9a7000000000000000000000000000000000000000000000000000000007bffffffffffffffffffffffffffffffffffffffffffffffffffffffff1916827bffffffffffffffffffffffffffffffffffffffffffffffffffffffff1916149050919050565b60008073ffffffffffffffffffffffffffffffffffffffff166002600084815260200190815260200160002060009054906101000a900473ffffffffffffffffffffffffffffffffffffffff1673ffffffffffffffffffffffffffffffffffffffff1614159050919050565b600033905090565b816004600083815260200190815260200160002060006101000a81548173ffffffffffffffffffffffffffffffffffffffff021916908373ffffffffffffffffffffffffffffffffffffffff160217905550808273ffffffffffffffffffffffffffffffffffffffff166116f983610b32565b73ffffffffffffffffffffffffffffffffffffffff167f8c5be1e5ebec7d5bd14f71427d1e84f3dd0314c0f7b2291e5b200ac8c7c3b92560405160405180910390a45050565b600061174a82611612565b611789576040517f08c379a000000000000000000000000000000000000000000000000000000000815260040161178090613a82565b60405180910390fd5b600061179483610b32565b90508073ffffffffffffffffffffffffffffffffffffffff168473ffffffffffffffffffffffffffffffffffffffff16148061180357508373ffffffffffffffffffffffffffffffffffffffff166117eb846106d5565b73ffffffffffffffffffffffffffffffffffffffff16145b8061181457506118138185610ff1565b5b91505092915050565b8273ffffffffffffffffffffffffffffffffffffffff1661183d82610b32565b73ffffffffffffffffffffffffffffffffffffffff1614611893576040517f08c379a000000000000000000000000000000000000000000000000000000000815260040161188a90613b14565b60405180910390fd5b600073ffffffffffffffffffffffffffffffffffffffff168273ffffffffffffffffffffffffffffffffffffffff161415611903576040517f08c379a00000000000000000000000000000000000000000000000000000000081526004016118fa90613ba6565b60405180910390fd5b61190e8383836123d3565b611919600082611686565b6001600360008573ffffffffffffffffffffffffffffffffffffffff1673ffffffffffffffffffffffffffffffffffffffff16815260200190815260200160002060008282546119699190613bf5565b925050819055506001600360008473ffffffffffffffffffffffffffffffffffffffff1673ffffffffffffffffffffffffffffffffffffffff16815260200190815260200160002060008282546119c09190613c29565b92505081905550816002600083815260200190815260200160002060006101000a81548173ffffffffffffffffffffffffffffffffffffffff021916908373ffffffffffffffffffffffffffffffffffffffff160217905550808273ffffffffffffffffffffffffffffffffffffffff168473ffffffffffffffffffffffffffffffffffffffff167fddf252ad1be2c89b69c2b068fc378daa952ba7f163c4a11628f55a4df523b3ef60405160405180910390a4611a7f8383836123d8565b505050565b8173ffffffffffffffffffffffffffffffffffffffff168373ffffffffffffffffffffffffffffffffffffffff161415611af3576040517f08c379a0000000000000000000000000000000000000000000000000000000008152600401611aea90613ccb565b60405180910390fd5b80600560008573ffffffffffffffffffffffffffffffffffffffff1673ffffffffffffffffffffffffffffffffffffffff16815260200190815260200160002060008473ffffffffffffffffffffffffffffffffffffffff1673ffffffffffffffffffffffffffffffffffffffff16815260200190815260200160002060006101000a81548160ff0219169083151502179055508173ffffffffffffffffffffffffffffffffffffffff168373ffffffffffffffffffffffffffffffffffffffff167f17307eab39ab6107e8899845ad3d59bd9653f200f220920489ca2b5937696c3183604051611be4919061299a565b60405180910390a3505050565b611bfc84848461181d565b611c08848484846123dd565b611c47576040517f08c379a0000000000000000000000000000000000000000000000000000000008152600401611c3e90613d5d565b60405180910390fd5b50505050565b606060405180602001604052806000815250905090565b6060611c6f82611612565b611cae576040517f08c379a0000000000000000000000000000000000000000000000000000000008152600401611ca590613def565b60405180910390fd5b6000611cb8611c4d565b90506000815111611cd85760405180602001604052806000815250611d03565b80611ce284611ece565b604051602001611cf392919061359a565b6040516020818303038152906040525b915050919050565b600081600001549050919050565b60008060008084519050600092505b80821015611ec3576000858381518110611d4557611d44613e0f565b5b602001015160f81c60f81b9050608060f81b817effffffffffffffffffffffffffffffffffffffffffffffffffffffffffffff19161015611d9457600183611d8d9190613c29565b9250611eaf565b60e060f81b817effffffffffffffffffffffffffffffffffffffffffffffffffffffffffffff19161015611dd657600283611dcf9190613c29565b9250611eae565b60f060f81b817effffffffffffffffffffffffffffffffffffffffffffffffffffffffffffff19161015611e1857600383611e119190613c29565b9250611ead565b60f8801b817effffffffffffffffffffffffffffffffffffffffffffffffffffffffffffff19161015611e5957600483611e529190613c29565b9250611eac565b60fc60f81b817effffffffffffffffffffffffffffffffffffffffffffffffffffffffffffff19161015611e9b57600583611e949190613c29565b9250611eab565b600683611ea89190613c29565b92505b5b5b5b5b508280611ebb90613e3e565b935050611d28565b829350505050919050565b60606000821415611f16576040518060400160405280600181526020017f3000000000000000000000000000000000000000000000000000000000000000815250905061202a565b600082905060005b60008214611f48578080611f3190613e3e565b915050600a82611f419190613eb6565b9150611f1e565b60008167ffffffffffffffff811115611f6457611f63612ca5565b5b6040519080825280601f01601f191660200182016040528015611f965781602001600182028036833780820191505090505b5090505b6000851461202357600182611faf9190613bf5565b9150600a85611fbe9190613ee7565b6030611fca9190613c29565b60f81b818381518110611fe057611fdf613e0f565b5b60200101907effffffffffffffffffffffffffffffffffffffffffffffffffffffffffffff1916908160001a905350600a8561201c9190613eb6565b9450611f9a565b8093505050505b919050565b6120cb848484846040516024016120499493929190613f18565b6040516020818303038152906040527f9fd009f5000000000000000000000000000000000000000000000000000000007bffffffffffffffffffffffffffffffffffffffffffffffffffffffff19166020820180517bffffffffffffffffffffffffffffffffffffffffffffffffffffffff83818316178352505050506123aa565b50505050565b606060008251905060008114156120fa5760405180602001604052806000815250915050612264565b6000600360028361210b9190613c29565b6121159190613eb6565b60046121219190613f72565b905060006020826121329190613c29565b67ffffffffffffffff81111561214b5761214a612ca5565b5b6040519080825280601f01601f19166020018201604052801561217d5781602001600182028036833780820191505090505b50905060006040518060600160405280604081526020016142bd604091399050600181016020830160005b868110156122215760038101905062ffffff818a015116603f8160121c168401518060081b905060ff603f83600c1c1686015116810190508060081b905060ff603f8360061c1686015116810190508060081b905060ff603f831686015116810190508060e01b905080845260048401935050506121a8565b50600386066001811461223b576002811461224b57612256565b613d3d60f01b6002830352612256565b603d60f81b60018303525b508484525050819450505050505b919050565b6122ff8160405160240161227d9190612a4e565b6040516020818303038152906040527f41304fac000000000000000000000000000000000000000000000000000000007bffffffffffffffffffffffffffffffffffffffffffffffffffffffff19166020820180517bffffffffffffffffffffffffffffffffffffffffffffffffffffffff83818316178352505050506123aa565b50565b61231c828260405180602001604052806000815250612565565b5050565b61232982611612565b612368576040517f08c379a000000000000000000000000000000000000000000000000000000000815260040161235f9061403e565b60405180910390fd5b8060066000848152602001908152602001600020908051906020019061238f929190612843565b505050565b6001816000016000828254019250508190555050565b60008151905060006a636f6e736f6c652e6c6f679050602083016000808483855afa5050505050565b505050565b505050565b60006123fe8473ffffffffffffffffffffffffffffffffffffffff166125c0565b15612558578373ffffffffffffffffffffffffffffffffffffffff1663150b7a0261242761167e565b8786866040518563ffffffff1660e01b815260040161244994939291906140b3565b6020604051808303816000875af192505050801561248557506040513d601f19601f820116820180604052508101906124829190614114565b60015b612508573d80600081146124b5576040519150601f19603f3d011682016040523d82523d6000602084013e6124ba565b606091505b50600081511415612500576040517f08c379a00000000000000000000000000000000000000000000000000000000081526004016124f790613d5d565b60405180910390fd5b805181602001fd5b63150b7a0260e01b7bffffffffffffffffffffffffffffffffffffffffffffffffffffffff1916817bffffffffffffffffffffffffffffffffffffffffffffffffffffffff19161491505061255d565b600190505b949350505050565b61256f83836125e3565b61257c60008484846123dd565b6125bb576040517f08c379a00000000000000000000000000000000000000000000000000000000081526004016125b290613d5d565b60405180910390fd5b505050565b6000808273ffffffffffffffffffffffffffffffffffffffff163b119050919050565b600073ffffffffffffffffffffffffffffffffffffffff168273ffffffffffffffffffffffffffffffffffffffff161415612653576040517f08c379a000000000000000000000000000000000000000000000000000000000815260040161264a9061418d565b60405180910390fd5b61265c81611612565b1561269c576040517f08c379a0000000000000000000000000000000000000000000000000000000008152600401612693906141f9565b60405180910390fd5b6126a8600083836123d3565b6001600360008473ffffffffffffffffffffffffffffffffffffffff1673ffffffffffffffffffffffffffffffffffffffff16815260200190815260200160002060008282546126f89190613c29565b92505081905550816002600083815260200190815260200160002060006101000a81548173ffffffffffffffffffffffffffffffffffffffff021916908373ffffffffffffffffffffffffffffffffffffffff160217905550808273ffffffffffffffffffffffffffffffffffffffff16600073ffffffffffffffffffffffffffffffffffffffff167fddf252ad1be2c89b69c2b068fc378daa952ba7f163c4a11628f55a4df523b3ef60405160405180910390a46127b9600083836123d8565b5050565b8280546127c9906130f0565b90600052602060002090601f0160209004810192826127eb5760008555612832565b82601f1061280457803560ff1916838001178555612832565b82800160010185558215612832579182015b82811115612831578235825591602001919060010190612816565b5b50905061283f91906128c9565b5090565b82805461284f906130f0565b90600052602060002090601f01602090048101928261287157600085556128b8565b82601f1061288a57805160ff19168380011785556128b8565b828001600101855582156128b8579182015b828111156128b757825182559160200191906001019061289c565b5b5090506128c591906128c9565b5090565b5b808211156128e25760008160009055506001016128ca565b5090565b6000604051905090565b600080fd5b600080fd5b60007fffffffff0000000000000000000000000000000000000000000000000000000082169050919050565b61292f816128fa565b811461293a57600080fd5b50565b60008135905061294c81612926565b92915050565b600060208284031215612968576129676128f0565b5b60006129768482850161293d565b91505092915050565b60008115159050919050565b6129948161297f565b82525050565b60006020820190506129af600083018461298b565b92915050565b600081519050919050565b600082825260208201905092915050565b60005b838110156129ef5780820151818401526020810190506129d4565b838111156129fe576000848401525b50505050565b6000601f19601f8301169050919050565b6000612a20826129b5565b612a2a81856129c0565b9350612a3a8185602086016129d1565b612a4381612a04565b840191505092915050565b60006020820190508181036000830152612a688184612a15565b905092915050565b6000819050919050565b612a8381612a70565b8114612a8e57600080fd5b50565b600081359050612aa081612a7a565b92915050565b600060208284031215612abc57612abb6128f0565b5b6000612aca84828501612a91565b91505092915050565b600073ffffffffffffffffffffffffffffffffffffffff82169050919050565b6000612afe82612ad3565b9050919050565b612b0e81612af3565b82525050565b6000602082019050612b296000830184612b05565b92915050565b612b3881612af3565b8114612b4357600080fd5b50565b600081359050612b5581612b2f565b92915050565b60008060408385031215612b7257612b716128f0565b5b6000612b8085828601612b46565b9250506020612b9185828601612a91565b9150509250929050565b600080fd5b600080fd5b600080fd5b60008083601f840112612bc057612bbf612b9b565b5b8235905067ffffffffffffffff811115612bdd57612bdc612ba0565b5b602083019150836001820283011115612bf957612bf8612ba5565b5b9250929050565b60008060208385031215612c1757612c166128f0565b5b600083013567ffffffffffffffff811115612c3557612c346128f5565b5b612c4185828601612baa565b92509250509250929050565b600080600060608486031215612c6657612c656128f0565b5b6000612c7486828701612b46565b9350506020612c8586828701612b46565b9250506040612c9686828701612a91565b9150509250925092565b600080fd5b7f4e487b7100000000000000000000000000000000000000000000000000000000600052604160045260246000fd5b612cdd82612a04565b810181811067ffffffffffffffff82111715612cfc57612cfb612ca5565b5b80604052505050565b6000612d0f6128e6565b9050612d1b8282612cd4565b919050565b600067ffffffffffffffff821115612d3b57612d3a612ca5565b5b612d4482612a04565b9050602081019050919050565b82818337600083830152505050565b6000612d73612d6e84612d20565b612d05565b905082815260208101848484011115612d8f57612d8e612ca0565b5b612d9a848285612d51565b509392505050565b600082601f830112612db757612db6612b9b565b5b8135612dc7848260208601612d60565b91505092915050565b600060208284031215612de657612de56128f0565b5b600082013567ffffffffffffffff811115612e0457612e036128f5565b5b612e1084828501612da2565b91505092915050565b600060208284031215612e2f57612e2e6128f0565b5b6000612e3d84828501612b46565b91505092915050565b612e4f81612a70565b82525050565b6000602082019050612e6a6000830184612e46565b92915050565b612e798161297f565b8114612e8457600080fd5b50565b600081359050612e9681612e70565b92915050565b60008060408385031215612eb357612eb26128f0565b5b6000612ec185828601612b46565b9250506020612ed285828601612e87565b9150509250929050565b600067ffffffffffffffff821115612ef757612ef6612ca5565b5b612f0082612a04565b9050602081019050919050565b6000612f20612f1b84612edc565b612d05565b905082815260208101848484011115612f3c57612f3b612ca0565b5b612f47848285612d51565b509392505050565b600082601f830112612f6457612f63612b9b565b5b8135612f74848260208601612f0d565b91505092915050565b60008060008060808587031215612f9757612f966128f0565b5b6000612fa587828801612b46565b9450506020612fb687828801612b46565b9350506040612fc787828801612a91565b925050606085013567ffffffffffffffff811115612fe857612fe76128f5565b5b612ff487828801612f4f565b91505092959194509250565b6000806000806040858703121561301a576130196128f0565b5b600085013567ffffffffffffffff811115613038576130376128f5565b5b61304487828801612baa565b9450945050602085013567ffffffffffffffff811115613067576130666128f5565b5b61307387828801612baa565b925092505092959194509250565b60008060408385031215613098576130976128f0565b5b60006130a685828601612b46565b92505060206130b785828601612b46565b9150509250929050565b7f4e487b7100000000000000000000000000000000000000000000000000000000600052602260045260246000fd5b6000600282049050600182168061310857607f821691505b6020821081141561311c5761311b6130c1565b5b50919050565b7f4552433732313a20617070726f76656420717565727920666f72206e6f6e657860008201527f697374656e7420746f6b656e0000000000000000000000000000000000000000602082015250565b600061317e602c836129c0565b915061318982613122565b604082019050919050565b600060208201905081810360008301526131ad81613171565b9050919050565b7f4552433732313a20617070726f76616c20746f2063757272656e74206f776e6560008201527f7200000000000000000000000000000000000000000000000000000000000000602082015250565b60006132106021836129c0565b915061321b826131b4565b604082019050919050565b6000602082019050818103600083015261323f81613203565b9050919050565b7f4552433732313a20617070726f76652063616c6c6572206973206e6f74206f7760008201527f6e6572206e6f7220617070726f76656420666f7220616c6c0000000000000000602082015250565b60006132a26038836129c0565b91506132ad82613246565b604082019050919050565b600060208201905081810360008301526132d181613295565b9050919050565b600081905092915050565b60006132ef83856132d8565b93506132fc838584612d51565b82840190509392505050565b60006133158284866132e3565b91508190509392505050565b7f4552433732313a207472616e736665722063616c6c6572206973206e6f74206f60008201527f776e6572206e6f7220617070726f766564000000000000000000000000000000602082015250565b600061337d6031836129c0565b915061338882613321565b604082019050919050565b600060208201905081810360008301526133ac81613370565b9050919050565b7f4552433732313a206f776e657220717565727920666f72206e6f6e657869737460008201527f656e7420746f6b656e0000000000000000000000000000000000000000000000602082015250565b600061340f6029836129c0565b915061341a826133b3565b604082019050919050565b6000602082019050818103600083015261343e81613402565b9050919050565b7f4552433732313a2062616c616e636520717565727920666f7220746865207a6560008201527f726f206164647265737300000000000000000000000000000000000000000000602082015250565b60006134a1602a836129c0565b91506134ac82613445565b604082019050919050565b600060208201905081810360008301526134d081613494565b9050919050565b7f45524337323155524953746f726167653a2055524920717565727920666f722060008201527f6e6f6e6578697374656e7420746f6b656e000000000000000000000000000000602082015250565b60006135336031836129c0565b915061353e826134d7565b604082019050919050565b6000602082019050818103600083015261356281613526565b9050919050565b6000613574826129b5565b61357e81856132d8565b935061358e8185602086016129d1565b80840191505092915050565b60006135a68285613569565b91506135b28284613569565b91508190509392505050565b7f4e6f7420656e6f756768204d6174696320706169640000000000000000000000600082015250565b60006135f46015836129c0565b91506135ff826135be565b602082019050919050565b60006020820190508181036000830152613623816135e7565b9050919050565b7f2e00000000000000000000000000000000000000000000000000000000000000600082015250565b60006136606001836132d8565b915061366b8261362a565b600182019050919050565b60008190508160005260206000209050919050565b60008154613698816130f0565b6136a281866132d8565b945060018216600081146136bd57600181146136ce57613701565b60ff19831686528186019350613701565b6136d785613676565b60005b838110156136f9578154818901526001820191506020810190506136da565b838801955050505b50505092915050565b60006137178285876132e3565b915061372282613653565b915061372e828461368b565b9150819050949350505050565b6000613747828661368b565b91506137538285613569565b915061375f828461368b565b9150819050949350505050565b7f7b226e616d65223a202200000000000000000000000000000000000000000000600082015250565b60006137a2600a836132d8565b91506137ad8261376c565b600a82019050919050565b7f222c20226465736372697074696f6e223a20224120646f6d61696e206f6e207460008201527f6865204b65776c20446f6d61696e73204e616d652053657276696365222c202260208201527f696d616765223a2022646174613a696d6167652f7376672b786d6c3b6261736560408201527f36342c0000000000000000000000000000000000000000000000000000000000606082015250565b60006138606063836132d8565b915061386b826137b8565b606382019050919050565b7f222c226c656e677468223a220000000000000000000000000000000000000000600082015250565b60006138ac600c836132d8565b91506138b782613876565b600c82019050919050565b7f227d000000000000000000000000000000000000000000000000000000000000600082015250565b60006138f86002836132d8565b9150613903826138c2565b600282019050919050565b600061391982613795565b91506139258286613569565b915061393082613853565b915061393c8285613569565b91506139478261389f565b91506139538284613569565b915061395e826138eb565b9150819050949350505050565b7f646174613a6170706c69636174696f6e2f6a736f6e3b6261736536342c000000600082015250565b60006139a1601d836132d8565b91506139ac8261396b565b601d82019050919050565b60006139c282613994565b91506139ce8284613569565b915081905092915050565b600060408201905081810360008301526139f38185612a15565b90508181036020830152613a078184612a15565b90509392505050565b7f4552433732313a206f70657261746f7220717565727920666f72206e6f6e657860008201527f697374656e7420746f6b656e0000000000000000000000000000000000000000602082015250565b6000613a6c602c836129c0565b9150613a7782613a10565b604082019050919050565b60006020820190508181036000830152613a9b81613a5f565b9050919050565b7f4552433732313a207472616e736665722066726f6d20696e636f72726563742060008201527f6f776e6572000000000000000000000000000000000000000000000000000000602082015250565b6000613afe6025836129c0565b9150613b0982613aa2565b604082019050919050565b60006020820190508181036000830152613b2d81613af1565b9050919050565b7f4552433732313a207472616e7366657220746f20746865207a65726f2061646460008201527f7265737300000000000000000000000000000000000000000000000000000000602082015250565b6000613b906024836129c0565b9150613b9b82613b34565b604082019050919050565b60006020820190508181036000830152613bbf81613b83565b9050919050565b7f4e487b7100000000000000000000000000000000000000000000000000000000600052601160045260246000fd5b6000613c0082612a70565b9150613c0b83612a70565b925082821015613c1e57613c1d613bc6565b5b828203905092915050565b6000613c3482612a70565b9150613c3f83612a70565b9250827fffffffffffffffffffffffffffffffffffffffffffffffffffffffffffffffff03821115613c7457613c73613bc6565b5b828201905092915050565b7f4552433732313a20617070726f766520746f2063616c6c657200000000000000600082015250565b6000613cb56019836129c0565b9150613cc082613c7f565b602082019050919050565b60006020820190508181036000830152613ce481613ca8565b9050919050565b7f4552433732313a207472616e7366657220746f206e6f6e20455243373231526560008201527f63656976657220696d706c656d656e7465720000000000000000000000000000602082015250565b6000613d476032836129c0565b9150613d5282613ceb565b604082019050919050565b60006020820190508181036000830152613d7681613d3a565b9050919050565b7f4552433732314d657461646174613a2055524920717565727920666f72206e6f60008201527f6e6578697374656e7420746f6b656e0000000000000000000000000000000000602082015250565b6000613dd9602f836129c0565b9150613de482613d7d565b604082019050919050565b60006020820190508181036000830152613e0881613dcc565b9050919050565b7f4e487b7100000000000000000000000000000000000000000000000000000000600052603260045260246000fd5b6000613e4982612a70565b91507fffffffffffffffffffffffffffffffffffffffffffffffffffffffffffffffff821415613e7c57613e7b613bc6565b5b600182019050919050565b7f4e487b7100000000000000000000000000000000000000000000000000000000600052601260045260246000fd5b6000613ec182612a70565b9150613ecc83612a70565b925082613edc57613edb613e87565b5b828204905092915050565b6000613ef282612a70565b9150613efd83612a70565b925082613f0d57613f0c613e87565b5b828206905092915050565b60006080820190508181036000830152613f328187612a15565b90508181036020830152613f468186612a15565b90508181036040830152613f5a8185612a15565b9050613f696060830184612e46565b95945050505050565b6000613f7d82612a70565b9150613f8883612a70565b9250817fffffffffffffffffffffffffffffffffffffffffffffffffffffffffffffffff0483118215151615613fc157613fc0613bc6565b5b828202905092915050565b7f45524337323155524953746f726167653a2055524920736574206f66206e6f6e60008201527f6578697374656e7420746f6b656e000000000000000000000000000000000000602082015250565b6000614028602e836129c0565b915061403382613fcc565b604082019050919050565b600060208201905081810360008301526140578161401b565b9050919050565b600081519050919050565b600082825260208201905092915050565b60006140858261405e565b61408f8185614069565b935061409f8185602086016129d1565b6140a881612a04565b840191505092915050565b60006080820190506140c86000830187612b05565b6140d56020830186612b05565b6140e26040830185612e46565b81810360608301526140f4818461407a565b905095945050505050565b60008151905061410e81612926565b92915050565b60006020828403121561412a576141296128f0565b5b6000614138848285016140ff565b91505092915050565b7f4552433732313a206d696e7420746f20746865207a65726f2061646472657373600082015250565b60006141776020836129c0565b915061418282614141565b602082019050919050565b600060208201905081810360008301526141a68161416a565b9050919050565b7f4552433732313a20746f6b656e20616c7265616479206d696e74656400000000600082015250565b60006141e3601c836129c0565b91506141ee826141ad565b602082019050919050565b60006020820190508181036000830152614212816141d6565b905091905056fe0a2d2d2d2d2d2d2d2d2d2d2d2d2d2d2d2d2d2d2d2d2d2d2d2d2d2d2d2d2d2d2d2d2d2d2d2d2d2d2d2d2d2d2d2d2d2d2d2d2d2d2d2d2d2d2d2d5265676973746572696e672025732e2573206f6e2074686520636f6e7472616374207769746820746f6b656e49442025642d2d2d2d2d2d2d2d2d2d2d2d2d2d2d2d2d2d2d2d2d2d2d2d2d2d2d2d2d2d2d2d2d2d2d2d2d2d2d2d2d2d2d2d2d2d2d2d2d2d2d2d2d2d2d2d0a4142434445464748494a4b4c4d4e4f505152535455565758595a6162636465666768696a6b6c6d6e6f707172737475767778797a303132333435363738392b2fa264697066735822122008cd6d801f2f6a8d9a4233f887b3f3d2dfdfdd753b91feb6d93c642356e9985964736f6c634300080a00333c73766720786d6c6e733d22687474703a2f2f7777772e77332e6f72672f323030302f737667222077696474683d2232373022206865696768743d22323730222066696c6c3d226e6f6e65223e3c706174682066696c6c3d2275726c282361292220643d224d302030683237307632373048307a222f3e3c646566733e3c66696c7465722069643d22622220636f6c6f722d696e746572706f6c6174696f6e2d66696c746572733d2273524742222066696c746572556e6974733d227573657253706163654f6e55736522206865696768743d22323730222077696474683d22323730223e3c666544726f70536861646f772064783d2230222064793d22312220737464446576696174696f6e3d22322220666c6f6f642d6f7061636974793d222e323235222077696474683d223230302522206865696768743d2232303025222f3e3c2f66696c7465723e3c2f646566733e3c7061746820643d224d37322e3836332034322e39343961342e33383220342e3338322030203020302d342e33393420306c2d31302e30383120362e3033322d362e383520332e3933342d31302e30383120362e30333261342e33383220342e3338322030203020312d342e33393420306c2d382e3031332d342e37323161342e353220342e35322030203020312d312e3538392d312e36313620342e353420342e35342030203020312d2e3630382d322e313837762d392e333161342e323720342e3237203020302031202e3537322d322e32303820342e323520342e323520302030203120312e3632352d312e3539356c372e3838342d342e353961342e33383220342e33383220302030203120342e33393420306c372e38383420342e353961342e353220342e353220302030203120312e35383920312e36313620342e353420342e3534203020302031202e36303820322e31383776362e3033326c362e38352d342e303635762d362e30333261342e323720342e32372030203020302d2e3537322d322e32303820342e323520342e32352030203020302d312e3632352d312e3539354c34312e3435362032342e353961342e33383220342e3338322030203020302d342e33393420306c2d31342e38363420382e36353561342e323520342e32352030203020302d312e36323520312e35393520342e32373320342e3237332030203020302d2e35373220322e3230387631372e34343161342e323720342e3237203020302030202e35373220322e32303820342e323520342e323520302030203020312e36323520312e3539356c31342e38363420382e36353561342e33383220342e33383220302030203020342e33393420306c31302e3038312d352e39303120362e38352d342e3036352031302e3038312d352e39303161342e33383220342e33383220302030203120342e33393420306c372e38383420342e353961342e353220342e353220302030203120312e35383920312e36313620342e353420342e3534203020302031202e36303820322e31383776392e33313161342e323720342e32372030203020312d2e35373220322e32303820342e323520342e32352030203020312d312e36323520312e3539356c2d372e38383420342e37323161342e33383220342e3338322030203020312d342e33393420306c2d372e3838342d342e353961342e353220342e35322030203020312d312e3538392d312e36313620342e353320342e35332030203020312d2e3630382d322e313837762d362e3033326c2d362e383520342e30363576362e30333261342e323720342e3237203020302030202e35373220322e32303820342e323520342e323520302030203020312e36323520312e3539356c31342e38363420382e36353561342e33383220342e33383220302030203020342e33393420306c31342e3836342d382e36353561342e35343520342e35343520302030203020322e3139382d332e3830335635352e35333861342e323720342e32372030203020302d2e3537322d322e32303820342e323520342e32352030203020302d312e3632352d312e3539356c2d31342e3939332d382e3738367a222066696c6c3d2223666666222f3e3c646566733e3c6c696e6561724772616469656e742069643d2261222078313d2230222079313d2230222078323d22323730222079323d2232373022206772616469656e74556e6974733d227573657253706163654f6e557365223e3c73746f70206f66667365743d223025222073746f702d636f6c6f723d2223306364376534223e3c616e696d617465206174747269627574654e616d653d2273746f702d636f6c6f72222076616c7565733d22233063643765343b20233063643765343b202337413546464622206475723d2235732220726570656174436f756e743d22696e646566696e697465222f3e3c2f73746f703e3c73746f70206f66667365743d2231222073746f702d636f6c6f723d2223636235656565223e3c616e696d617465206174747269627574654e616d653d2273746f702d636f6c6f72222076616c7565733d22233031464638393b20233741354646463b202330314646383922206475723d2234732220726570656174436f756e743d22696e646566696e697465222f3e3c2f73746f703e3c2f6c696e6561724772616469656e743e3c2f646566733e3c7465787420783d2233322e352220793d223233312220666f6e742d73697a653d223237222066696c6c3d2223666666222066696c7465723d2275726c282362292220666f6e742d66616d696c793d22506c7573204a616b617274612053616e732c44656a6156752053616e732c4e6f746f20436f6c6f7220456d6f6a692c4170706c6520436f6c6f7220456d6f6a692c73616e732d73657269662220666f6e742d7765696768743d22626f6c64223e",
    "linkReferences": {},
    "deployedLinkReferences": {}
}