{
  "_format": "hh-sol-artifact-1",
  "contractName": "Domains",
  "sourceName": "contracts/Domains.sol",
  "abi": [
    {
      "inputs": [
        {
          "internalType": "string",
          "name": "_tld",
          "type": "string"
        }
      ],
      "stateMutability": "payable",
      "type": "constructor"
    },
    {
      "anonymous": false,
      "inputs": [
        {
          "indexed": true,
          "internalType": "address",
          "name": "owner",
          "type": "address"
        },
        {
          "indexed": true,
          "internalType": "address",
          "name": "approved",
          "type": "address"
        },
        {
          "indexed": true,
          "internalType": "uint256",
          "name": "tokenId",
          "type": "uint256"
        }
      ],
      "name": "Approval",
      "type": "event"
    },
    {
      "anonymous": false,
      "inputs": [
        {
          "indexed": true,
          "internalType": "address",
          "name": "owner",
          "type": "address"
        },
        {
          "indexed": true,
          "internalType": "address",
          "name": "operator",
          "type": "address"
        },
        {
          "indexed": false,
          "internalType": "bool",
          "name": "approved",
          "type": "bool"
        }
      ],
      "name": "ApprovalForAll",
      "type": "event"
    },
    {
      "anonymous": false,
      "inputs": [
        {
          "indexed": true,
          "internalType": "address",
          "name": "from",
          "type": "address"
        },
        {
          "indexed": true,
          "internalType": "address",
          "name": "to",
          "type": "address"
        },
        {
          "indexed": true,
          "internalType": "uint256",
          "name": "tokenId",
          "type": "uint256"
        }
      ],
      "name": "Transfer",
      "type": "event"
    },
    {
      "inputs": [
        {
          "internalType": "address",
          "name": "to",
          "type": "address"
        },
        {
          "internalType": "uint256",
          "name": "tokenId",
          "type": "uint256"
        }
      ],
      "name": "approve",
      "outputs": [],
      "stateMutability": "nonpayable",
      "type": "function"
    },
    {
      "inputs": [
        {
          "internalType": "address",
          "name": "owner",
          "type": "address"
        }
      ],
      "name": "balanceOf",
      "outputs": [
        {
          "internalType": "uint256",
          "name": "",
          "type": "uint256"
        }
      ],
      "stateMutability": "view",
      "type": "function"
    },
    {
      "inputs": [
        {
          "internalType": "string",
          "name": "",
          "type": "string"
        }
      ],
      "name": "domains",
      "outputs": [
        {
          "internalType": "address",
          "name": "",
          "type": "address"
        }
      ],
      "stateMutability": "view",
      "type": "function"
    },
    {
      "inputs": [
        {
          "internalType": "string",
          "name": "",
          "type": "string"
        }
      ],
      "name": "emails",
      "outputs": [
        {
          "internalType": "string",
          "name": "",
          "type": "string"
        }
      ],
      "stateMutability": "view",
      "type": "function"
    },
    {
      "inputs": [
        {
          "internalType": "string",
          "name": "name",
          "type": "string"
        }
      ],
      "name": "getAddress",
      "outputs": [
        {
          "internalType": "address",
          "name": "",
          "type": "address"
        }
      ],
      "stateMutability": "view",
      "type": "function"
    },
    {
      "inputs": [
        {
          "internalType": "uint256",
          "name": "tokenId",
          "type": "uint256"
        }
      ],
      "name": "getApproved",
      "outputs": [
        {
          "internalType": "address",
          "name": "",
          "type": "address"
        }
      ],
      "stateMutability": "view",
      "type": "function"
    },
    {
      "inputs": [
        {
          "internalType": "string",
          "name": "name",
          "type": "string"
        }
      ],
      "name": "getEmail",
      "outputs": [
        {
          "internalType": "string",
          "name": "",
          "type": "string"
        }
      ],
      "stateMutability": "view",
      "type": "function"
    },
    {
      "inputs": [
        {
          "internalType": "string",
          "name": "name",
          "type": "string"
        }
      ],
      "name": "getRecord",
      "outputs": [
        {
          "internalType": "string",
          "name": "",
          "type": "string"
        }
      ],
      "stateMutability": "view",
      "type": "function"
    },
    {
      "inputs": [
        {
          "internalType": "address",
          "name": "owner",
          "type": "address"
        },
        {
          "internalType": "address",
          "name": "operator",
          "type": "address"
        }
      ],
      "name": "isApprovedForAll",
      "outputs": [
        {
          "internalType": "bool",
          "name": "",
          "type": "bool"
        }
      ],
      "stateMutability": "view",
      "type": "function"
    },
    {
      "inputs": [],
      "name": "name",
      "outputs": [
        {
          "internalType": "string",
          "name": "",
          "type": "string"
        }
      ],
      "stateMutability": "view",
      "type": "function"
    },
    {
      "inputs": [
        {
          "internalType": "uint256",
          "name": "tokenId",
          "type": "uint256"
        }
      ],
      "name": "ownerOf",
      "outputs": [
        {
          "internalType": "address",
          "name": "",
          "type": "address"
        }
      ],
      "stateMutability": "view",
      "type": "function"
    },
    {
      "inputs": [
        {
          "internalType": "string",
          "name": "name",
          "type": "string"
        }
      ],
      "name": "price",
      "outputs": [
        {
          "internalType": "uint256",
          "name": "",
          "type": "uint256"
        }
      ],
      "stateMutability": "pure",
      "type": "function"
    },
    {
      "inputs": [
        {
          "internalType": "string",
          "name": "",
          "type": "string"
        }
      ],
      "name": "records",
      "outputs": [
        {
          "internalType": "string",
          "name": "",
          "type": "string"
        }
      ],
      "stateMutability": "view",
      "type": "function"
    },
    {
      "inputs": [
        {
          "internalType": "string",
          "name": "name",
          "type": "string"
        }
      ],
      "name": "register",
      "outputs": [],
      "stateMutability": "payable",
      "type": "function"
    },
    {
      "inputs": [
        {
          "internalType": "address",
          "name": "from",
          "type": "address"
        },
        {
          "internalType": "address",
          "name": "to",
          "type": "address"
        },
        {
          "internalType": "uint256",
          "name": "tokenId",
          "type": "uint256"
        }
      ],
      "name": "safeTransferFrom",
      "outputs": [],
      "stateMutability": "nonpayable",
      "type": "function"
    },
    {
      "inputs": [
        {
          "internalType": "address",
          "name": "from",
          "type": "address"
        },
        {
          "internalType": "address",
          "name": "to",
          "type": "address"
        },
        {
          "internalType": "uint256",
          "name": "tokenId",
          "type": "uint256"
        },
        {
          "internalType": "bytes",
          "name": "_data",
          "type": "bytes"
        }
      ],
      "name": "safeTransferFrom",
      "outputs": [],
      "stateMutability": "nonpayable",
      "type": "function"
    },
    {
      "inputs": [
        {
          "internalType": "address",
          "name": "operator",
          "type": "address"
        },
        {
          "internalType": "bool",
          "name": "approved",
          "type": "bool"
        }
      ],
      "name": "setApprovalForAll",
      "outputs": [],
      "stateMutability": "nonpayable",
      "type": "function"
    },
    {
      "inputs": [
        {
          "internalType": "string",
          "name": "name",
          "type": "string"
        },
        {
          "internalType": "string",
          "name": "email",
          "type": "string"
        }
      ],
      "name": "setEmailAddress",
      "outputs": [],
      "stateMutability": "nonpayable",
      "type": "function"
    },
    {
      "inputs": [
        {
          "internalType": "string",
          "name": "name",
          "type": "string"
        },
        {
          "internalType": "string",
          "name": "record",
          "type": "string"
        }
      ],
      "name": "setRecord",
      "outputs": [],
      "stateMutability": "nonpayable",
      "type": "function"
    },
    {
      "inputs": [
        {
          "internalType": "bytes4",
          "name": "interfaceId",
          "type": "bytes4"
        }
      ],
      "name": "supportsInterface",
      "outputs": [
        {
          "internalType": "bool",
          "name": "",
          "type": "bool"
        }
      ],
      "stateMutability": "view",
      "type": "function"
    },
    {
      "inputs": [],
      "name": "symbol",
      "outputs": [
        {
          "internalType": "string",
          "name": "",
          "type": "string"
        }
      ],
      "stateMutability": "view",
      "type": "function"
    },
    {
      "inputs": [],
      "name": "tld",
      "outputs": [
        {
          "internalType": "string",
          "name": "",
          "type": "string"
        }
      ],
      "stateMutability": "view",
      "type": "function"
    },
    {
      "inputs": [
        {
          "internalType": "uint256",
          "name": "tokenId",
          "type": "uint256"
        }
      ],
      "name": "tokenURI",
      "outputs": [
        {
          "internalType": "string",
          "name": "",
          "type": "string"
        }
      ],
      "stateMutability": "view",
      "type": "function"
    },
    {
      "inputs": [
        {
          "internalType": "address",
          "name": "from",
          "type": "address"
        },
        {
          "internalType": "address",
          "name": "to",
          "type": "address"
        },
        {
          "internalType": "uint256",
          "name": "tokenId",
          "type": "uint256"
        }
      ],
      "name": "transferFrom",
      "outputs": [],
      "stateMutability": "nonpayable",
      "type": "function"
    }
  ],
  "bytecode": "0x6080604052604051806108a0016040528061086b815260200162004c0c61086b9139600890805190602001906200003892919062000287565b506040518060400160405280600d81526020017f3c2f746578743e3c2f7376673e00000000000000000000000000000000000000815250600990805190602001906200008692919062000287565b5060405162005477380380620054778339818101604052810190620000ac9190620004d4565b6040518060400160405280601581526020017f436872756e646c65204e616d65205365727669636500000000000000000000008152506040518060400160405280600381526020017f434e53000000000000000000000000000000000000000000000000000000000081525081600090805190602001906200013092919062000287565b5080600190805190602001906200014992919062000287565b50505080600a90805190602001906200016492919062000287565b50620001b16040518060400160405280601881526020017f2573206e616d652073657276696365206465706c6f796564000000000000000081525082620001b860201b620017e41760201c565b5062000622565b6200025a8282604051602401620001d192919062000582565b6040516020818303038152906040527f4b5c4277000000000000000000000000000000000000000000000000000000007bffffffffffffffffffffffffffffffffffffffffffffffffffffffff19166020820180517bffffffffffffffffffffffffffffffffffffffffffffffffffffffff83818316178352505050506200025e60201b60201c565b5050565b60008151905060006a636f6e736f6c652e6c6f679050602083016000808483855afa5050505050565b8280546200029590620005ec565b90600052602060002090601f016020900481019282620002b9576000855562000305565b82601f10620002d457805160ff191683800117855562000305565b8280016001018555821562000305579182015b8281111562000304578251825591602001919060010190620002e7565b5b50905062000314919062000318565b5090565b5b808211156200033357600081600090555060010162000319565b5090565b6000604051905090565b600080fd5b600080fd5b600080fd5b600080fd5b6000601f19601f8301169050919050565b7f4e487b7100000000000000000000000000000000000000000000000000000000600052604160045260246000fd5b620003a08262000355565b810181811067ffffffffffffffff82111715620003c257620003c162000366565b5b80604052505050565b6000620003d762000337565b9050620003e5828262000395565b919050565b600067ffffffffffffffff82111562000408576200040762000366565b5b620004138262000355565b9050602081019050919050565b60005b838110156200044057808201518184015260208101905062000423565b8381111562000450576000848401525b50505050565b60006200046d6200046784620003ea565b620003cb565b9050828152602081018484840111156200048c576200048b62000350565b5b6200049984828562000420565b509392505050565b600082601f830112620004b957620004b86200034b565b5b8151620004cb84826020860162000456565b91505092915050565b600060208284031215620004ed57620004ec62000341565b5b600082015167ffffffffffffffff8111156200050e576200050d62000346565b5b6200051c84828501620004a1565b91505092915050565b600081519050919050565b600082825260208201905092915050565b60006200054e8262000525565b6200055a818562000530565b93506200056c81856020860162000420565b620005778162000355565b840191505092915050565b600060408201905081810360008301526200059e818562000541565b90508181036020830152620005b4818462000541565b90509392505050565b7f4e487b7100000000000000000000000000000000000000000000000000000000600052602260045260246000fd5b600060028204905060018216806200060557607f821691505b602082108114156200061c576200061b620005bd565b5b50919050565b6145da80620006326000396000f3fe60806040526004361061014b5760003560e01c806382f4ea8b116100b6578063c87b56dd1161006f578063c87b56dd146104d8578063d5b0d30d14610515578063e985e9c514610552578063f2c298be1461058f578063f77e8bd7146105ab578063fe2c6198146105e85761014b565b806382f4ea8b146103cc57806395d89b41146103f5578063a22cb46514610420578063b88d4fde14610449578063bf40fac114610472578063c1880a98146104af5761014b565b8063264492351161010857806326449235146102845780632d551432146102c157806342842e0e146102ec578063541e771d146103155780636352211e1461035257806370a082311461038f5761014b565b806301ffc9a71461015057806306fdde031461018d578063081812fc146101b8578063095ea7b3146101f557806311dd88451461021e57806323b872dd1461025b575b600080fd5b34801561015c57600080fd5b5061017760048036038101906101729190612c2a565b610625565b6040516101849190612c72565b60405180910390f35b34801561019957600080fd5b506101a2610707565b6040516101af9190612d26565b60405180910390f35b3480156101c457600080fd5b506101df60048036038101906101da9190612d7e565b610799565b6040516101ec9190612dec565b60405180910390f35b34801561020157600080fd5b5061021c60048036038101906102179190612e33565b61081e565b005b34801561022a57600080fd5b5061024560048036038101906102409190612ed8565b610936565b6040516102529190612d26565b60405180910390f35b34801561026757600080fd5b50610282600480360381019061027d9190612f25565b6109e9565b005b34801561029057600080fd5b506102ab60048036038101906102a691906130a8565b610a49565b6040516102b89190612dec565b60405180910390f35b3480156102cd57600080fd5b506102d6610a92565b6040516102e39190612d26565b60405180910390f35b3480156102f857600080fd5b50610313600480360381019061030e9190612f25565b610b20565b005b34801561032157600080fd5b5061033c600480360381019061033791906130a8565b610b40565b6040516103499190612d26565b60405180910390f35b34801561035e57600080fd5b5061037960048036038101906103749190612d7e565b610bf6565b6040516103869190612dec565b60405180910390f35b34801561039b57600080fd5b506103b660048036038101906103b191906130f1565b610ca8565b6040516103c3919061312d565b60405180910390f35b3480156103d857600080fd5b506103f360048036038101906103ee9190613148565b610d60565b005b34801561040157600080fd5b5061040a610e0e565b6040516104179190612d26565b60405180910390f35b34801561042c57600080fd5b50610447600480360381019061044291906131f5565b610ea0565b005b34801561045557600080fd5b50610470600480360381019061046b91906132d6565b610eb6565b005b34801561047e57600080fd5b5061049960048036038101906104949190612ed8565b610f18565b6040516104a69190612dec565b60405180910390f35b3480156104bb57600080fd5b506104d660048036038101906104d19190613148565b610f63565b005b3480156104e457600080fd5b506104ff60048036038101906104fa9190612d7e565b611011565b60405161050c9190612d26565b60405180910390f35b34801561052157600080fd5b5061053c600480360381019061053791906130a8565b611163565b6040516105499190612d26565b60405180910390f35b34801561055e57600080fd5b5061057960048036038101906105749190613359565b611219565b6040516105869190612c72565b60405180910390f35b6105a960048036038101906105a49190612ed8565b6112ad565b005b3480156105b757600080fd5b506105d260048036038101906105cd9190612ed8565b61168e565b6040516105df9190612d26565b60405180910390f35b3480156105f457600080fd5b5061060f600480360381019061060a9190612ed8565b611741565b60405161061c919061312d565b60405180910390f35b60007f80ac58cd000000000000000000000000000000000000000000000000000000007bffffffffffffffffffffffffffffffffffffffffffffffffffffffff1916827bffffffffffffffffffffffffffffffffffffffffffffffffffffffff191614806106f057507f5b5e139f000000000000000000000000000000000000000000000000000000007bffffffffffffffffffffffffffffffffffffffffffffffffffffffff1916827bffffffffffffffffffffffffffffffffffffffffffffffffffffffff1916145b8061070057506106ff82611880565b5b9050919050565b606060008054610716906133c8565b80601f0160208091040260200160405190810160405280929190818152602001828054610742906133c8565b801561078f5780601f106107645761010080835404028352916020019161078f565b820191906000526020600020905b81548152906001019060200180831161077257829003601f168201915b5050505050905090565b60006107a4826118ea565b6107e3576040517f08c379a00000000000000000000000000000000000000000000000000000000081526004016107da9061346c565b60405180910390fd5b6004600083815260200190815260200160002060009054906101000a900473ffffffffffffffffffffffffffffffffffffffff169050919050565b600061082982610bf6565b90508073ffffffffffffffffffffffffffffffffffffffff168373ffffffffffffffffffffffffffffffffffffffff16141561089a576040517f08c379a0000000000000000000000000000000000000000000000000000000008152600401610891906134fe565b60405180910390fd5b8073ffffffffffffffffffffffffffffffffffffffff166108b9611956565b73ffffffffffffffffffffffffffffffffffffffff1614806108e857506108e7816108e2611956565b611219565b5b610927576040517f08c379a000000000000000000000000000000000000000000000000000000000815260040161091e90613590565b60405180910390fd5b610931838361195e565b505050565b6060600c838360405161094a9291906135e0565b90815260200160405180910390208054610963906133c8565b80601f016020809104026020016040519081016040528092919081815260200182805461098f906133c8565b80156109dc5780601f106109b1576101008083540402835291602001916109dc565b820191906000526020600020905b8154815290600101906020018083116109bf57829003601f168201915b5050505050905092915050565b6109fa6109f4611956565b82611a17565b610a39576040517f08c379a0000000000000000000000000000000000000000000000000000000008152600401610a309061366b565b60405180910390fd5b610a44838383611af5565b505050565b600b818051602081018201805184825260208301602085012081835280955050505050506000915054906101000a900473ffffffffffffffffffffffffffffffffffffffff1681565b600a8054610a9f906133c8565b80601f0160208091040260200160405190810160405280929190818152602001828054610acb906133c8565b8015610b185780601f10610aed57610100808354040283529160200191610b18565b820191906000526020600020905b815481529060010190602001808311610afb57829003601f168201915b505050505081565b610b3b83838360405180602001604052806000815250610eb6565b505050565b600c818051602081018201805184825260208301602085012081835280955050505050506000915090508054610b75906133c8565b80601f0160208091040260200160405190810160405280929190818152602001828054610ba1906133c8565b8015610bee5780601f10610bc357610100808354040283529160200191610bee565b820191906000526020600020905b815481529060010190602001808311610bd157829003601f168201915b505050505081565b6000806002600084815260200190815260200160002060009054906101000a900473ffffffffffffffffffffffffffffffffffffffff169050600073ffffffffffffffffffffffffffffffffffffffff168173ffffffffffffffffffffffffffffffffffffffff161415610c9f576040517f08c379a0000000000000000000000000000000000000000000000000000000008152600401610c96906136fd565b60405180910390fd5b80915050919050565b60008073ffffffffffffffffffffffffffffffffffffffff168273ffffffffffffffffffffffffffffffffffffffff161415610d19576040517f08c379a0000000000000000000000000000000000000000000000000000000008152600401610d109061378f565b60405180910390fd5b600360008373ffffffffffffffffffffffffffffffffffffffff1673ffffffffffffffffffffffffffffffffffffffff168152602001908152602001600020549050919050565b3373ffffffffffffffffffffffffffffffffffffffff16600b8585604051610d899291906135e0565b908152602001604051809103902060009054906101000a900473ffffffffffffffffffffffffffffffffffffffff1673ffffffffffffffffffffffffffffffffffffffff1614610dd857600080fd5b8181600d8686604051610dec9291906135e0565b90815260200160405180910390209190610e07929190612a95565b5050505050565b606060018054610e1d906133c8565b80601f0160208091040260200160405190810160405280929190818152602001828054610e49906133c8565b8015610e965780601f10610e6b57610100808354040283529160200191610e96565b820191906000526020600020905b815481529060010190602001808311610e7957829003601f168201915b5050505050905090565b610eb2610eab611956565b8383611d5c565b5050565b610ec7610ec1611956565b83611a17565b610f06576040517f08c379a0000000000000000000000000000000000000000000000000000000008152600401610efd9061366b565b60405180910390fd5b610f1284848484611ec9565b50505050565b6000600b8383604051610f2c9291906135e0565b908152602001604051809103902060009054906101000a900473ffffffffffffffffffffffffffffffffffffffff16905092915050565b3373ffffffffffffffffffffffffffffffffffffffff16600b8585604051610f8c9291906135e0565b908152602001604051809103902060009054906101000a900473ffffffffffffffffffffffffffffffffffffffff1673ffffffffffffffffffffffffffffffffffffffff1614610fdb57600080fd5b8181600c8686604051610fef9291906135e0565b9081526020016040518091039020919061100a929190612a95565b5050505050565b606061101c826118ea565b61105b576040517f08c379a000000000000000000000000000000000000000000000000000000000815260040161105290613821565b60405180910390fd5b600060066000848152602001908152602001600020805461107b906133c8565b80601f01602080910402602001604051908101604052809291908181526020018280546110a7906133c8565b80156110f45780601f106110c9576101008083540402835291602001916110f4565b820191906000526020600020905b8154815290600101906020018083116110d757829003601f168201915b505050505090506000611105611f25565b905060008151141561111b57819250505061115e565b600082511115611150578082604051602001611138929190613872565b6040516020818303038152906040529250505061115e565b61115984611f3c565b925050505b919050565b600d818051602081018201805184825260208301602085012081835280955050505050506000915090508054611198906133c8565b80601f01602080910402602001604051908101604052809291908181526020018280546111c4906133c8565b80156112115780601f106111e657610100808354040283529160200191611211565b820191906000526020600020905b8154815290600101906020018083116111f457829003601f168201915b505050505081565b6000600560008473ffffffffffffffffffffffffffffffffffffffff1673ffffffffffffffffffffffffffffffffffffffff16815260200190815260200160002060008373ffffffffffffffffffffffffffffffffffffffff1673ffffffffffffffffffffffffffffffffffffffff16815260200190815260200160002060009054906101000a900460ff16905092915050565b600073ffffffffffffffffffffffffffffffffffffffff16600b83836040516112d79291906135e0565b908152602001604051809103902060009054906101000a900473ffffffffffffffffffffffffffffffffffffffff1673ffffffffffffffffffffffffffffffffffffffff161461132657600080fd5b60006113328383611741565b905080341015611377576040517f08c379a000000000000000000000000000000000000000000000000000000000815260040161136e906138e2565b60405180910390fd5b60008383600a60405160200161138f939291906139e2565b6040516020818303038152906040529050600060088260096040516020016113b993929190613a13565b604051602081830303815290604052905060006113d66007611fe3565b9050600061142787878080601f016020809104026020016040519081016040528093929190818152602001838380828437600081840152601f19601f82011690508083019250505050505050611ff1565b90506000611434826121a6565b90506115286040518060600160405280603181526020016144cc6031913989898080601f016020809104026020016040519081016040528093929190818152602001838380828437600081840152601f19601f82011690508083019250505050505050600a80546114a4906133c8565b80601f01602080910402602001604051908101604052809291908181526020018280546114d0906133c8565b801561151d5780601f106114f25761010080835404028352916020019161151d565b820191906000526020600020905b81548152906001019060200180831161150057829003601f168201915b505050505086612307565b600061155e86611537876123a9565b8460405160200161154a93929190613bc0565b6040516020818303038152906040526123a9565b90506000816040516020016115739190613c69565b60405160208183030381529060405290506115a56040518060600160405280603481526020016144fd60349139612541565b6115e46040518060400160405280600f81526020017f46696e616c20746f6b656e5552490a0000000000000000000000000000000000815250826117e4565b61160560405180606001604052806034815260200161457160349139612541565b61160f33866125da565b61161985826125f8565b33600b8b8b60405161162c9291906135e0565b908152602001604051809103902060006101000a81548173ffffffffffffffffffffffffffffffffffffffff021916908373ffffffffffffffffffffffffffffffffffffffff160217905550611682600761266c565b50505050505050505050565b6060600d83836040516116a29291906135e0565b908152602001604051809103902080546116bb906133c8565b80601f01602080910402602001604051908101604052809291908181526020018280546116e7906133c8565b80156117345780601f1061170957610100808354040283529160200191611734565b820191906000526020600020905b81548152906001019060200180831161171757829003601f168201915b5050505050905092915050565b60008061179184848080601f016020809104026020016040519081016040528093929190818152602001838380828437600081840152601f19601f82011690508083019250505050505050611ff1565b9050600081116117a057600080fd5b60038114156117b95766b1a2bc2ec500009150506117de565b60048114156117d257666a94d74f4300009150506117de565b662386f26fc100009150505b92915050565b61187c82826040516024016117fa929190613c8b565b6040516020818303038152906040527f4b5c4277000000000000000000000000000000000000000000000000000000007bffffffffffffffffffffffffffffffffffffffffffffffffffffffff19166020820180517bffffffffffffffffffffffffffffffffffffffffffffffffffffffff8381831617835250505050612682565b5050565b60007f01ffc9a7000000000000000000000000000000000000000000000000000000007bffffffffffffffffffffffffffffffffffffffffffffffffffffffff1916827bffffffffffffffffffffffffffffffffffffffffffffffffffffffff1916149050919050565b60008073ffffffffffffffffffffffffffffffffffffffff166002600084815260200190815260200160002060009054906101000a900473ffffffffffffffffffffffffffffffffffffffff1673ffffffffffffffffffffffffffffffffffffffff1614159050919050565b600033905090565b816004600083815260200190815260200160002060006101000a81548173ffffffffffffffffffffffffffffffffffffffff021916908373ffffffffffffffffffffffffffffffffffffffff160217905550808273ffffffffffffffffffffffffffffffffffffffff166119d183610bf6565b73ffffffffffffffffffffffffffffffffffffffff167f8c5be1e5ebec7d5bd14f71427d1e84f3dd0314c0f7b2291e5b200ac8c7c3b92560405160405180910390a45050565b6000611a22826118ea565b611a61576040517f08c379a0000000000000000000000000000000000000000000000000000000008152600401611a5890613d34565b60405180910390fd5b6000611a6c83610bf6565b90508073ffffffffffffffffffffffffffffffffffffffff168473ffffffffffffffffffffffffffffffffffffffff161480611aae5750611aad8185611219565b5b80611aec57508373ffffffffffffffffffffffffffffffffffffffff16611ad484610799565b73ffffffffffffffffffffffffffffffffffffffff16145b91505092915050565b8273ffffffffffffffffffffffffffffffffffffffff16611b1582610bf6565b73ffffffffffffffffffffffffffffffffffffffff1614611b6b576040517f08c379a0000000000000000000000000000000000000000000000000000000008152600401611b6290613dc6565b60405180910390fd5b600073ffffffffffffffffffffffffffffffffffffffff168273ffffffffffffffffffffffffffffffffffffffff161415611bdb576040517f08c379a0000000000000000000000000000000000000000000000000000000008152600401611bd290613e58565b60405180910390fd5b611be68383836126ab565b611bf160008261195e565b6001600360008573ffffffffffffffffffffffffffffffffffffffff1673ffffffffffffffffffffffffffffffffffffffff1681526020019081526020016000206000828254611c419190613ea7565b925050819055506001600360008473ffffffffffffffffffffffffffffffffffffffff1673ffffffffffffffffffffffffffffffffffffffff1681526020019081526020016000206000828254611c989190613edb565b92505081905550816002600083815260200190815260200160002060006101000a81548173ffffffffffffffffffffffffffffffffffffffff021916908373ffffffffffffffffffffffffffffffffffffffff160217905550808273ffffffffffffffffffffffffffffffffffffffff168473ffffffffffffffffffffffffffffffffffffffff167fddf252ad1be2c89b69c2b068fc378daa952ba7f163c4a11628f55a4df523b3ef60405160405180910390a4611d578383836126b0565b505050565b8173ffffffffffffffffffffffffffffffffffffffff168373ffffffffffffffffffffffffffffffffffffffff161415611dcb576040517f08c379a0000000000000000000000000000000000000000000000000000000008152600401611dc290613f7d565b60405180910390fd5b80600560008573ffffffffffffffffffffffffffffffffffffffff1673ffffffffffffffffffffffffffffffffffffffff16815260200190815260200160002060008473ffffffffffffffffffffffffffffffffffffffff1673ffffffffffffffffffffffffffffffffffffffff16815260200190815260200160002060006101000a81548160ff0219169083151502179055508173ffffffffffffffffffffffffffffffffffffffff168373ffffffffffffffffffffffffffffffffffffffff167f17307eab39ab6107e8899845ad3d59bd9653f200f220920489ca2b5937696c3183604051611ebc9190612c72565b60405180910390a3505050565b611ed4848484611af5565b611ee0848484846126b5565b611f1f576040517f08c379a0000000000000000000000000000000000000000000000000000000008152600401611f169061400f565b60405180910390fd5b50505050565b606060405180602001604052806000815250905090565b6060611f47826118ea565b611f86576040517f08c379a0000000000000000000000000000000000000000000000000000000008152600401611f7d906140a1565b60405180910390fd5b6000611f90611f25565b90506000815111611fb05760405180602001604052806000815250611fdb565b80611fba846121a6565b604051602001611fcb929190613872565b6040516020818303038152906040525b915050919050565b600081600001549050919050565b60008060008084519050600092505b8082101561219b57600085838151811061201d5761201c6140c1565b5b602001015160f81c60f81b9050608060f81b817effffffffffffffffffffffffffffffffffffffffffffffffffffffffffffff1916101561206c576001836120659190613edb565b9250612187565b60e060f81b817effffffffffffffffffffffffffffffffffffffffffffffffffffffffffffff191610156120ae576002836120a79190613edb565b9250612186565b60f060f81b817effffffffffffffffffffffffffffffffffffffffffffffffffffffffffffff191610156120f0576003836120e99190613edb565b9250612185565b60f8801b817effffffffffffffffffffffffffffffffffffffffffffffffffffffffffffff191610156121315760048361212a9190613edb565b9250612184565b60fc60f81b817effffffffffffffffffffffffffffffffffffffffffffffffffffffffffffff191610156121735760058361216c9190613edb565b9250612183565b6006836121809190613edb565b92505b5b5b5b5b508280612193906140f0565b935050612000565b829350505050919050565b606060008214156121ee576040518060400160405280600181526020017f30000000000000000000000000000000000000000000000000000000000000008152509050612302565b600082905060005b60008214612220578080612209906140f0565b915050600a826122199190614168565b91506121f6565b60008167ffffffffffffffff81111561223c5761223b612f7d565b5b6040519080825280601f01601f19166020018201604052801561226e5781602001600182028036833780820191505090505b5090505b600085146122fb576001826122879190613ea7565b9150600a856122969190614199565b60306122a29190613edb565b60f81b8183815181106122b8576122b76140c1565b5b60200101907effffffffffffffffffffffffffffffffffffffffffffffffffffffffffffff1916908160001a905350600a856122f49190614168565b9450612272565b8093505050505b919050565b6123a38484848460405160240161232194939291906141ca565b6040516020818303038152906040527f9fd009f5000000000000000000000000000000000000000000000000000000007bffffffffffffffffffffffffffffffffffffffffffffffffffffffff19166020820180517bffffffffffffffffffffffffffffffffffffffffffffffffffffffff8381831617835250505050612682565b50505050565b606060008251905060008114156123d2576040518060200160405280600081525091505061253c565b600060036002836123e39190613edb565b6123ed9190614168565b60046123f99190614224565b9050600060208261240a9190613edb565b67ffffffffffffffff81111561242357612422612f7d565b5b6040519080825280601f01601f1916602001820160405280156124555781602001600182028036833780820191505090505b5090506000604051806060016040528060408152602001614531604091399050600181016020830160005b868110156124f95760038101905062ffffff818a015116603f8160121c168401518060081b905060ff603f83600c1c1686015116810190508060081b905060ff603f8360061c1686015116810190508060081b905060ff603f831686015116810190508060e01b90508084526004840193505050612480565b50600386066001811461251357600281146125235761252e565b613d3d60f01b600283035261252e565b603d60f81b60018303525b508484525050819450505050505b919050565b6125d7816040516024016125559190612d26565b6040516020818303038152906040527f41304fac000000000000000000000000000000000000000000000000000000007bffffffffffffffffffffffffffffffffffffffffffffffffffffffff19166020820180517bffffffffffffffffffffffffffffffffffffffffffffffffffffffff8381831617835250505050612682565b50565b6125f482826040518060200160405280600081525061283d565b5050565b612601826118ea565b612640576040517f08c379a0000000000000000000000000000000000000000000000000000000008152600401612637906142f0565b60405180910390fd5b80600660008481526020019081526020016000209080519060200190612667929190612b1b565b505050565b6001816000016000828254019250508190555050565b60008151905060006a636f6e736f6c652e6c6f679050602083016000808483855afa5050505050565b505050565b505050565b60006126d68473ffffffffffffffffffffffffffffffffffffffff16612898565b15612830578373ffffffffffffffffffffffffffffffffffffffff1663150b7a026126ff611956565b8786866040518563ffffffff1660e01b81526004016127219493929190614365565b6020604051808303816000875af192505050801561275d57506040513d601f19601f8201168201806040525081019061275a91906143c6565b60015b6127e0573d806000811461278d576040519150601f19603f3d011682016040523d82523d6000602084013e612792565b606091505b506000815114156127d8576040517f08c379a00000000000000000000000000000000000000000000000000000000081526004016127cf9061400f565b60405180910390fd5b805181602001fd5b63150b7a0260e01b7bffffffffffffffffffffffffffffffffffffffffffffffffffffffff1916817bffffffffffffffffffffffffffffffffffffffffffffffffffffffff191614915050612835565b600190505b949350505050565b61284783836128bb565b61285460008484846126b5565b612893576040517f08c379a000000000000000000000000000000000000000000000000000000000815260040161288a9061400f565b60405180910390fd5b505050565b6000808273ffffffffffffffffffffffffffffffffffffffff163b119050919050565b600073ffffffffffffffffffffffffffffffffffffffff168273ffffffffffffffffffffffffffffffffffffffff16141561292b576040517f08c379a00000000000000000000000000000000000000000000000000000000081526004016129229061443f565b60405180910390fd5b612934816118ea565b15612974576040517f08c379a000000000000000000000000000000000000000000000000000000000815260040161296b906144ab565b60405180910390fd5b612980600083836126ab565b6001600360008473ffffffffffffffffffffffffffffffffffffffff1673ffffffffffffffffffffffffffffffffffffffff16815260200190815260200160002060008282546129d09190613edb565b92505081905550816002600083815260200190815260200160002060006101000a81548173ffffffffffffffffffffffffffffffffffffffff021916908373ffffffffffffffffffffffffffffffffffffffff160217905550808273ffffffffffffffffffffffffffffffffffffffff16600073ffffffffffffffffffffffffffffffffffffffff167fddf252ad1be2c89b69c2b068fc378daa952ba7f163c4a11628f55a4df523b3ef60405160405180910390a4612a91600083836126b0565b5050565b828054612aa1906133c8565b90600052602060002090601f016020900481019282612ac35760008555612b0a565b82601f10612adc57803560ff1916838001178555612b0a565b82800160010185558215612b0a579182015b82811115612b09578235825591602001919060010190612aee565b5b509050612b179190612ba1565b5090565b828054612b27906133c8565b90600052602060002090601f016020900481019282612b495760008555612b90565b82601f10612b6257805160ff1916838001178555612b90565b82800160010185558215612b90579182015b82811115612b8f578251825591602001919060010190612b74565b5b509050612b9d9190612ba1565b5090565b5b80821115612bba576000816000905550600101612ba2565b5090565b6000604051905090565b600080fd5b600080fd5b60007fffffffff0000000000000000000000000000000000000000000000000000000082169050919050565b612c0781612bd2565b8114612c1257600080fd5b50565b600081359050612c2481612bfe565b92915050565b600060208284031215612c4057612c3f612bc8565b5b6000612c4e84828501612c15565b91505092915050565b60008115159050919050565b612c6c81612c57565b82525050565b6000602082019050612c876000830184612c63565b92915050565b600081519050919050565b600082825260208201905092915050565b60005b83811015612cc7578082015181840152602081019050612cac565b83811115612cd6576000848401525b50505050565b6000601f19601f8301169050919050565b6000612cf882612c8d565b612d028185612c98565b9350612d12818560208601612ca9565b612d1b81612cdc565b840191505092915050565b60006020820190508181036000830152612d408184612ced565b905092915050565b6000819050919050565b612d5b81612d48565b8114612d6657600080fd5b50565b600081359050612d7881612d52565b92915050565b600060208284031215612d9457612d93612bc8565b5b6000612da284828501612d69565b91505092915050565b600073ffffffffffffffffffffffffffffffffffffffff82169050919050565b6000612dd682612dab565b9050919050565b612de681612dcb565b82525050565b6000602082019050612e016000830184612ddd565b92915050565b612e1081612dcb565b8114612e1b57600080fd5b50565b600081359050612e2d81612e07565b92915050565b60008060408385031215612e4a57612e49612bc8565b5b6000612e5885828601612e1e565b9250506020612e6985828601612d69565b9150509250929050565b600080fd5b600080fd5b600080fd5b60008083601f840112612e9857612e97612e73565b5b8235905067ffffffffffffffff811115612eb557612eb4612e78565b5b602083019150836001820283011115612ed157612ed0612e7d565b5b9250929050565b60008060208385031215612eef57612eee612bc8565b5b600083013567ffffffffffffffff811115612f0d57612f0c612bcd565b5b612f1985828601612e82565b92509250509250929050565b600080600060608486031215612f3e57612f3d612bc8565b5b6000612f4c86828701612e1e565b9350506020612f5d86828701612e1e565b9250506040612f6e86828701612d69565b9150509250925092565b600080fd5b7f4e487b7100000000000000000000000000000000000000000000000000000000600052604160045260246000fd5b612fb582612cdc565b810181811067ffffffffffffffff82111715612fd457612fd3612f7d565b5b80604052505050565b6000612fe7612bbe565b9050612ff38282612fac565b919050565b600067ffffffffffffffff82111561301357613012612f7d565b5b61301c82612cdc565b9050602081019050919050565b82818337600083830152505050565b600061304b61304684612ff8565b612fdd565b90508281526020810184848401111561306757613066612f78565b5b613072848285613029565b509392505050565b600082601f83011261308f5761308e612e73565b5b813561309f848260208601613038565b91505092915050565b6000602082840312156130be576130bd612bc8565b5b600082013567ffffffffffffffff8111156130dc576130db612bcd565b5b6130e88482850161307a565b91505092915050565b60006020828403121561310757613106612bc8565b5b600061311584828501612e1e565b91505092915050565b61312781612d48565b82525050565b6000602082019050613142600083018461311e565b92915050565b6000806000806040858703121561316257613161612bc8565b5b600085013567ffffffffffffffff8111156131805761317f612bcd565b5b61318c87828801612e82565b9450945050602085013567ffffffffffffffff8111156131af576131ae612bcd565b5b6131bb87828801612e82565b925092505092959194509250565b6131d281612c57565b81146131dd57600080fd5b50565b6000813590506131ef816131c9565b92915050565b6000806040838503121561320c5761320b612bc8565b5b600061321a85828601612e1e565b925050602061322b858286016131e0565b9150509250929050565b600067ffffffffffffffff8211156132505761324f612f7d565b5b61325982612cdc565b9050602081019050919050565b600061327961327484613235565b612fdd565b90508281526020810184848401111561329557613294612f78565b5b6132a0848285613029565b509392505050565b600082601f8301126132bd576132bc612e73565b5b81356132cd848260208601613266565b91505092915050565b600080600080608085870312156132f0576132ef612bc8565b5b60006132fe87828801612e1e565b945050602061330f87828801612e1e565b935050604061332087828801612d69565b925050606085013567ffffffffffffffff81111561334157613340612bcd565b5b61334d878288016132a8565b91505092959194509250565b600080604083850312156133705761336f612bc8565b5b600061337e85828601612e1e565b925050602061338f85828601612e1e565b9150509250929050565b7f4e487b7100000000000000000000000000000000000000000000000000000000600052602260045260246000fd5b600060028204905060018216806133e057607f821691505b602082108114156133f4576133f3613399565b5b50919050565b7f4552433732313a20617070726f76656420717565727920666f72206e6f6e657860008201527f697374656e7420746f6b656e0000000000000000000000000000000000000000602082015250565b6000613456602c83612c98565b9150613461826133fa565b604082019050919050565b6000602082019050818103600083015261348581613449565b9050919050565b7f4552433732313a20617070726f76616c20746f2063757272656e74206f776e6560008201527f7200000000000000000000000000000000000000000000000000000000000000602082015250565b60006134e8602183612c98565b91506134f38261348c565b604082019050919050565b60006020820190508181036000830152613517816134db565b9050919050565b7f4552433732313a20617070726f76652063616c6c6572206973206e6f74206f7760008201527f6e6572206e6f7220617070726f76656420666f7220616c6c0000000000000000602082015250565b600061357a603883612c98565b91506135858261351e565b604082019050919050565b600060208201905081810360008301526135a98161356d565b9050919050565b600081905092915050565b60006135c783856135b0565b93506135d4838584613029565b82840190509392505050565b60006135ed8284866135bb565b91508190509392505050565b7f4552433732313a207472616e736665722063616c6c6572206973206e6f74206f60008201527f776e6572206e6f7220617070726f766564000000000000000000000000000000602082015250565b6000613655603183612c98565b9150613660826135f9565b604082019050919050565b6000602082019050818103600083015261368481613648565b9050919050565b7f4552433732313a206f776e657220717565727920666f72206e6f6e657869737460008201527f656e7420746f6b656e0000000000000000000000000000000000000000000000602082015250565b60006136e7602983612c98565b91506136f28261368b565b604082019050919050565b60006020820190508181036000830152613716816136da565b9050919050565b7f4552433732313a2062616c616e636520717565727920666f7220746865207a6560008201527f726f206164647265737300000000000000000000000000000000000000000000602082015250565b6000613779602a83612c98565b91506137848261371d565b604082019050919050565b600060208201905081810360008301526137a88161376c565b9050919050565b7f45524337323155524953746f726167653a2055524920717565727920666f722060008201527f6e6f6e6578697374656e7420746f6b656e000000000000000000000000000000602082015250565b600061380b603183612c98565b9150613816826137af565b604082019050919050565b6000602082019050818103600083015261383a816137fe565b9050919050565b600061384c82612c8d565b61385681856135b0565b9350613866818560208601612ca9565b80840191505092915050565b600061387e8285613841565b915061388a8284613841565b91508190509392505050565b7f4e6f7420656e6f756768204d6174696320706169640000000000000000000000600082015250565b60006138cc601583612c98565b91506138d782613896565b602082019050919050565b600060208201905081810360008301526138fb816138bf565b9050919050565b7f2e00000000000000000000000000000000000000000000000000000000000000600082015250565b60006139386001836135b0565b915061394382613902565b600182019050919050565b60008190508160005260206000209050919050565b60008154613970816133c8565b61397a81866135b0565b9450600182166000811461399557600181146139a6576139d9565b60ff198316865281860193506139d9565b6139af8561394e565b60005b838110156139d1578154818901526001820191506020810190506139b2565b838801955050505b50505092915050565b60006139ef8285876135bb565b91506139fa8261392b565b9150613a068284613963565b9150819050949350505050565b6000613a1f8286613963565b9150613a2b8285613841565b9150613a378284613963565b9150819050949350505050565b7f7b226e616d65223a202200000000000000000000000000000000000000000000600082015250565b6000613a7a600a836135b0565b9150613a8582613a44565b600a82019050919050565b7f222c20226465736372697074696f6e223a20224120646f6d61696e206f6e207460008201527f686520436872756e646c65206e616d652073657276696365222c2022696d616760208201527f65223a2022646174613a696d6167652f7376672b786d6c3b6261736536342c00604082015250565b6000613b12605f836135b0565b9150613b1d82613a90565b605f82019050919050565b7f222c226c656e677468223a220000000000000000000000000000000000000000600082015250565b6000613b5e600c836135b0565b9150613b6982613b28565b600c82019050919050565b7f227d000000000000000000000000000000000000000000000000000000000000600082015250565b6000613baa6002836135b0565b9150613bb582613b74565b600282019050919050565b6000613bcb82613a6d565b9150613bd78286613841565b9150613be282613b05565b9150613bee8285613841565b9150613bf982613b51565b9150613c058284613841565b9150613c1082613b9d565b9150819050949350505050565b7f646174613a6170706c69636174696f6e2f6a736f6e3b6261736536342c000000600082015250565b6000613c53601d836135b0565b9150613c5e82613c1d565b601d82019050919050565b6000613c7482613c46565b9150613c808284613841565b915081905092915050565b60006040820190508181036000830152613ca58185612ced565b90508181036020830152613cb98184612ced565b90509392505050565b7f4552433732313a206f70657261746f7220717565727920666f72206e6f6e657860008201527f697374656e7420746f6b656e0000000000000000000000000000000000000000602082015250565b6000613d1e602c83612c98565b9150613d2982613cc2565b604082019050919050565b60006020820190508181036000830152613d4d81613d11565b9050919050565b7f4552433732313a207472616e736665722066726f6d20696e636f72726563742060008201527f6f776e6572000000000000000000000000000000000000000000000000000000602082015250565b6000613db0602583612c98565b9150613dbb82613d54565b604082019050919050565b60006020820190508181036000830152613ddf81613da3565b9050919050565b7f4552433732313a207472616e7366657220746f20746865207a65726f2061646460008201527f7265737300000000000000000000000000000000000000000000000000000000602082015250565b6000613e42602483612c98565b9150613e4d82613de6565b604082019050919050565b60006020820190508181036000830152613e7181613e35565b9050919050565b7f4e487b7100000000000000000000000000000000000000000000000000000000600052601160045260246000fd5b6000613eb282612d48565b9150613ebd83612d48565b925082821015613ed057613ecf613e78565b5b828203905092915050565b6000613ee682612d48565b9150613ef183612d48565b9250827fffffffffffffffffffffffffffffffffffffffffffffffffffffffffffffffff03821115613f2657613f25613e78565b5b828201905092915050565b7f4552433732313a20617070726f766520746f2063616c6c657200000000000000600082015250565b6000613f67601983612c98565b9150613f7282613f31565b602082019050919050565b60006020820190508181036000830152613f9681613f5a565b9050919050565b7f4552433732313a207472616e7366657220746f206e6f6e20455243373231526560008201527f63656976657220696d706c656d656e7465720000000000000000000000000000602082015250565b6000613ff9603283612c98565b915061400482613f9d565b604082019050919050565b6000602082019050818103600083015261402881613fec565b9050919050565b7f4552433732314d657461646174613a2055524920717565727920666f72206e6f60008201527f6e6578697374656e7420746f6b656e0000000000000000000000000000000000602082015250565b600061408b602f83612c98565b91506140968261402f565b604082019050919050565b600060208201905081810360008301526140ba8161407e565b9050919050565b7f4e487b7100000000000000000000000000000000000000000000000000000000600052603260045260246000fd5b60006140fb82612d48565b91507fffffffffffffffffffffffffffffffffffffffffffffffffffffffffffffffff82141561412e5761412d613e78565b5b600182019050919050565b7f4e487b7100000000000000000000000000000000000000000000000000000000600052601260045260246000fd5b600061417382612d48565b915061417e83612d48565b92508261418e5761418d614139565b5b828204905092915050565b60006141a482612d48565b91506141af83612d48565b9250826141bf576141be614139565b5b828206905092915050565b600060808201905081810360008301526141e48187612ced565b905081810360208301526141f88186612ced565b9050818103604083015261420c8185612ced565b905061421b606083018461311e565b95945050505050565b600061422f82612d48565b915061423a83612d48565b9250817fffffffffffffffffffffffffffffffffffffffffffffffffffffffffffffffff048311821515161561427357614272613e78565b5b828202905092915050565b7f45524337323155524953746f726167653a2055524920736574206f66206e6f6e60008201527f6578697374656e7420746f6b656e000000000000000000000000000000000000602082015250565b60006142da602e83612c98565b91506142e58261427e565b604082019050919050565b60006020820190508181036000830152614309816142cd565b9050919050565b600081519050919050565b600082825260208201905092915050565b600061433782614310565b614341818561431b565b9350614351818560208601612ca9565b61435a81612cdc565b840191505092915050565b600060808201905061437a6000830187612ddd565b6143876020830186612ddd565b614394604083018561311e565b81810360608301526143a6818461432c565b905095945050505050565b6000815190506143c081612bfe565b92915050565b6000602082840312156143dc576143db612bc8565b5b60006143ea848285016143b1565b91505092915050565b7f4552433732313a206d696e7420746f20746865207a65726f2061646472657373600082015250565b6000614429602083612c98565b9150614434826143f3565b602082019050919050565b600060208201905081810360008301526144588161441c565b9050919050565b7f4552433732313a20746f6b656e20616c7265616479206d696e74656400000000600082015250565b6000614495601c83612c98565b91506144a08261445f565b602082019050919050565b600060208201905081810360008301526144c481614488565b905091905056fe5265676973746572696e672025732e2573206f6e2074686520636f6e7472616374207769746820746f6b656e49442025640a2d2d2d2d2d2d2d2d2d2d2d2d2d2d2d2d2d2d2d2d2d2d2d2d2d2d2d2d2d2d2d2d2d2d2d2d2d2d2d2d2d2d2d2d2d2d2d2d2d2d2d4142434445464748494a4b4c4d4e4f505152535455565758595a6162636465666768696a6b6c6d6e6f707172737475767778797a303132333435363738392b2f2d2d2d2d2d2d2d2d2d2d2d2d2d2d2d2d2d2d2d2d2d2d2d2d2d2d2d2d2d2d2d2d2d2d2d2d2d2d2d2d2d2d2d2d2d2d2d2d2d2d2d0aa26469706673582212209de889f7cc9d87e9b3cbdeea59bf7aad213b949b17e60ec371f6b8350e3715ad64736f6c634300080a00333c73766720786d6c6e733d27687474703a2f2f7777772e77332e6f72672f323030302f737667272077696474683d2732373027206865696768743d27323730272066696c6c3d276e6f6e65273e3c706174682066696c6c3d2775726c282342292720643d274d302030683237307632373048307a272f3e3c646566733e3c66696c7465722069643d27412720636f6c6f722d696e746572706f6c6174696f6e2d66696c746572733d2773524742272066696c746572556e6974733d277573657253706163654f6e55736527206865696768743d27323730272077696474683d27323730273e3c666544726f70536861646f772064783d2730272064793d27312720737464446576696174696f6e3d27322720666c6f6f642d6f7061636974793d272e323235272077696474683d273230302527206865696768743d2732303025272f3e3c2f66696c7465723e3c2f646566733e3c7061746820643d274d37322e3836332034322e393439632d2e3636382d2e3338372d312e3432362d2e35392d322e3139372d2e3539732d312e3532392e3230342d322e3139372e35396c2d31302e30383120362e3033322d362e383520332e3933342d31302e30383120362e303332632d2e3636382e3338372d312e3432362e35392d322e3139372e3539732d312e3532392d2e3230342d322e3139372d2e35396c2d382e3031332d342e37323161342e353220342e35322030203020312d312e3538392d312e363136632d2e3338342d2e3636352d2e3539342d312e3431382d2e3630382d322e313837762d392e3331632d2e3031332d2e3737352e3138352d312e3533382e3537322d322e32303861342e323520342e323520302030203120312e3632352d312e3539356c372e3838342d342e3539632e3636382d2e33383720312e3432362d2e353920322e3139372d2e353973312e3532392e32303420322e3139372e35396c372e38383420342e353961342e353220342e353220302030203120312e35383920312e363136632e3338342e3636352e35393420312e3431382e36303820322e31383776362e3033326c362e38352d342e303635762d362e303332632e3031332d2e3737352d2e3138352d312e3533382d2e3537322d322e32303861342e323520342e32352030203020302d312e3632352d312e3539354c34312e3435362032342e3539632d2e3636382d2e3338372d312e3432362d2e35392d322e3139372d2e3539732d312e3532392e3230342d322e3139372e35396c2d31342e38363420382e36353561342e323520342e32352030203020302d312e36323520312e353935632d2e3338372e36372d2e35383520312e3433342d2e35373220322e3230387631372e343431632d2e3031332e3737352e31383520312e3533382e35373220322e32303861342e323520342e323520302030203020312e36323520312e3539356c31342e38363420382e363535632e3636382e33383720312e3432362e353920322e3139372e353973312e3532392d2e32303420322e3139372d2e35396c31302e3038312d352e39303120362e38352d342e3036352031302e3038312d352e393031632e3636382d2e33383720312e3432362d2e353920322e3139372d2e353973312e3532392e32303420322e3139372e35396c372e38383420342e353961342e353220342e353220302030203120312e35383920312e363136632e3338342e3636352e35393420312e3431382e36303820322e31383776392e333131632e3031332e3737352d2e31383520312e3533382d2e35373220322e32303861342e323520342e32352030203020312d312e36323520312e3539356c2d372e38383420342e373231632d2e3636382e3338372d312e3432362e35392d322e3139372e3539732d312e3532392d2e3230342d322e3139372d2e35396c2d372e3838342d342e353961342e353220342e35322030203020312d312e3538392d312e363136632d2e3338352d2e3636352d2e3539342d312e3431382d2e3630382d322e313837762d362e3033326c2d362e383520342e30363576362e303332632d2e3031332e3737352e31383520312e3533382e35373220322e32303861342e323520342e323520302030203020312e36323520312e3539356c31342e38363420382e363535632e3636382e33383720312e3432362e353920322e3139372e353973312e3532392d2e32303420322e3139372d2e35396c31342e3836342d382e363535632e3635372d2e33393420312e3230342d2e393520312e3538392d312e363136732e3539342d312e3431382e3630392d322e3138375635352e353338632e3031332d2e3737352d2e3138352d312e3533382d2e3537322d322e32303861342e323520342e32352030203020302d312e3632352d312e3539356c2d31342e3939332d382e3738367a272066696c6c3d2723666666272f3e3c646566733e3c6c696e6561724772616469656e742069643d2742272078313d2730272079313d2730272078323d27323730272079323d2732373027206772616469656e74556e6974733d277573657253706163654f6e557365273e3c73746f702073746f702d636f6c6f723d2723636235656565272f3e3c73746f70206f66667365743d2731272073746f702d636f6c6f723d2723306364376534272073746f702d6f7061636974793d272e3939272f3e3c2f6c696e6561724772616469656e743e3c2f646566733e3c7465787420783d2733322e352720793d273233312720666f6e742d73697a653d273237272066696c6c3d2723666666272066696c7465723d2775726c282341292720666f6e742d66616d696c793d27506c7573204a616b617274612053616e732c44656a6156752053616e732c4e6f746f20436f6c6f7220456d6f6a692c4170706c6520436f6c6f7220456d6f6a692c73616e732d73657269662720666f6e742d7765696768743d27626f6c64273e",
  "linkReferences": {},
  "deployedLinkReferences": {}
}