{
  "_format": "hh-sol-artifact-1",
  "contractName": "Domains",
  "sourceName": "contracts/Domain.sol",
  "abi": [
    {
      "inputs": [
        {
          "internalType": "string",
          "name": "_tld",
          "type": "string"
        }
      ],
      "stateMutability": "payable",
      "type": "constructor"
    },
    {
      "inputs": [],
      "name": "AlreadyRegistered",
      "type": "error"
    },
    {
      "inputs": [
        {
          "internalType": "string",
          "name": "name",
          "type": "string"
        }
      ],
      "name": "InvalidName",
      "type": "error"
    },
    {
      "inputs": [],
      "name": "Unauthorized",
      "type": "error"
    },
    {
      "anonymous": false,
      "inputs": [
        {
          "indexed": true,
          "internalType": "address",
          "name": "owner",
          "type": "address"
        },
        {
          "indexed": true,
          "internalType": "address",
          "name": "approved",
          "type": "address"
        },
        {
          "indexed": true,
          "internalType": "uint256",
          "name": "tokenId",
          "type": "uint256"
        }
      ],
      "name": "Approval",
      "type": "event"
    },
    {
      "anonymous": false,
      "inputs": [
        {
          "indexed": true,
          "internalType": "address",
          "name": "owner",
          "type": "address"
        },
        {
          "indexed": true,
          "internalType": "address",
          "name": "operator",
          "type": "address"
        },
        {
          "indexed": false,
          "internalType": "bool",
          "name": "approved",
          "type": "bool"
        }
      ],
      "name": "ApprovalForAll",
      "type": "event"
    },
    {
      "anonymous": false,
      "inputs": [
        {
          "indexed": true,
          "internalType": "address",
          "name": "from",
          "type": "address"
        },
        {
          "indexed": true,
          "internalType": "address",
          "name": "to",
          "type": "address"
        },
        {
          "indexed": true,
          "internalType": "uint256",
          "name": "tokenId",
          "type": "uint256"
        }
      ],
      "name": "Transfer",
      "type": "event"
    },
    {
      "inputs": [
        {
          "internalType": "address",
          "name": "to",
          "type": "address"
        },
        {
          "internalType": "uint256",
          "name": "tokenId",
          "type": "uint256"
        }
      ],
      "name": "approve",
      "outputs": [],
      "stateMutability": "nonpayable",
      "type": "function"
    },
    {
      "inputs": [
        {
          "internalType": "address",
          "name": "owner",
          "type": "address"
        }
      ],
      "name": "balanceOf",
      "outputs": [
        {
          "internalType": "uint256",
          "name": "",
          "type": "uint256"
        }
      ],
      "stateMutability": "view",
      "type": "function"
    },
    {
      "inputs": [
        {
          "internalType": "string",
          "name": "",
          "type": "string"
        }
      ],
      "name": "domains",
      "outputs": [
        {
          "internalType": "address",
          "name": "",
          "type": "address"
        }
      ],
      "stateMutability": "view",
      "type": "function"
    },
    {
      "inputs": [
        {
          "internalType": "string",
          "name": "name",
          "type": "string"
        }
      ],
      "name": "getAddress",
      "outputs": [
        {
          "internalType": "address",
          "name": "",
          "type": "address"
        }
      ],
      "stateMutability": "view",
      "type": "function"
    },
    {
      "inputs": [],
      "name": "getAllNames",
      "outputs": [
        {
          "internalType": "string[]",
          "name": "",
          "type": "string[]"
        }
      ],
      "stateMutability": "view",
      "type": "function"
    },
    {
      "inputs": [
        {
          "internalType": "uint256",
          "name": "tokenId",
          "type": "uint256"
        }
      ],
      "name": "getApproved",
      "outputs": [
        {
          "internalType": "address",
          "name": "",
          "type": "address"
        }
      ],
      "stateMutability": "view",
      "type": "function"
    },
    {
      "inputs": [
        {
          "internalType": "string",
          "name": "name",
          "type": "string"
        }
      ],
      "name": "getRecord",
      "outputs": [
        {
          "internalType": "string",
          "name": "",
          "type": "string"
        }
      ],
      "stateMutability": "view",
      "type": "function"
    },
    {
      "inputs": [
        {
          "internalType": "address",
          "name": "owner",
          "type": "address"
        },
        {
          "internalType": "address",
          "name": "operator",
          "type": "address"
        }
      ],
      "name": "isApprovedForAll",
      "outputs": [
        {
          "internalType": "bool",
          "name": "",
          "type": "bool"
        }
      ],
      "stateMutability": "view",
      "type": "function"
    },
    {
      "inputs": [],
      "name": "isOwner",
      "outputs": [
        {
          "internalType": "bool",
          "name": "",
          "type": "bool"
        }
      ],
      "stateMutability": "view",
      "type": "function"
    },
    {
      "inputs": [],
      "name": "name",
      "outputs": [
        {
          "internalType": "string",
          "name": "",
          "type": "string"
        }
      ],
      "stateMutability": "view",
      "type": "function"
    },
    {
      "inputs": [
        {
          "internalType": "uint256",
          "name": "",
          "type": "uint256"
        }
      ],
      "name": "names",
      "outputs": [
        {
          "internalType": "string",
          "name": "",
          "type": "string"
        }
      ],
      "stateMutability": "view",
      "type": "function"
    },
    {
      "inputs": [],
      "name": "owner",
      "outputs": [
        {
          "internalType": "address payable",
          "name": "",
          "type": "address"
        }
      ],
      "stateMutability": "view",
      "type": "function"
    },
    {
      "inputs": [
        {
          "internalType": "uint256",
          "name": "tokenId",
          "type": "uint256"
        }
      ],
      "name": "ownerOf",
      "outputs": [
        {
          "internalType": "address",
          "name": "",
          "type": "address"
        }
      ],
      "stateMutability": "view",
      "type": "function"
    },
    {
      "inputs": [
        {
          "internalType": "string",
          "name": "name",
          "type": "string"
        }
      ],
      "name": "price",
      "outputs": [
        {
          "internalType": "uint256",
          "name": "",
          "type": "uint256"
        }
      ],
      "stateMutability": "pure",
      "type": "function"
    },
    {
      "inputs": [
        {
          "internalType": "string",
          "name": "",
          "type": "string"
        }
      ],
      "name": "records",
      "outputs": [
        {
          "internalType": "string",
          "name": "",
          "type": "string"
        }
      ],
      "stateMutability": "view",
      "type": "function"
    },
    {
      "inputs": [
        {
          "internalType": "string",
          "name": "name",
          "type": "string"
        }
      ],
      "name": "register",
      "outputs": [],
      "stateMutability": "payable",
      "type": "function"
    },
    {
      "inputs": [
        {
          "internalType": "address",
          "name": "from",
          "type": "address"
        },
        {
          "internalType": "address",
          "name": "to",
          "type": "address"
        },
        {
          "internalType": "uint256",
          "name": "tokenId",
          "type": "uint256"
        }
      ],
      "name": "safeTransferFrom",
      "outputs": [],
      "stateMutability": "nonpayable",
      "type": "function"
    },
    {
      "inputs": [
        {
          "internalType": "address",
          "name": "from",
          "type": "address"
        },
        {
          "internalType": "address",
          "name": "to",
          "type": "address"
        },
        {
          "internalType": "uint256",
          "name": "tokenId",
          "type": "uint256"
        },
        {
          "internalType": "bytes",
          "name": "_data",
          "type": "bytes"
        }
      ],
      "name": "safeTransferFrom",
      "outputs": [],
      "stateMutability": "nonpayable",
      "type": "function"
    },
    {
      "inputs": [
        {
          "internalType": "address",
          "name": "operator",
          "type": "address"
        },
        {
          "internalType": "bool",
          "name": "approved",
          "type": "bool"
        }
      ],
      "name": "setApprovalForAll",
      "outputs": [],
      "stateMutability": "nonpayable",
      "type": "function"
    },
    {
      "inputs": [
        {
          "internalType": "string",
          "name": "name",
          "type": "string"
        },
        {
          "internalType": "string",
          "name": "record",
          "type": "string"
        }
      ],
      "name": "setRecord",
      "outputs": [],
      "stateMutability": "nonpayable",
      "type": "function"
    },
    {
      "inputs": [
        {
          "internalType": "bytes4",
          "name": "interfaceId",
          "type": "bytes4"
        }
      ],
      "name": "supportsInterface",
      "outputs": [
        {
          "internalType": "bool",
          "name": "",
          "type": "bool"
        }
      ],
      "stateMutability": "view",
      "type": "function"
    },
    {
      "inputs": [],
      "name": "symbol",
      "outputs": [
        {
          "internalType": "string",
          "name": "",
          "type": "string"
        }
      ],
      "stateMutability": "view",
      "type": "function"
    },
    {
      "inputs": [],
      "name": "tld",
      "outputs": [
        {
          "internalType": "string",
          "name": "",
          "type": "string"
        }
      ],
      "stateMutability": "view",
      "type": "function"
    },
    {
      "inputs": [
        {
          "internalType": "uint256",
          "name": "tokenId",
          "type": "uint256"
        }
      ],
      "name": "tokenURI",
      "outputs": [
        {
          "internalType": "string",
          "name": "",
          "type": "string"
        }
      ],
      "stateMutability": "view",
      "type": "function"
    },
    {
      "inputs": [
        {
          "internalType": "address",
          "name": "from",
          "type": "address"
        },
        {
          "internalType": "address",
          "name": "to",
          "type": "address"
        },
        {
          "internalType": "uint256",
          "name": "tokenId",
          "type": "uint256"
        }
      ],
      "name": "transferFrom",
      "outputs": [],
      "stateMutability": "nonpayable",
      "type": "function"
    },
    {
      "inputs": [
        {
          "internalType": "string",
          "name": "name",
          "type": "string"
        }
      ],
      "name": "valid",
      "outputs": [
        {
          "internalType": "bool",
          "name": "",
          "type": "bool"
        }
      ],
      "stateMutability": "pure",
      "type": "function"
    },
    {
      "inputs": [],
      "name": "withdraw",
      "outputs": [],
      "stateMutability": "nonpayable",
      "type": "function"
    }
  ],
  "bytecode": "0x60806040526040518061088001604052806108478152602001620053946108479139600a908051906020019062000038929190620002c8565b506040518060400160405280600d81526020017f3c2f746578743e3c2f7376673e00000000000000000000000000000000000000815250600b908051906020019062000086929190620002c8565b5060405162005bdb38038062005bdb8339818101604052810190620000ac919062000515565b6040518060400160405280600c81526020017f4b65776c20446f6d61696e7300000000000000000000000000000000000000008152506040518060400160405280600481526020017f4b444e5300000000000000000000000000000000000000000000000000000000815250816000908051906020019062000130929190620002c8565b50806001908051906020019062000149929190620002c8565b50505033600860006101000a81548173ffffffffffffffffffffffffffffffffffffffff021916908373ffffffffffffffffffffffffffffffffffffffff1602179055508060099080519060200190620001a5929190620002c8565b50620001f26040518060400160405280601881526020017f2573206e616d652073657276696365206465706c6f796564000000000000000081525082620001f960201b62001bd01760201c565b5062000663565b6200029b828260405160240162000212929190620005c3565b6040516020818303038152906040527f4b5c4277000000000000000000000000000000000000000000000000000000007bffffffffffffffffffffffffffffffffffffffffffffffffffffffff19166020820180517bffffffffffffffffffffffffffffffffffffffffffffffffffffffff83818316178352505050506200029f60201b60201c565b5050565b60008151905060006a636f6e736f6c652e6c6f679050602083016000808483855afa5050505050565b828054620002d6906200062d565b90600052602060002090601f016020900481019282620002fa576000855562000346565b82601f106200031557805160ff191683800117855562000346565b8280016001018555821562000346579182015b828111156200034557825182559160200191906001019062000328565b5b50905062000355919062000359565b5090565b5b80821115620003745760008160009055506001016200035a565b5090565b6000604051905090565b600080fd5b600080fd5b600080fd5b600080fd5b6000601f19601f8301169050919050565b7f4e487b7100000000000000000000000000000000000000000000000000000000600052604160045260246000fd5b620003e18262000396565b810181811067ffffffffffffffff82111715620004035762000402620003a7565b5b80604052505050565b60006200041862000378565b9050620004268282620003d6565b919050565b600067ffffffffffffffff821115620004495762000448620003a7565b5b620004548262000396565b9050602081019050919050565b60005b838110156200048157808201518184015260208101905062000464565b8381111562000491576000848401525b50505050565b6000620004ae620004a8846200042b565b6200040c565b905082815260208101848484011115620004cd57620004cc62000391565b5b620004da84828562000461565b509392505050565b600082601f830112620004fa57620004f96200038c565b5b81516200050c84826020860162000497565b91505092915050565b6000602082840312156200052e576200052d62000382565b5b600082015167ffffffffffffffff8111156200054f576200054e62000387565b5b6200055d84828501620004e2565b91505092915050565b600081519050919050565b600082825260208201905092915050565b60006200058f8262000566565b6200059b818562000571565b9350620005ad81856020860162000461565b620005b88162000396565b840191505092915050565b60006040820190508181036000830152620005df818562000582565b90508181036020830152620005f5818462000582565b90509392505050565b7f4e487b7100000000000000000000000000000000000000000000000000000000600052602260045260246000fd5b600060028204905060018216806200064657607f821691505b602082108114156200065d576200065c620005fe565b5b50919050565b614d2180620006736000396000f3fe60806040526004361061019c5760003560e01c806370a08231116100ec578063bf40fac11161008a578063e985e9c511610064578063e985e9c514610624578063f2c298be14610661578063fb825e5f1461067d578063fe2c6198146106a85761019c565b8063bf40fac114610581578063c1880a98146105be578063c87b56dd146105e75761019c565b806395d89b41116100c657806395d89b41146104c75780639791c097146104f2578063a22cb4651461052f578063b88d4fde146105585761019c565b806370a08231146104345780638da5cb5b146104715780638f32d59b1461049c5761019c565b8063264492351161015957806342842e0e1161013357806342842e0e146103545780634622ab031461037d578063541e771d146103ba5780636352211e146103f75761019c565b806326449235146102d55780632d551432146103125780633ccfd60b1461033d5761019c565b806301ffc9a7146101a157806306fdde03146101de578063081812fc14610209578063095ea7b31461024657806311dd88451461026f57806323b872dd146102ac575b600080fd5b3480156101ad57600080fd5b506101c860048036038101906101c391906130b5565b6106e5565b6040516101d591906130fd565b60405180910390f35b3480156101ea57600080fd5b506101f36107c7565b60405161020091906131b1565b60405180910390f35b34801561021557600080fd5b50610230600480360381019061022b9190613209565b610859565b60405161023d9190613277565b60405180910390f35b34801561025257600080fd5b5061026d600480360381019061026891906132be565b6108de565b005b34801561027b57600080fd5b5061029660048036038101906102919190613363565b6109f6565b6040516102a391906131b1565b60405180910390f35b3480156102b857600080fd5b506102d360048036038101906102ce91906133b0565b610aa9565b005b3480156102e157600080fd5b506102fc60048036038101906102f79190613533565b610b09565b6040516103099190613277565b60405180910390f35b34801561031e57600080fd5b50610327610b52565b60405161033491906131b1565b60405180910390f35b34801561034957600080fd5b50610352610be0565b005b34801561036057600080fd5b5061037b600480360381019061037691906133b0565b610ca6565b005b34801561038957600080fd5b506103a4600480360381019061039f9190613209565b610cc6565b6040516103b191906131b1565b60405180910390f35b3480156103c657600080fd5b506103e160048036038101906103dc9190613533565b610d66565b6040516103ee91906131b1565b60405180910390f35b34801561040357600080fd5b5061041e60048036038101906104199190613209565b610e1c565b60405161042b9190613277565b60405180910390f35b34801561044057600080fd5b5061045b6004803603810190610456919061357c565b610ece565b60405161046891906135b8565b60405180910390f35b34801561047d57600080fd5b50610486610f86565b60405161049391906135f4565b60405180910390f35b3480156104a857600080fd5b506104b1610fac565b6040516104be91906130fd565b60405180910390f35b3480156104d357600080fd5b506104dc611004565b6040516104e991906131b1565b60405180910390f35b3480156104fe57600080fd5b5061051960048036038101906105149190613363565b611096565b60405161052691906130fd565b60405180910390f35b34801561053b57600080fd5b506105566004803603810190610551919061363b565b61114a565b005b34801561056457600080fd5b5061057f600480360381019061057a919061371c565b611160565b005b34801561058d57600080fd5b506105a860048036038101906105a39190613363565b6111c2565b6040516105b59190613277565b60405180910390f35b3480156105ca57600080fd5b506105e560048036038101906105e0919061379f565b61120d565b005b3480156105f357600080fd5b5061060e60048036038101906106099190613209565b6112e8565b60405161061b91906131b1565b60405180910390f35b34801561063057600080fd5b5061064b60048036038101906106469190613820565b61143a565b60405161065891906130fd565b60405180910390f35b61067b60048036038101906106769190613363565b6114ce565b005b34801561068957600080fd5b5061069261194c565b60405161069f919061396c565b60405180910390f35b3480156106b457600080fd5b506106cf60048036038101906106ca9190613363565b611b2a565b6040516106dc91906135b8565b60405180910390f35b60007f80ac58cd000000000000000000000000000000000000000000000000000000007bffffffffffffffffffffffffffffffffffffffffffffffffffffffff1916827bffffffffffffffffffffffffffffffffffffffffffffffffffffffff191614806107b057507f5b5e139f000000000000000000000000000000000000000000000000000000007bffffffffffffffffffffffffffffffffffffffffffffffffffffffff1916827bffffffffffffffffffffffffffffffffffffffffffffffffffffffff1916145b806107c057506107bf82611c6c565b5b9050919050565b6060600080546107d6906139bd565b80601f0160208091040260200160405190810160405280929190818152602001828054610802906139bd565b801561084f5780601f106108245761010080835404028352916020019161084f565b820191906000526020600020905b81548152906001019060200180831161083257829003601f168201915b5050505050905090565b600061086482611cd6565b6108a3576040517f08c379a000000000000000000000000000000000000000000000000000000000815260040161089a90613a61565b60405180910390fd5b6004600083815260200190815260200160002060009054906101000a900473ffffffffffffffffffffffffffffffffffffffff169050919050565b60006108e982610e1c565b90508073ffffffffffffffffffffffffffffffffffffffff168373ffffffffffffffffffffffffffffffffffffffff16141561095a576040517f08c379a000000000000000000000000000000000000000000000000000000000815260040161095190613af3565b60405180910390fd5b8073ffffffffffffffffffffffffffffffffffffffff16610979611d42565b73ffffffffffffffffffffffffffffffffffffffff1614806109a857506109a7816109a2611d42565b61143a565b5b6109e7576040517f08c379a00000000000000000000000000000000000000000000000000000000081526004016109de90613b85565b60405180910390fd5b6109f18383611d4a565b505050565b6060600d8383604051610a0a929190613bd5565b90815260200160405180910390208054610a23906139bd565b80601f0160208091040260200160405190810160405280929190818152602001828054610a4f906139bd565b8015610a9c5780601f10610a7157610100808354040283529160200191610a9c565b820191906000526020600020905b815481529060010190602001808311610a7f57829003601f168201915b5050505050905092915050565b610aba610ab4611d42565b82611e03565b610af9576040517f08c379a0000000000000000000000000000000000000000000000000000000008152600401610af090613c60565b60405180910390fd5b610b04838383611ee1565b505050565b600c818051602081018201805184825260208301602085012081835280955050505050506000915054906101000a900473ffffffffffffffffffffffffffffffffffffffff1681565b60098054610b5f906139bd565b80601f0160208091040260200160405190810160405280929190818152602001828054610b8b906139bd565b8015610bd85780601f10610bad57610100808354040283529160200191610bd8565b820191906000526020600020905b815481529060010190602001808311610bbb57829003601f168201915b505050505081565b610be8610fac565b610bf157600080fd5b600047905060003373ffffffffffffffffffffffffffffffffffffffff1682604051610c1c90613cb1565b60006040518083038185875af1925050503d8060008114610c59576040519150601f19603f3d011682016040523d82523d6000602084013e610c5e565b606091505b5050905080610ca2576040517f08c379a0000000000000000000000000000000000000000000000000000000008152600401610c9990613d12565b60405180910390fd5b5050565b610cc183838360405180602001604052806000815250611160565b505050565b600e6020528060005260406000206000915090508054610ce5906139bd565b80601f0160208091040260200160405190810160405280929190818152602001828054610d11906139bd565b8015610d5e5780601f10610d3357610100808354040283529160200191610d5e565b820191906000526020600020905b815481529060010190602001808311610d4157829003601f168201915b505050505081565b600d818051602081018201805184825260208301602085012081835280955050505050506000915090508054610d9b906139bd565b80601f0160208091040260200160405190810160405280929190818152602001828054610dc7906139bd565b8015610e145780601f10610de957610100808354040283529160200191610e14565b820191906000526020600020905b815481529060010190602001808311610df757829003601f168201915b505050505081565b6000806002600084815260200190815260200160002060009054906101000a900473ffffffffffffffffffffffffffffffffffffffff169050600073ffffffffffffffffffffffffffffffffffffffff168173ffffffffffffffffffffffffffffffffffffffff161415610ec5576040517f08c379a0000000000000000000000000000000000000000000000000000000008152600401610ebc90613da4565b60405180910390fd5b80915050919050565b60008073ffffffffffffffffffffffffffffffffffffffff168273ffffffffffffffffffffffffffffffffffffffff161415610f3f576040517f08c379a0000000000000000000000000000000000000000000000000000000008152600401610f3690613e36565b60405180910390fd5b600360008373ffffffffffffffffffffffffffffffffffffffff1673ffffffffffffffffffffffffffffffffffffffff168152602001908152602001600020549050919050565b600860009054906101000a900473ffffffffffffffffffffffffffffffffffffffff1681565b6000600860009054906101000a900473ffffffffffffffffffffffffffffffffffffffff1673ffffffffffffffffffffffffffffffffffffffff163373ffffffffffffffffffffffffffffffffffffffff1614905090565b606060018054611013906139bd565b80601f016020809104026020016040519081016040528092919081815260200182805461103f906139bd565b801561108c5780601f106110615761010080835404028352916020019161108c565b820191906000526020600020905b81548152906001019060200180831161106f57829003601f168201915b5050505050905090565b600060036110e784848080601f016020809104026020016040519081016040528093929190818152602001838380828437600081840152601f19601f82011690508083019250505050505050612148565b101580156111425750601561113f84848080601f016020809104026020016040519081016040528093929190818152602001838380828437600081840152601f19601f82011690508083019250505050505050612148565b11155b905092915050565b61115c611155611d42565b83836122fd565b5050565b61117161116b611d42565b83611e03565b6111b0576040517f08c379a00000000000000000000000000000000000000000000000000000000081526004016111a790613c60565b60405180910390fd5b6111bc8484848461246a565b50505050565b6000600c83836040516111d6929190613bd5565b908152602001604051809103902060009054906101000a900473ffffffffffffffffffffffffffffffffffffffff16905092915050565b600c848460405161121f929190613bd5565b908152602001604051809103902060009054906101000a900473ffffffffffffffffffffffffffffffffffffffff1673ffffffffffffffffffffffffffffffffffffffff163373ffffffffffffffffffffffffffffffffffffffff16146112b2576040517f82b4290000000000000000000000000000000000000000000000000000000000815260040160405180910390fd5b8181600d86866040516112c6929190613bd5565b908152602001604051809103902091906112e1929190612f20565b5050505050565b60606112f382611cd6565b611332576040517f08c379a000000000000000000000000000000000000000000000000000000000815260040161132990613ec8565b60405180910390fd5b6000600660008481526020019081526020016000208054611352906139bd565b80601f016020809104026020016040519081016040528092919081815260200182805461137e906139bd565b80156113cb5780601f106113a0576101008083540402835291602001916113cb565b820191906000526020600020905b8154815290600101906020018083116113ae57829003601f168201915b5050505050905060006113dc6124c6565b90506000815114156113f2578192505050611435565b60008251111561142757808260405160200161140f929190613f19565b60405160208183030381529060405292505050611435565b611430846124dd565b925050505b919050565b6000600560008473ffffffffffffffffffffffffffffffffffffffff1673ffffffffffffffffffffffffffffffffffffffff16815260200190815260200160002060008373ffffffffffffffffffffffffffffffffffffffff1673ffffffffffffffffffffffffffffffffffffffff16815260200190815260200160002060009054906101000a900460ff16905092915050565b600073ffffffffffffffffffffffffffffffffffffffff16600c83836040516114f8929190613bd5565b908152602001604051809103902060009054906101000a900473ffffffffffffffffffffffffffffffffffffffff1673ffffffffffffffffffffffffffffffffffffffff1614611574576040517f3a81d6fc00000000000000000000000000000000000000000000000000000000815260040160405180910390fd5b61157e8282611096565b6115c15781816040517f7f19f48d0000000000000000000000000000000000000000000000000000000081526004016115b8929190613f6a565b60405180910390fd5b60006115cd8383611b2a565b905080341015611612576040517f08c379a000000000000000000000000000000000000000000000000000000000815260040161160990613fda565b60405180910390fd5b60008383600960405160200161162a939291906140da565b60405160208183030381529060405290506000600a82600b6040516020016116549392919061410b565b604051602081830303815290604052905060006116716007612584565b905060006116c287878080601f016020809104026020016040519081016040528093929190818152602001838380828437600081840152601f19601f82011690508083019250505050505050612148565b905060006116cf82612592565b90506117c3604051806060016040528060318152602001614c426031913989898080601f016020809104026020016040519081016040528093929190818152602001838380828437600081840152601f19601f820116905080830192505050505050506009805461173f906139bd565b80601f016020809104026020016040519081016040528092919081815260200182805461176b906139bd565b80156117b85780601f1061178d576101008083540402835291602001916117b8565b820191906000526020600020905b81548152906001019060200180831161179b57829003601f168201915b5050505050866126f3565b60006117f9866117d287612795565b846040516020016117e5939291906142b8565b604051602081830303815290604052612795565b905060008160405160200161180e9190614361565b6040516020818303038152906040529050611840604051806060016040528060398152602001614c096039913961292d565b61187f6040518060400160405280600e81526020017f46696e616c20746f6b656e55524900000000000000000000000000000000000081525082611bd0565b6118a0604051806060016040528060398152602001614c736039913961292d565b6118aa33866129c6565b6118b485826129e4565b33600c8b8b6040516118c7929190613bd5565b908152602001604051809103902060006101000a81548173ffffffffffffffffffffffffffffffffffffffff021916908373ffffffffffffffffffffffffffffffffffffffff1602179055508989600e60008881526020019081526020016000209190611935929190612f20565b506119406007612a58565b50505050505050505050565b606061198c6040518060400160405280601f81526020017f47657474696e6720616c6c206e616d65732066726f6d20636f6e74726163740081525061292d565b60006119986007612584565b67ffffffffffffffff8111156119b1576119b0613408565b5b6040519080825280602002602001820160405280156119e457816020015b60608152602001906001900390816119cf5790505b50905060005b6119f46007612584565b811015611b2257600e60008281526020019081526020016000208054611a19906139bd565b80601f0160208091040260200160405190810160405280929190818152602001828054611a45906139bd565b8015611a925780601f10611a6757610100808354040283529160200191611a92565b820191906000526020600020905b815481529060010190602001808311611a7557829003601f168201915b5050505050828281518110611aaa57611aa9614383565b5b6020026020010181905250611b0f6040518060400160405280601781526020017f4e616d6520666f7220746f6b656e20256420697320257300000000000000000081525082848481518110611b0257611b01614383565b5b6020026020010151612a6e565b8080611b1a906143e1565b9150506119ea565b508091505090565b600080611b7a84848080601f016020809104026020016040519081016040528093929190818152602001838380828437600081840152601f19601f82011690508083019250505050505050612148565b905060008111611b8957600080fd5b6003811415611ba3576706f05b59d3b20000915050611bca565b6004811415611bbd57670429d069189e0000915050611bca565b67016345785d8a00009150505b92915050565b611c688282604051602401611be692919061442a565b6040516020818303038152906040527f4b5c4277000000000000000000000000000000000000000000000000000000007bffffffffffffffffffffffffffffffffffffffffffffffffffffffff19166020820180517bffffffffffffffffffffffffffffffffffffffffffffffffffffffff8381831617835250505050612b0d565b5050565b60007f01ffc9a7000000000000000000000000000000000000000000000000000000007bffffffffffffffffffffffffffffffffffffffffffffffffffffffff1916827bffffffffffffffffffffffffffffffffffffffffffffffffffffffff1916149050919050565b60008073ffffffffffffffffffffffffffffffffffffffff166002600084815260200190815260200160002060009054906101000a900473ffffffffffffffffffffffffffffffffffffffff1673ffffffffffffffffffffffffffffffffffffffff1614159050919050565b600033905090565b816004600083815260200190815260200160002060006101000a81548173ffffffffffffffffffffffffffffffffffffffff021916908373ffffffffffffffffffffffffffffffffffffffff160217905550808273ffffffffffffffffffffffffffffffffffffffff16611dbd83610e1c565b73ffffffffffffffffffffffffffffffffffffffff167f8c5be1e5ebec7d5bd14f71427d1e84f3dd0314c0f7b2291e5b200ac8c7c3b92560405160405180910390a45050565b6000611e0e82611cd6565b611e4d576040517f08c379a0000000000000000000000000000000000000000000000000000000008152600401611e44906144d3565b60405180910390fd5b6000611e5883610e1c565b90508073ffffffffffffffffffffffffffffffffffffffff168473ffffffffffffffffffffffffffffffffffffffff161480611ec757508373ffffffffffffffffffffffffffffffffffffffff16611eaf84610859565b73ffffffffffffffffffffffffffffffffffffffff16145b80611ed85750611ed7818561143a565b5b91505092915050565b8273ffffffffffffffffffffffffffffffffffffffff16611f0182610e1c565b73ffffffffffffffffffffffffffffffffffffffff1614611f57576040517f08c379a0000000000000000000000000000000000000000000000000000000008152600401611f4e90614565565b60405180910390fd5b600073ffffffffffffffffffffffffffffffffffffffff168273ffffffffffffffffffffffffffffffffffffffff161415611fc7576040517f08c379a0000000000000000000000000000000000000000000000000000000008152600401611fbe906145f7565b60405180910390fd5b611fd2838383612b36565b611fdd600082611d4a565b6001600360008573ffffffffffffffffffffffffffffffffffffffff1673ffffffffffffffffffffffffffffffffffffffff168152602001908152602001600020600082825461202d9190614617565b925050819055506001600360008473ffffffffffffffffffffffffffffffffffffffff1673ffffffffffffffffffffffffffffffffffffffff1681526020019081526020016000206000828254612084919061464b565b92505081905550816002600083815260200190815260200160002060006101000a81548173ffffffffffffffffffffffffffffffffffffffff021916908373ffffffffffffffffffffffffffffffffffffffff160217905550808273ffffffffffffffffffffffffffffffffffffffff168473ffffffffffffffffffffffffffffffffffffffff167fddf252ad1be2c89b69c2b068fc378daa952ba7f163c4a11628f55a4df523b3ef60405160405180910390a4612143838383612b3b565b505050565b60008060008084519050600092505b808210156122f257600085838151811061217457612173614383565b5b602001015160f81c60f81b9050608060f81b817effffffffffffffffffffffffffffffffffffffffffffffffffffffffffffff191610156121c3576001836121bc919061464b565b92506122de565b60e060f81b817effffffffffffffffffffffffffffffffffffffffffffffffffffffffffffff19161015612205576002836121fe919061464b565b92506122dd565b60f060f81b817effffffffffffffffffffffffffffffffffffffffffffffffffffffffffffff1916101561224757600383612240919061464b565b92506122dc565b60f8801b817effffffffffffffffffffffffffffffffffffffffffffffffffffffffffffff1916101561228857600483612281919061464b565b92506122db565b60fc60f81b817effffffffffffffffffffffffffffffffffffffffffffffffffffffffffffff191610156122ca576005836122c3919061464b565b92506122da565b6006836122d7919061464b565b92505b5b5b5b5b5082806122ea906143e1565b935050612157565b829350505050919050565b8173ffffffffffffffffffffffffffffffffffffffff168373ffffffffffffffffffffffffffffffffffffffff16141561236c576040517f08c379a0000000000000000000000000000000000000000000000000000000008152600401612363906146ed565b60405180910390fd5b80600560008573ffffffffffffffffffffffffffffffffffffffff1673ffffffffffffffffffffffffffffffffffffffff16815260200190815260200160002060008473ffffffffffffffffffffffffffffffffffffffff1673ffffffffffffffffffffffffffffffffffffffff16815260200190815260200160002060006101000a81548160ff0219169083151502179055508173ffffffffffffffffffffffffffffffffffffffff168373ffffffffffffffffffffffffffffffffffffffff167f17307eab39ab6107e8899845ad3d59bd9653f200f220920489ca2b5937696c318360405161245d91906130fd565b60405180910390a3505050565b612475848484611ee1565b61248184848484612b40565b6124c0576040517f08c379a00000000000000000000000000000000000000000000000000000000081526004016124b79061477f565b60405180910390fd5b50505050565b606060405180602001604052806000815250905090565b60606124e882611cd6565b612527576040517f08c379a000000000000000000000000000000000000000000000000000000000815260040161251e90614811565b60405180910390fd5b60006125316124c6565b90506000815111612551576040518060200160405280600081525061257c565b8061255b84612592565b60405160200161256c929190613f19565b6040516020818303038152906040525b915050919050565b600081600001549050919050565b606060008214156125da576040518060400160405280600181526020017f300000000000000000000000000000000000000000000000000000000000000081525090506126ee565b600082905060005b6000821461260c5780806125f5906143e1565b915050600a826126059190614860565b91506125e2565b60008167ffffffffffffffff81111561262857612627613408565b5b6040519080825280601f01601f19166020018201604052801561265a5781602001600182028036833780820191505090505b5090505b600085146126e7576001826126739190614617565b9150600a856126829190614891565b603061268e919061464b565b60f81b8183815181106126a4576126a3614383565b5b60200101907effffffffffffffffffffffffffffffffffffffffffffffffffffffffffffff1916908160001a905350600a856126e09190614860565b945061265e565b8093505050505b919050565b61278f8484848460405160240161270d94939291906148c2565b6040516020818303038152906040527f9fd009f5000000000000000000000000000000000000000000000000000000007bffffffffffffffffffffffffffffffffffffffffffffffffffffffff19166020820180517bffffffffffffffffffffffffffffffffffffffffffffffffffffffff8381831617835250505050612b0d565b50505050565b606060008251905060008114156127be5760405180602001604052806000815250915050612928565b600060036002836127cf919061464b565b6127d99190614860565b60046127e5919061491c565b905060006020826127f6919061464b565b67ffffffffffffffff81111561280f5761280e613408565b5b6040519080825280601f01601f1916602001820160405280156128415781602001600182028036833780820191505090505b5090506000604051806060016040528060408152602001614cac604091399050600181016020830160005b868110156128e55760038101905062ffffff818a015116603f8160121c168401518060081b905060ff603f83600c1c1686015116810190508060081b905060ff603f8360061c1686015116810190508060081b905060ff603f831686015116810190508060e01b9050808452600484019350505061286c565b5060038606600181146128ff576002811461290f5761291a565b613d3d60f01b600283035261291a565b603d60f81b60018303525b508484525050819450505050505b919050565b6129c38160405160240161294191906131b1565b6040516020818303038152906040527f41304fac000000000000000000000000000000000000000000000000000000007bffffffffffffffffffffffffffffffffffffffffffffffffffffffff19166020820180517bffffffffffffffffffffffffffffffffffffffffffffffffffffffff8381831617835250505050612b0d565b50565b6129e0828260405180602001604052806000815250612cc8565b5050565b6129ed82611cd6565b612a2c576040517f08c379a0000000000000000000000000000000000000000000000000000000008152600401612a23906149e8565b60405180910390fd5b80600660008481526020019081526020016000209080519060200190612a53929190612fa6565b505050565b6001816000016000828254019250508190555050565b612b08838383604051602401612a8693929190614a08565b6040516020818303038152906040527fa3f5c739000000000000000000000000000000000000000000000000000000007bffffffffffffffffffffffffffffffffffffffffffffffffffffffff19166020820180517bffffffffffffffffffffffffffffffffffffffffffffffffffffffff8381831617835250505050612b0d565b505050565b60008151905060006a636f6e736f6c652e6c6f679050602083016000808483855afa5050505050565b505050565b505050565b6000612b618473ffffffffffffffffffffffffffffffffffffffff16612d23565b15612cbb578373ffffffffffffffffffffffffffffffffffffffff1663150b7a02612b8a611d42565b8786866040518563ffffffff1660e01b8152600401612bac9493929190614aa2565b6020604051808303816000875af1925050508015612be857506040513d601f19601f82011682018060405250810190612be59190614b03565b60015b612c6b573d8060008114612c18576040519150601f19603f3d011682016040523d82523d6000602084013e612c1d565b606091505b50600081511415612c63576040517f08c379a0000000000000000000000000000000000000000000000000000000008152600401612c5a9061477f565b60405180910390fd5b805181602001fd5b63150b7a0260e01b7bffffffffffffffffffffffffffffffffffffffffffffffffffffffff1916817bffffffffffffffffffffffffffffffffffffffffffffffffffffffff191614915050612cc0565b600190505b949350505050565b612cd28383612d46565b612cdf6000848484612b40565b612d1e576040517f08c379a0000000000000000000000000000000000000000000000000000000008152600401612d159061477f565b60405180910390fd5b505050565b6000808273ffffffffffffffffffffffffffffffffffffffff163b119050919050565b600073ffffffffffffffffffffffffffffffffffffffff168273ffffffffffffffffffffffffffffffffffffffff161415612db6576040517f08c379a0000000000000000000000000000000000000000000000000000000008152600401612dad90614b7c565b60405180910390fd5b612dbf81611cd6565b15612dff576040517f08c379a0000000000000000000000000000000000000000000000000000000008152600401612df690614be8565b60405180910390fd5b612e0b60008383612b36565b6001600360008473ffffffffffffffffffffffffffffffffffffffff1673ffffffffffffffffffffffffffffffffffffffff1681526020019081526020016000206000828254612e5b919061464b565b92505081905550816002600083815260200190815260200160002060006101000a81548173ffffffffffffffffffffffffffffffffffffffff021916908373ffffffffffffffffffffffffffffffffffffffff160217905550808273ffffffffffffffffffffffffffffffffffffffff16600073ffffffffffffffffffffffffffffffffffffffff167fddf252ad1be2c89b69c2b068fc378daa952ba7f163c4a11628f55a4df523b3ef60405160405180910390a4612f1c60008383612b3b565b5050565b828054612f2c906139bd565b90600052602060002090601f016020900481019282612f4e5760008555612f95565b82601f10612f6757803560ff1916838001178555612f95565b82800160010185558215612f95579182015b82811115612f94578235825591602001919060010190612f79565b5b509050612fa2919061302c565b5090565b828054612fb2906139bd565b90600052602060002090601f016020900481019282612fd4576000855561301b565b82601f10612fed57805160ff191683800117855561301b565b8280016001018555821561301b579182015b8281111561301a578251825591602001919060010190612fff565b5b509050613028919061302c565b5090565b5b8082111561304557600081600090555060010161302d565b5090565b6000604051905090565b600080fd5b600080fd5b60007fffffffff0000000000000000000000000000000000000000000000000000000082169050919050565b6130928161305d565b811461309d57600080fd5b50565b6000813590506130af81613089565b92915050565b6000602082840312156130cb576130ca613053565b5b60006130d9848285016130a0565b91505092915050565b60008115159050919050565b6130f7816130e2565b82525050565b600060208201905061311260008301846130ee565b92915050565b600081519050919050565b600082825260208201905092915050565b60005b83811015613152578082015181840152602081019050613137565b83811115613161576000848401525b50505050565b6000601f19601f8301169050919050565b600061318382613118565b61318d8185613123565b935061319d818560208601613134565b6131a681613167565b840191505092915050565b600060208201905081810360008301526131cb8184613178565b905092915050565b6000819050919050565b6131e6816131d3565b81146131f157600080fd5b50565b600081359050613203816131dd565b92915050565b60006020828403121561321f5761321e613053565b5b600061322d848285016131f4565b91505092915050565b600073ffffffffffffffffffffffffffffffffffffffff82169050919050565b600061326182613236565b9050919050565b61327181613256565b82525050565b600060208201905061328c6000830184613268565b92915050565b61329b81613256565b81146132a657600080fd5b50565b6000813590506132b881613292565b92915050565b600080604083850312156132d5576132d4613053565b5b60006132e3858286016132a9565b92505060206132f4858286016131f4565b9150509250929050565b600080fd5b600080fd5b600080fd5b60008083601f840112613323576133226132fe565b5b8235905067ffffffffffffffff8111156133405761333f613303565b5b60208301915083600182028301111561335c5761335b613308565b5b9250929050565b6000806020838503121561337a57613379613053565b5b600083013567ffffffffffffffff81111561339857613397613058565b5b6133a48582860161330d565b92509250509250929050565b6000806000606084860312156133c9576133c8613053565b5b60006133d7868287016132a9565b93505060206133e8868287016132a9565b92505060406133f9868287016131f4565b9150509250925092565b600080fd5b7f4e487b7100000000000000000000000000000000000000000000000000000000600052604160045260246000fd5b61344082613167565b810181811067ffffffffffffffff8211171561345f5761345e613408565b5b80604052505050565b6000613472613049565b905061347e8282613437565b919050565b600067ffffffffffffffff82111561349e5761349d613408565b5b6134a782613167565b9050602081019050919050565b82818337600083830152505050565b60006134d66134d184613483565b613468565b9050828152602081018484840111156134f2576134f1613403565b5b6134fd8482856134b4565b509392505050565b600082601f83011261351a576135196132fe565b5b813561352a8482602086016134c3565b91505092915050565b60006020828403121561354957613548613053565b5b600082013567ffffffffffffffff81111561356757613566613058565b5b61357384828501613505565b91505092915050565b60006020828403121561359257613591613053565b5b60006135a0848285016132a9565b91505092915050565b6135b2816131d3565b82525050565b60006020820190506135cd60008301846135a9565b92915050565b60006135de82613236565b9050919050565b6135ee816135d3565b82525050565b600060208201905061360960008301846135e5565b92915050565b613618816130e2565b811461362357600080fd5b50565b6000813590506136358161360f565b92915050565b6000806040838503121561365257613651613053565b5b6000613660858286016132a9565b925050602061367185828601613626565b9150509250929050565b600067ffffffffffffffff82111561369657613695613408565b5b61369f82613167565b9050602081019050919050565b60006136bf6136ba8461367b565b613468565b9050828152602081018484840111156136db576136da613403565b5b6136e68482856134b4565b509392505050565b600082601f830112613703576137026132fe565b5b81356137138482602086016136ac565b91505092915050565b6000806000806080858703121561373657613735613053565b5b6000613744878288016132a9565b9450506020613755878288016132a9565b9350506040613766878288016131f4565b925050606085013567ffffffffffffffff81111561378757613786613058565b5b613793878288016136ee565b91505092959194509250565b600080600080604085870312156137b9576137b8613053565b5b600085013567ffffffffffffffff8111156137d7576137d6613058565b5b6137e38782880161330d565b9450945050602085013567ffffffffffffffff81111561380657613805613058565b5b6138128782880161330d565b925092505092959194509250565b6000806040838503121561383757613836613053565b5b6000613845858286016132a9565b9250506020613856858286016132a9565b9150509250929050565b600081519050919050565b600082825260208201905092915050565b6000819050602082019050919050565b600082825260208201905092915050565b60006138a882613118565b6138b2818561388c565b93506138c2818560208601613134565b6138cb81613167565b840191505092915050565b60006138e2838361389d565b905092915050565b6000602082019050919050565b600061390282613860565b61390c818561386b565b93508360208202850161391e8561387c565b8060005b8581101561395a578484038952815161393b85826138d6565b9450613946836138ea565b925060208a01995050600181019050613922565b50829750879550505050505092915050565b6000602082019050818103600083015261398681846138f7565b905092915050565b7f4e487b7100000000000000000000000000000000000000000000000000000000600052602260045260246000fd5b600060028204905060018216806139d557607f821691505b602082108114156139e9576139e861398e565b5b50919050565b7f4552433732313a20617070726f76656420717565727920666f72206e6f6e657860008201527f697374656e7420746f6b656e0000000000000000000000000000000000000000602082015250565b6000613a4b602c83613123565b9150613a56826139ef565b604082019050919050565b60006020820190508181036000830152613a7a81613a3e565b9050919050565b7f4552433732313a20617070726f76616c20746f2063757272656e74206f776e6560008201527f7200000000000000000000000000000000000000000000000000000000000000602082015250565b6000613add602183613123565b9150613ae882613a81565b604082019050919050565b60006020820190508181036000830152613b0c81613ad0565b9050919050565b7f4552433732313a20617070726f76652063616c6c6572206973206e6f74206f7760008201527f6e6572206e6f7220617070726f76656420666f7220616c6c0000000000000000602082015250565b6000613b6f603883613123565b9150613b7a82613b13565b604082019050919050565b60006020820190508181036000830152613b9e81613b62565b9050919050565b600081905092915050565b6000613bbc8385613ba5565b9350613bc98385846134b4565b82840190509392505050565b6000613be2828486613bb0565b91508190509392505050565b7f4552433732313a207472616e736665722063616c6c6572206973206e6f74206f60008201527f776e6572206e6f7220617070726f766564000000000000000000000000000000602082015250565b6000613c4a603183613123565b9150613c5582613bee565b604082019050919050565b60006020820190508181036000830152613c7981613c3d565b9050919050565b600081905092915050565b50565b6000613c9b600083613c80565b9150613ca682613c8b565b600082019050919050565b6000613cbc82613c8e565b9150819050919050565b7f4661696c656420746f207769746864726177204d617469630000000000000000600082015250565b6000613cfc601883613123565b9150613d0782613cc6565b602082019050919050565b60006020820190508181036000830152613d2b81613cef565b9050919050565b7f4552433732313a206f776e657220717565727920666f72206e6f6e657869737460008201527f656e7420746f6b656e0000000000000000000000000000000000000000000000602082015250565b6000613d8e602983613123565b9150613d9982613d32565b604082019050919050565b60006020820190508181036000830152613dbd81613d81565b9050919050565b7f4552433732313a2062616c616e636520717565727920666f7220746865207a6560008201527f726f206164647265737300000000000000000000000000000000000000000000602082015250565b6000613e20602a83613123565b9150613e2b82613dc4565b604082019050919050565b60006020820190508181036000830152613e4f81613e13565b9050919050565b7f45524337323155524953746f726167653a2055524920717565727920666f722060008201527f6e6f6e6578697374656e7420746f6b656e000000000000000000000000000000602082015250565b6000613eb2603183613123565b9150613ebd82613e56565b604082019050919050565b60006020820190508181036000830152613ee181613ea5565b9050919050565b6000613ef382613118565b613efd8185613ba5565b9350613f0d818560208601613134565b80840191505092915050565b6000613f258285613ee8565b9150613f318284613ee8565b91508190509392505050565b6000613f498385613123565b9350613f568385846134b4565b613f5f83613167565b840190509392505050565b60006020820190508181036000830152613f85818486613f3d565b90509392505050565b7f4e6f7420656e6f756768204d6174696320706169640000000000000000000000600082015250565b6000613fc4601583613123565b9150613fcf82613f8e565b602082019050919050565b60006020820190508181036000830152613ff381613fb7565b9050919050565b7f2e00000000000000000000000000000000000000000000000000000000000000600082015250565b6000614030600183613ba5565b915061403b82613ffa565b600182019050919050565b60008190508160005260206000209050919050565b60008154614068816139bd565b6140728186613ba5565b9450600182166000811461408d576001811461409e576140d1565b60ff198316865281860193506140d1565b6140a785614046565b60005b838110156140c9578154818901526001820191506020810190506140aa565b838801955050505b50505092915050565b60006140e7828587613bb0565b91506140f282614023565b91506140fe828461405b565b9150819050949350505050565b6000614117828661405b565b91506141238285613ee8565b915061412f828461405b565b9150819050949350505050565b7f7b226e616d65223a202200000000000000000000000000000000000000000000600082015250565b6000614172600a83613ba5565b915061417d8261413c565b600a82019050919050565b7f222c20226465736372697074696f6e223a20224120646f6d61696e206f6e207460008201527f6865204b65776c20446f6d61696e73222c2022696d616765223a20226461746160208201527f3a696d6167652f7376672b786d6c3b6261736536342c00000000000000000000604082015250565b600061420a605683613ba5565b915061421582614188565b605682019050919050565b7f222c226c656e677468223a220000000000000000000000000000000000000000600082015250565b6000614256600c83613ba5565b915061426182614220565b600c82019050919050565b7f227d000000000000000000000000000000000000000000000000000000000000600082015250565b60006142a2600283613ba5565b91506142ad8261426c565b600282019050919050565b60006142c382614165565b91506142cf8286613ee8565b91506142da826141fd565b91506142e68285613ee8565b91506142f182614249565b91506142fd8284613ee8565b915061430882614295565b9150819050949350505050565b7f646174613a6170706c69636174696f6e2f6a736f6e3b6261736536342c000000600082015250565b600061434b601d83613ba5565b915061435682614315565b601d82019050919050565b600061436c8261433e565b91506143788284613ee8565b915081905092915050565b7f4e487b7100000000000000000000000000000000000000000000000000000000600052603260045260246000fd5b7f4e487b7100000000000000000000000000000000000000000000000000000000600052601160045260246000fd5b60006143ec826131d3565b91507fffffffffffffffffffffffffffffffffffffffffffffffffffffffffffffffff82141561441f5761441e6143b2565b5b600182019050919050565b600060408201905081810360008301526144448185613178565b905081810360208301526144588184613178565b90509392505050565b7f4552433732313a206f70657261746f7220717565727920666f72206e6f6e657860008201527f697374656e7420746f6b656e0000000000000000000000000000000000000000602082015250565b60006144bd602c83613123565b91506144c882614461565b604082019050919050565b600060208201905081810360008301526144ec816144b0565b9050919050565b7f4552433732313a207472616e736665722066726f6d20696e636f72726563742060008201527f6f776e6572000000000000000000000000000000000000000000000000000000602082015250565b600061454f602583613123565b915061455a826144f3565b604082019050919050565b6000602082019050818103600083015261457e81614542565b9050919050565b7f4552433732313a207472616e7366657220746f20746865207a65726f2061646460008201527f7265737300000000000000000000000000000000000000000000000000000000602082015250565b60006145e1602483613123565b91506145ec82614585565b604082019050919050565b60006020820190508181036000830152614610816145d4565b9050919050565b6000614622826131d3565b915061462d836131d3565b9250828210156146405761463f6143b2565b5b828203905092915050565b6000614656826131d3565b9150614661836131d3565b9250827fffffffffffffffffffffffffffffffffffffffffffffffffffffffffffffffff03821115614696576146956143b2565b5b828201905092915050565b7f4552433732313a20617070726f766520746f2063616c6c657200000000000000600082015250565b60006146d7601983613123565b91506146e2826146a1565b602082019050919050565b60006020820190508181036000830152614706816146ca565b9050919050565b7f4552433732313a207472616e7366657220746f206e6f6e20455243373231526560008201527f63656976657220696d706c656d656e7465720000000000000000000000000000602082015250565b6000614769603283613123565b91506147748261470d565b604082019050919050565b600060208201905081810360008301526147988161475c565b9050919050565b7f4552433732314d657461646174613a2055524920717565727920666f72206e6f60008201527f6e6578697374656e7420746f6b656e0000000000000000000000000000000000602082015250565b60006147fb602f83613123565b91506148068261479f565b604082019050919050565b6000602082019050818103600083015261482a816147ee565b9050919050565b7f4e487b7100000000000000000000000000000000000000000000000000000000600052601260045260246000fd5b600061486b826131d3565b9150614876836131d3565b92508261488657614885614831565b5b828204905092915050565b600061489c826131d3565b91506148a7836131d3565b9250826148b7576148b6614831565b5b828206905092915050565b600060808201905081810360008301526148dc8187613178565b905081810360208301526148f08186613178565b905081810360408301526149048185613178565b905061491360608301846135a9565b95945050505050565b6000614927826131d3565b9150614932836131d3565b9250817fffffffffffffffffffffffffffffffffffffffffffffffffffffffffffffffff048311821515161561496b5761496a6143b2565b5b828202905092915050565b7f45524337323155524953746f726167653a2055524920736574206f66206e6f6e60008201527f6578697374656e7420746f6b656e000000000000000000000000000000000000602082015250565b60006149d2602e83613123565b91506149dd82614976565b604082019050919050565b60006020820190508181036000830152614a01816149c5565b9050919050565b60006060820190508181036000830152614a228186613178565b9050614a3160208301856135a9565b8181036040830152614a438184613178565b9050949350505050565b600081519050919050565b600082825260208201905092915050565b6000614a7482614a4d565b614a7e8185614a58565b9350614a8e818560208601613134565b614a9781613167565b840191505092915050565b6000608082019050614ab76000830187613268565b614ac46020830186613268565b614ad160408301856135a9565b8181036060830152614ae38184614a69565b905095945050505050565b600081519050614afd81613089565b92915050565b600060208284031215614b1957614b18613053565b5b6000614b2784828501614aee565b91505092915050565b7f4552433732313a206d696e7420746f20746865207a65726f2061646472657373600082015250565b6000614b66602083613123565b9150614b7182614b30565b602082019050919050565b60006020820190508181036000830152614b9581614b59565b9050919050565b7f4552433732313a20746f6b656e20616c7265616479206d696e74656400000000600082015250565b6000614bd2601c83613123565b9150614bdd82614b9c565b602082019050919050565b60006020820190508181036000830152614c0181614bc5565b905091905056fe0a2d2d2d2d2d2d2d2d2d2d2d2d2d2d2d2d2d2d2d2d2d2d2d2d2d2d2d2d2d2d2d2d2d2d2d2d2d2d2d2d2d2d2d2d2d2d2d2d2d2d2d2d2d2d2d2d5265676973746572696e672025732e2573206f6e2074686520636f6e7472616374207769746820746f6b656e49442025642d2d2d2d2d2d2d2d2d2d2d2d2d2d2d2d2d2d2d2d2d2d2d2d2d2d2d2d2d2d2d2d2d2d2d2d2d2d2d2d2d2d2d2d2d2d2d2d2d2d2d2d2d2d2d2d0a4142434445464748494a4b4c4d4e4f505152535455565758595a6162636465666768696a6b6c6d6e6f707172737475767778797a303132333435363738392b2fa26469706673582212202e1d90a0ef956b26467daa5487e9adac1ac5e811908cae3f2f2cd121c235f18e64736f6c634300080a00333c73766720786d6c6e733d22687474703a2f2f7777772e77332e6f72672f323030302f737667222077696474683d2232373022206865696768743d22323730222066696c6c3d226e6f6e65223e3c706174682066696c6c3d2275726c282361292220643d224d302030683237307632373048307a222f3e3c646566733e3c66696c7465722069643d22622220636f6c6f722d696e746572706f6c6174696f6e2d66696c746572733d2273524742222066696c746572556e6974733d227573657253706163654f6e55736522206865696768743d22323730222077696474683d22323730223e3c666544726f70536861646f772064783d2230222064793d22312220737464446576696174696f6e3d22322220666c6f6f642d6f7061636974793d222e323235222077696474683d223230302522206865696768743d2232303025222f3e3c2f66696c7465723e3c2f646566733e3c7061746820643d224d37322e3836332034322e39343961342e33383220342e3338322030203020302d342e33393420306c2d31302e30383120362e3033322d362e383520332e3933342d31302e30383120362e30333261342e33383220342e3338322030203020312d342e33393420306c2d382e3031332d342e37323161342e353220342e35322030203020312d312e3538392d312e36313620342e353420342e35342030203020312d2e3630382d322e313837762d392e333161342e323720342e3237203020302031202e3537322d322e32303820342e323520342e323520302030203120312e3632352d312e3539356c372e3838342d342e353961342e33383220342e33383220302030203120342e33393420306c372e38383420342e353961342e353220342e353220302030203120312e35383920312e36313620342e353420342e3534203020302031202e36303820322e31383776362e3033326c362e38352d342e303635762d362e30333261342e323720342e32372030203020302d2e3537322d322e32303820342e323520342e32352030203020302d312e3632352d312e3539354c34312e3435362032342e353961342e33383220342e3338322030203020302d342e33393420306c2d31342e38363420382e36353561342e323520342e32352030203020302d312e36323520312e35393520342e32373320342e3237332030203020302d2e35373220322e3230387631372e34343161342e323720342e3237203020302030202e35373220322e32303820342e323520342e323520302030203020312e36323520312e3539356c31342e38363420382e36353561342e33383220342e33383220302030203020342e33393420306c31302e3038312d352e39303120362e38352d342e3036352031302e3038312d352e39303161342e33383220342e33383220302030203120342e33393420306c372e38383420342e353961342e353220342e353220302030203120312e35383920312e36313620342e353420342e3534203020302031202e36303820322e31383776392e33313161342e323720342e32372030203020312d2e35373220322e32303820342e323520342e32352030203020312d312e36323520312e3539356c2d372e38383420342e37323161342e33383220342e3338322030203020312d342e33393420306c2d372e3838342d342e353961342e353220342e35322030203020312d312e3538392d312e36313620342e353320342e35332030203020312d2e3630382d322e313837762d362e3033326c2d362e383520342e30363576362e30333261342e323720342e3237203020302030202e35373220322e32303820342e323520342e323520302030203020312e36323520312e3539356c31342e38363420382e36353561342e33383220342e33383220302030203020342e33393420306c31342e3836342d382e36353561342e35343520342e35343520302030203020322e3139382d332e3830335635352e35333861342e323720342e32372030203020302d2e3537322d322e32303820342e323520342e32352030203020302d312e3632352d312e3539356c2d31342e3939332d382e3738367a222066696c6c3d2223666666222f3e3c646566733e3c6c696e6561724772616469656e742069643d2261222078313d2230222079313d2230222078323d22323730222079323d2232373022206772616469656e74556e6974733d227573657253706163654f6e557365223e3c73746f70206f66667365743d223025222073746f702d636f6c6f723d2223306364376534223e3c616e696d617465206174747269627574654e616d653d2273746f702d636f6c6f72222076616c7565733d22233063643765343b20233063643765343b202337413546464622206475723d2235732220726570656174436f756e743d22696e646566696e697465222f3e3c2f73746f703e3c73746f70206f66667365743d2231222073746f702d636f6c6f723d2223636235656565223e3c616e696d617465206174747269627574654e616d653d2273746f702d636f6c6f72222076616c7565733d22233031464638393b20233741354646463b202330314646383922206475723d2234732220726570656174436f756e743d22696e646566696e697465222f3e3c2f73746f703e3c2f6c696e6561724772616469656e743e3c2f646566733e3c7465787420783d2233322e352220793d223233312220666f6e742d73697a653d223237222066696c6c3d2223666666222066696c7465723d2275726c282362292220666f6e742d66616d696c793d22506c7573204a616b617274612053616e732c44656a6156752053616e732c4e6f746f20436f6c6f7220456d6f6a692c4170706c6520436f6c6f7220456d6f6a692c73616e732d73657269662220666f6e742d7765696768743d22626f6c64223e",
  "linkReferences": {},
  "deployedLinkReferences": {}
}