{
  "_format": "hh-sol-artifact-1",
  "contractName": "Domains",
  "sourceName": "contracts/Domains.sol",
  "abi": [
    {
      "inputs": [
        {
          "internalType": "string",
          "name": "_tld",
          "type": "string"
        }
      ],
      "stateMutability": "payable",
      "type": "constructor"
    },
    {
      "inputs": [],
      "name": "AlreadyRegistered",
      "type": "error"
    },
    {
      "inputs": [
        {
          "internalType": "string",
          "name": "name",
          "type": "string"
        }
      ],
      "name": "InvalidName",
      "type": "error"
    },
    {
      "inputs": [],
      "name": "Unauthorized",
      "type": "error"
    },
    {
      "anonymous": false,
      "inputs": [
        {
          "indexed": true,
          "internalType": "address",
          "name": "owner",
          "type": "address"
        },
        {
          "indexed": true,
          "internalType": "address",
          "name": "approved",
          "type": "address"
        },
        {
          "indexed": true,
          "internalType": "uint256",
          "name": "tokenId",
          "type": "uint256"
        }
      ],
      "name": "Approval",
      "type": "event"
    },
    {
      "anonymous": false,
      "inputs": [
        {
          "indexed": true,
          "internalType": "address",
          "name": "owner",
          "type": "address"
        },
        {
          "indexed": true,
          "internalType": "address",
          "name": "operator",
          "type": "address"
        },
        {
          "indexed": false,
          "internalType": "bool",
          "name": "approved",
          "type": "bool"
        }
      ],
      "name": "ApprovalForAll",
      "type": "event"
    },
    {
      "anonymous": false,
      "inputs": [
        {
          "indexed": true,
          "internalType": "address",
          "name": "from",
          "type": "address"
        },
        {
          "indexed": true,
          "internalType": "address",
          "name": "to",
          "type": "address"
        },
        {
          "indexed": true,
          "internalType": "uint256",
          "name": "tokenId",
          "type": "uint256"
        }
      ],
      "name": "Transfer",
      "type": "event"
    },
    {
      "inputs": [
        {
          "internalType": "address",
          "name": "to",
          "type": "address"
        },
        {
          "internalType": "uint256",
          "name": "tokenId",
          "type": "uint256"
        }
      ],
      "name": "approve",
      "outputs": [],
      "stateMutability": "nonpayable",
      "type": "function"
    },
    {
      "inputs": [
        {
          "internalType": "address",
          "name": "owner",
          "type": "address"
        }
      ],
      "name": "balanceOf",
      "outputs": [
        {
          "internalType": "uint256",
          "name": "",
          "type": "uint256"
        }
      ],
      "stateMutability": "view",
      "type": "function"
    },
    {
      "inputs": [
        {
          "internalType": "string",
          "name": "",
          "type": "string"
        }
      ],
      "name": "domains",
      "outputs": [
        {
          "internalType": "address",
          "name": "",
          "type": "address"
        }
      ],
      "stateMutability": "view",
      "type": "function"
    },
    {
      "inputs": [
        {
          "internalType": "string",
          "name": "",
          "type": "string"
        }
      ],
      "name": "emails",
      "outputs": [
        {
          "internalType": "string",
          "name": "",
          "type": "string"
        }
      ],
      "stateMutability": "view",
      "type": "function"
    },
    {
      "inputs": [
        {
          "internalType": "string",
          "name": "name",
          "type": "string"
        }
      ],
      "name": "getAddress",
      "outputs": [
        {
          "internalType": "address",
          "name": "",
          "type": "address"
        }
      ],
      "stateMutability": "view",
      "type": "function"
    },
    {
      "inputs": [],
      "name": "getAllNames",
      "outputs": [
        {
          "internalType": "string[]",
          "name": "",
          "type": "string[]"
        }
      ],
      "stateMutability": "view",
      "type": "function"
    },
    {
      "inputs": [
        {
          "internalType": "uint256",
          "name": "tokenId",
          "type": "uint256"
        }
      ],
      "name": "getApproved",
      "outputs": [
        {
          "internalType": "address",
          "name": "",
          "type": "address"
        }
      ],
      "stateMutability": "view",
      "type": "function"
    },
    {
      "inputs": [
        {
          "internalType": "string",
          "name": "name",
          "type": "string"
        }
      ],
      "name": "getEmail",
      "outputs": [
        {
          "internalType": "string",
          "name": "",
          "type": "string"
        }
      ],
      "stateMutability": "view",
      "type": "function"
    },
    {
      "inputs": [
        {
          "internalType": "string",
          "name": "name",
          "type": "string"
        }
      ],
      "name": "getRecord",
      "outputs": [
        {
          "internalType": "string",
          "name": "",
          "type": "string"
        }
      ],
      "stateMutability": "view",
      "type": "function"
    },
    {
      "inputs": [
        {
          "internalType": "address",
          "name": "owner",
          "type": "address"
        },
        {
          "internalType": "address",
          "name": "operator",
          "type": "address"
        }
      ],
      "name": "isApprovedForAll",
      "outputs": [
        {
          "internalType": "bool",
          "name": "",
          "type": "bool"
        }
      ],
      "stateMutability": "view",
      "type": "function"
    },
    {
      "inputs": [],
      "name": "isOwner",
      "outputs": [
        {
          "internalType": "bool",
          "name": "",
          "type": "bool"
        }
      ],
      "stateMutability": "view",
      "type": "function"
    },
    {
      "inputs": [],
      "name": "name",
      "outputs": [
        {
          "internalType": "string",
          "name": "",
          "type": "string"
        }
      ],
      "stateMutability": "view",
      "type": "function"
    },
    {
      "inputs": [
        {
          "internalType": "uint256",
          "name": "",
          "type": "uint256"
        }
      ],
      "name": "names",
      "outputs": [
        {
          "internalType": "string",
          "name": "",
          "type": "string"
        }
      ],
      "stateMutability": "view",
      "type": "function"
    },
    {
      "inputs": [],
      "name": "owner",
      "outputs": [
        {
          "internalType": "address payable",
          "name": "",
          "type": "address"
        }
      ],
      "stateMutability": "view",
      "type": "function"
    },
    {
      "inputs": [
        {
          "internalType": "uint256",
          "name": "tokenId",
          "type": "uint256"
        }
      ],
      "name": "ownerOf",
      "outputs": [
        {
          "internalType": "address",
          "name": "",
          "type": "address"
        }
      ],
      "stateMutability": "view",
      "type": "function"
    },
    {
      "inputs": [
        {
          "internalType": "string",
          "name": "name",
          "type": "string"
        }
      ],
      "name": "price",
      "outputs": [
        {
          "internalType": "uint256",
          "name": "",
          "type": "uint256"
        }
      ],
      "stateMutability": "pure",
      "type": "function"
    },
    {
      "inputs": [
        {
          "internalType": "string",
          "name": "",
          "type": "string"
        }
      ],
      "name": "records",
      "outputs": [
        {
          "internalType": "string",
          "name": "",
          "type": "string"
        }
      ],
      "stateMutability": "view",
      "type": "function"
    },
    {
      "inputs": [
        {
          "internalType": "string",
          "name": "name",
          "type": "string"
        }
      ],
      "name": "register",
      "outputs": [],
      "stateMutability": "payable",
      "type": "function"
    },
    {
      "inputs": [
        {
          "internalType": "address",
          "name": "from",
          "type": "address"
        },
        {
          "internalType": "address",
          "name": "to",
          "type": "address"
        },
        {
          "internalType": "uint256",
          "name": "tokenId",
          "type": "uint256"
        }
      ],
      "name": "safeTransferFrom",
      "outputs": [],
      "stateMutability": "nonpayable",
      "type": "function"
    },
    {
      "inputs": [
        {
          "internalType": "address",
          "name": "from",
          "type": "address"
        },
        {
          "internalType": "address",
          "name": "to",
          "type": "address"
        },
        {
          "internalType": "uint256",
          "name": "tokenId",
          "type": "uint256"
        },
        {
          "internalType": "bytes",
          "name": "_data",
          "type": "bytes"
        }
      ],
      "name": "safeTransferFrom",
      "outputs": [],
      "stateMutability": "nonpayable",
      "type": "function"
    },
    {
      "inputs": [
        {
          "internalType": "address",
          "name": "operator",
          "type": "address"
        },
        {
          "internalType": "bool",
          "name": "approved",
          "type": "bool"
        }
      ],
      "name": "setApprovalForAll",
      "outputs": [],
      "stateMutability": "nonpayable",
      "type": "function"
    },
    {
      "inputs": [
        {
          "internalType": "string",
          "name": "name",
          "type": "string"
        },
        {
          "internalType": "string",
          "name": "email",
          "type": "string"
        }
      ],
      "name": "setEmailAddress",
      "outputs": [],
      "stateMutability": "nonpayable",
      "type": "function"
    },
    {
      "inputs": [
        {
          "internalType": "string",
          "name": "name",
          "type": "string"
        },
        {
          "internalType": "string",
          "name": "record",
          "type": "string"
        }
      ],
      "name": "setRecord",
      "outputs": [],
      "stateMutability": "nonpayable",
      "type": "function"
    },
    {
      "inputs": [
        {
          "internalType": "bytes4",
          "name": "interfaceId",
          "type": "bytes4"
        }
      ],
      "name": "supportsInterface",
      "outputs": [
        {
          "internalType": "bool",
          "name": "",
          "type": "bool"
        }
      ],
      "stateMutability": "view",
      "type": "function"
    },
    {
      "inputs": [],
      "name": "symbol",
      "outputs": [
        {
          "internalType": "string",
          "name": "",
          "type": "string"
        }
      ],
      "stateMutability": "view",
      "type": "function"
    },
    {
      "inputs": [],
      "name": "tld",
      "outputs": [
        {
          "internalType": "string",
          "name": "",
          "type": "string"
        }
      ],
      "stateMutability": "view",
      "type": "function"
    },
    {
      "inputs": [
        {
          "internalType": "uint256",
          "name": "tokenId",
          "type": "uint256"
        }
      ],
      "name": "tokenURI",
      "outputs": [
        {
          "internalType": "string",
          "name": "",
          "type": "string"
        }
      ],
      "stateMutability": "view",
      "type": "function"
    },
    {
      "inputs": [
        {
          "internalType": "address",
          "name": "from",
          "type": "address"
        },
        {
          "internalType": "address",
          "name": "to",
          "type": "address"
        },
        {
          "internalType": "uint256",
          "name": "tokenId",
          "type": "uint256"
        }
      ],
      "name": "transferFrom",
      "outputs": [],
      "stateMutability": "nonpayable",
      "type": "function"
    },
    {
      "inputs": [
        {
          "internalType": "string",
          "name": "name",
          "type": "string"
        }
      ],
      "name": "valid",
      "outputs": [
        {
          "internalType": "bool",
          "name": "",
          "type": "bool"
        }
      ],
      "stateMutability": "pure",
      "type": "function"
    },
    {
      "inputs": [],
      "name": "withdraw",
      "outputs": [],
      "stateMutability": "nonpayable",
      "type": "function"
    }
  ],
  "bytecode": "0x6080604052604051806108a0016040528061086b81526020016200567261086b91396008908051906020019062000038929190620002c8565b506040518060400160405280600d81526020017f3c2f746578743e3c2f7376673e000000000000000000000000000000000000008152506009908051906020019062000086929190620002c8565b5060405162005edd38038062005edd8339818101604052810190620000ac919062000515565b6040518060400160405280601581526020017f436872756e646c65204e616d65205365727669636500000000000000000000008152506040518060400160405280600381526020017f434e530000000000000000000000000000000000000000000000000000000000815250816000908051906020019062000130929190620002c8565b50806001908051906020019062000149929190620002c8565b50505033600f60006101000a81548173ffffffffffffffffffffffffffffffffffffffff021916908373ffffffffffffffffffffffffffffffffffffffff16021790555080600a9080519060200190620001a5929190620002c8565b50620001f26040518060400160405280601881526020017f2573206e616d652073657276696365206465706c6f796564000000000000000081525082620001f960201b62001eb81760201c565b5062000663565b6200029b828260405160240162000212929190620005c3565b6040516020818303038152906040527f4b5c4277000000000000000000000000000000000000000000000000000000007bffffffffffffffffffffffffffffffffffffffffffffffffffffffff19166020820180517bffffffffffffffffffffffffffffffffffffffffffffffffffffffff83818316178352505050506200029f60201b60201c565b5050565b60008151905060006a636f6e736f6c652e6c6f679050602083016000808483855afa5050505050565b828054620002d6906200062d565b90600052602060002090601f016020900481019282620002fa576000855562000346565b82601f106200031557805160ff191683800117855562000346565b8280016001018555821562000346579182015b828111156200034557825182559160200191906001019062000328565b5b50905062000355919062000359565b5090565b5b80821115620003745760008160009055506001016200035a565b5090565b6000604051905090565b600080fd5b600080fd5b600080fd5b600080fd5b6000601f19601f8301169050919050565b7f4e487b7100000000000000000000000000000000000000000000000000000000600052604160045260246000fd5b620003e18262000396565b810181811067ffffffffffffffff82111715620004035762000402620003a7565b5b80604052505050565b60006200041862000378565b9050620004268282620003d6565b919050565b600067ffffffffffffffff821115620004495762000448620003a7565b5b620004548262000396565b9050602081019050919050565b60005b838110156200048157808201518184015260208101905062000464565b8381111562000491576000848401525b50505050565b6000620004ae620004a8846200042b565b6200040c565b905082815260208101848484011115620004cd57620004cc62000391565b5b620004da84828562000461565b509392505050565b600082601f830112620004fa57620004f96200038c565b5b81516200050c84826020860162000497565b91505092915050565b6000602082840312156200052e576200052d62000382565b5b600082015167ffffffffffffffff8111156200054f576200054e62000387565b5b6200055d84828501620004e2565b91505092915050565b600081519050919050565b600082825260208201905092915050565b60006200058f8262000566565b6200059b818562000571565b9350620005ad81856020860162000461565b620005b88162000396565b840191505092915050565b60006040820190508181036000830152620005df818562000582565b90508181036020830152620005f5818462000582565b90509392505050565b7f4e487b7100000000000000000000000000000000000000000000000000000000600052602260045260246000fd5b600060028204905060018216806200064657607f821691505b602082108114156200065d576200065c620005fe565b5b50919050565b614fff80620006736000396000f3fe6080604052600436106101cd5760003560e01c80638da5cb5b116100f7578063c1880a9811610095578063f2c298be11610064578063f2c298be146106f8578063f77e8bd714610714578063fb825e5f14610751578063fe2c61981461077c576101cd565b8063c1880a9814610618578063c87b56dd14610641578063d5b0d30d1461067e578063e985e9c5146106bb576101cd565b80639791c097116100d15780639791c0971461054c578063a22cb46514610589578063b88d4fde146105b2578063bf40fac1146105db576101cd565b80638da5cb5b146104cb5780638f32d59b146104f657806395d89b4114610521576101cd565b80632d5514321161016f578063541e771d1161013e578063541e771d146103eb5780636352211e1461042857806370a082311461046557806382f4ea8b146104a2576101cd565b80632d551432146103435780633ccfd60b1461036e57806342842e0e146103855780634622ab03146103ae576101cd565b8063095ea7b3116101ab578063095ea7b31461027757806311dd8845146102a057806323b872dd146102dd5780632644923514610306576101cd565b806301ffc9a7146101d257806306fdde031461020f578063081812fc1461023a575b600080fd5b3480156101de57600080fd5b506101f960048036038101906101f4919061339d565b6107b9565b60405161020691906133e5565b60405180910390f35b34801561021b57600080fd5b5061022461089b565b6040516102319190613499565b60405180910390f35b34801561024657600080fd5b50610261600480360381019061025c91906134f1565b61092d565b60405161026e919061355f565b60405180910390f35b34801561028357600080fd5b5061029e600480360381019061029991906135a6565b6109b2565b005b3480156102ac57600080fd5b506102c760048036038101906102c2919061364b565b610aca565b6040516102d49190613499565b60405180910390f35b3480156102e957600080fd5b5061030460048036038101906102ff9190613698565b610b7d565b005b34801561031257600080fd5b5061032d6004803603810190610328919061381b565b610bdd565b60405161033a919061355f565b60405180910390f35b34801561034f57600080fd5b50610358610c26565b6040516103659190613499565b60405180910390f35b34801561037a57600080fd5b50610383610cb4565b005b34801561039157600080fd5b506103ac60048036038101906103a79190613698565b610d7a565b005b3480156103ba57600080fd5b506103d560048036038101906103d091906134f1565b610d9a565b6040516103e29190613499565b60405180910390f35b3480156103f757600080fd5b50610412600480360381019061040d919061381b565b610e3a565b60405161041f9190613499565b60405180910390f35b34801561043457600080fd5b5061044f600480360381019061044a91906134f1565b610ef0565b60405161045c919061355f565b60405180910390f35b34801561047157600080fd5b5061048c60048036038101906104879190613864565b610fa2565b60405161049991906138a0565b60405180910390f35b3480156104ae57600080fd5b506104c960048036038101906104c491906138bb565b61105a565b005b3480156104d757600080fd5b506104e0611108565b6040516104ed919061395d565b60405180910390f35b34801561050257600080fd5b5061050b61112e565b60405161051891906133e5565b60405180910390f35b34801561052d57600080fd5b50610536611186565b6040516105439190613499565b60405180910390f35b34801561055857600080fd5b50610573600480360381019061056e919061364b565b611218565b60405161058091906133e5565b60405180910390f35b34801561059557600080fd5b506105b060048036038101906105ab91906139a4565b6112cc565b005b3480156105be57600080fd5b506105d960048036038101906105d49190613a85565b6112e2565b005b3480156105e757600080fd5b5061060260048036038101906105fd919061364b565b611344565b60405161060f919061355f565b60405180910390f35b34801561062457600080fd5b5061063f600480360381019061063a91906138bb565b61138f565b005b34801561064d57600080fd5b50610668600480360381019061066391906134f1565b61146a565b6040516106759190613499565b60405180910390f35b34801561068a57600080fd5b506106a560048036038101906106a0919061381b565b6115bc565b6040516106b29190613499565b60405180910390f35b3480156106c757600080fd5b506106e260048036038101906106dd9190613b08565b611672565b6040516106ef91906133e5565b60405180910390f35b610712600480360381019061070d919061364b565b611706565b005b34801561072057600080fd5b5061073b6004803603810190610736919061364b565b611b84565b6040516107489190613499565b60405180910390f35b34801561075d57600080fd5b50610766611c37565b6040516107739190613c54565b60405180910390f35b34801561078857600080fd5b506107a3600480360381019061079e919061364b565b611e15565b6040516107b091906138a0565b60405180910390f35b60007f80ac58cd000000000000000000000000000000000000000000000000000000007bffffffffffffffffffffffffffffffffffffffffffffffffffffffff1916827bffffffffffffffffffffffffffffffffffffffffffffffffffffffff1916148061088457507f5b5e139f000000000000000000000000000000000000000000000000000000007bffffffffffffffffffffffffffffffffffffffffffffffffffffffff1916827bffffffffffffffffffffffffffffffffffffffffffffffffffffffff1916145b80610894575061089382611f54565b5b9050919050565b6060600080546108aa90613ca5565b80601f01602080910402602001604051908101604052809291908181526020018280546108d690613ca5565b80156109235780601f106108f857610100808354040283529160200191610923565b820191906000526020600020905b81548152906001019060200180831161090657829003601f168201915b5050505050905090565b600061093882611fbe565b610977576040517f08c379a000000000000000000000000000000000000000000000000000000000815260040161096e90613d49565b60405180910390fd5b6004600083815260200190815260200160002060009054906101000a900473ffffffffffffffffffffffffffffffffffffffff169050919050565b60006109bd82610ef0565b90508073ffffffffffffffffffffffffffffffffffffffff168373ffffffffffffffffffffffffffffffffffffffff161415610a2e576040517f08c379a0000000000000000000000000000000000000000000000000000000008152600401610a2590613ddb565b60405180910390fd5b8073ffffffffffffffffffffffffffffffffffffffff16610a4d61202a565b73ffffffffffffffffffffffffffffffffffffffff161480610a7c5750610a7b81610a7661202a565b611672565b5b610abb576040517f08c379a0000000000000000000000000000000000000000000000000000000008152600401610ab290613e6d565b60405180910390fd5b610ac58383612032565b505050565b6060600c8383604051610ade929190613ebd565b90815260200160405180910390208054610af790613ca5565b80601f0160208091040260200160405190810160405280929190818152602001828054610b2390613ca5565b8015610b705780601f10610b4557610100808354040283529160200191610b70565b820191906000526020600020905b815481529060010190602001808311610b5357829003601f168201915b5050505050905092915050565b610b8e610b8861202a565b826120eb565b610bcd576040517f08c379a0000000000000000000000000000000000000000000000000000000008152600401610bc490613f48565b60405180910390fd5b610bd88383836121c9565b505050565b600b818051602081018201805184825260208301602085012081835280955050505050506000915054906101000a900473ffffffffffffffffffffffffffffffffffffffff1681565b600a8054610c3390613ca5565b80601f0160208091040260200160405190810160405280929190818152602001828054610c5f90613ca5565b8015610cac5780601f10610c8157610100808354040283529160200191610cac565b820191906000526020600020905b815481529060010190602001808311610c8f57829003601f168201915b505050505081565b610cbc61112e565b610cc557600080fd5b600047905060003373ffffffffffffffffffffffffffffffffffffffff1682604051610cf090613f99565b60006040518083038185875af1925050503d8060008114610d2d576040519150601f19603f3d011682016040523d82523d6000602084013e610d32565b606091505b5050905080610d76576040517f08c379a0000000000000000000000000000000000000000000000000000000008152600401610d6d90613ffa565b60405180910390fd5b5050565b610d95838383604051806020016040528060008152506112e2565b505050565b600e6020528060005260406000206000915090508054610db990613ca5565b80601f0160208091040260200160405190810160405280929190818152602001828054610de590613ca5565b8015610e325780601f10610e0757610100808354040283529160200191610e32565b820191906000526020600020905b815481529060010190602001808311610e1557829003601f168201915b505050505081565b600c818051602081018201805184825260208301602085012081835280955050505050506000915090508054610e6f90613ca5565b80601f0160208091040260200160405190810160405280929190818152602001828054610e9b90613ca5565b8015610ee85780601f10610ebd57610100808354040283529160200191610ee8565b820191906000526020600020905b815481529060010190602001808311610ecb57829003601f168201915b505050505081565b6000806002600084815260200190815260200160002060009054906101000a900473ffffffffffffffffffffffffffffffffffffffff169050600073ffffffffffffffffffffffffffffffffffffffff168173ffffffffffffffffffffffffffffffffffffffff161415610f99576040517f08c379a0000000000000000000000000000000000000000000000000000000008152600401610f909061408c565b60405180910390fd5b80915050919050565b60008073ffffffffffffffffffffffffffffffffffffffff168273ffffffffffffffffffffffffffffffffffffffff161415611013576040517f08c379a000000000000000000000000000000000000000000000000000000000815260040161100a9061411e565b60405180910390fd5b600360008373ffffffffffffffffffffffffffffffffffffffff1673ffffffffffffffffffffffffffffffffffffffff168152602001908152602001600020549050919050565b3373ffffffffffffffffffffffffffffffffffffffff16600b8585604051611083929190613ebd565b908152602001604051809103902060009054906101000a900473ffffffffffffffffffffffffffffffffffffffff1673ffffffffffffffffffffffffffffffffffffffff16146110d257600080fd5b8181600d86866040516110e6929190613ebd565b90815260200160405180910390209190611101929190613208565b5050505050565b600f60009054906101000a900473ffffffffffffffffffffffffffffffffffffffff1681565b6000600f60009054906101000a900473ffffffffffffffffffffffffffffffffffffffff1673ffffffffffffffffffffffffffffffffffffffff163373ffffffffffffffffffffffffffffffffffffffff1614905090565b60606001805461119590613ca5565b80601f01602080910402602001604051908101604052809291908181526020018280546111c190613ca5565b801561120e5780601f106111e35761010080835404028352916020019161120e565b820191906000526020600020905b8154815290600101906020018083116111f157829003601f168201915b5050505050905090565b6000600361126984848080601f016020809104026020016040519081016040528093929190818152602001838380828437600081840152601f19601f82011690508083019250505050505050612430565b101580156112c45750600a6112c184848080601f016020809104026020016040519081016040528093929190818152602001838380828437600081840152601f19601f82011690508083019250505050505050612430565b11155b905092915050565b6112de6112d761202a565b83836125e5565b5050565b6112f36112ed61202a565b836120eb565b611332576040517f08c379a000000000000000000000000000000000000000000000000000000000815260040161132990613f48565b60405180910390fd5b61133e84848484612752565b50505050565b6000600b8383604051611358929190613ebd565b908152602001604051809103902060009054906101000a900473ffffffffffffffffffffffffffffffffffffffff16905092915050565b3373ffffffffffffffffffffffffffffffffffffffff16600b85856040516113b8929190613ebd565b908152602001604051809103902060009054906101000a900473ffffffffffffffffffffffffffffffffffffffff1673ffffffffffffffffffffffffffffffffffffffff1614611434576040517f82b4290000000000000000000000000000000000000000000000000000000000815260040160405180910390fd5b8181600c8686604051611448929190613ebd565b90815260200160405180910390209190611463929190613208565b5050505050565b606061147582611fbe565b6114b4576040517f08c379a00000000000000000000000000000000000000000000000000000000081526004016114ab906141b0565b60405180910390fd5b60006006600084815260200190815260200160002080546114d490613ca5565b80601f016020809104026020016040519081016040528092919081815260200182805461150090613ca5565b801561154d5780601f106115225761010080835404028352916020019161154d565b820191906000526020600020905b81548152906001019060200180831161153057829003601f168201915b50505050509050600061155e6127ae565b90506000815114156115745781925050506115b7565b6000825111156115a9578082604051602001611591929190614201565b604051602081830303815290604052925050506115b7565b6115b2846127c5565b925050505b919050565b600d8180516020810182018051848252602083016020850120818352809550505050505060009150905080546115f190613ca5565b80601f016020809104026020016040519081016040528092919081815260200182805461161d90613ca5565b801561166a5780601f1061163f5761010080835404028352916020019161166a565b820191906000526020600020905b81548152906001019060200180831161164d57829003601f168201915b505050505081565b6000600560008473ffffffffffffffffffffffffffffffffffffffff1673ffffffffffffffffffffffffffffffffffffffff16815260200190815260200160002060008373ffffffffffffffffffffffffffffffffffffffff1673ffffffffffffffffffffffffffffffffffffffff16815260200190815260200160002060009054906101000a900460ff16905092915050565b600073ffffffffffffffffffffffffffffffffffffffff16600b8383604051611730929190613ebd565b908152602001604051809103902060009054906101000a900473ffffffffffffffffffffffffffffffffffffffff1673ffffffffffffffffffffffffffffffffffffffff16146117ac576040517f3a81d6fc00000000000000000000000000000000000000000000000000000000815260040160405180910390fd5b6117b68282611218565b6117f95781816040517f7f19f48d0000000000000000000000000000000000000000000000000000000081526004016117f0929190614252565b60405180910390fd5b60006118058383611e15565b90508034101561184a576040517f08c379a0000000000000000000000000000000000000000000000000000000008152600401611841906142c2565b60405180910390fd5b60008383600a604051602001611862939291906143c2565b60405160208183030381529060405290506000600882600960405160200161188c939291906143f3565b604051602081830303815290604052905060006118a9600761286c565b905060006118fa87878080601f016020809104026020016040519081016040528093929190818152602001838380828437600081840152601f19601f82011690508083019250505050505050612430565b905060006119078261287a565b90506119fb604051806060016040528060318152602001614ef16031913989898080601f016020809104026020016040519081016040528093929190818152602001838380828437600081840152601f19601f82011690508083019250505050505050600a805461197790613ca5565b80601f01602080910402602001604051908101604052809291908181526020018280546119a390613ca5565b80156119f05780601f106119c5576101008083540402835291602001916119f0565b820191906000526020600020905b8154815290600101906020018083116119d357829003601f168201915b5050505050866129db565b6000611a3186611a0a87612a7d565b84604051602001611a1d939291906145a0565b604051602081830303815290604052612a7d565b9050600081604051602001611a469190614649565b6040516020818303038152906040529050611a78604051806060016040528060348152602001614f2260349139612c15565b611ab76040518060400160405280600f81526020017f46696e616c20746f6b656e5552490a000000000000000000000000000000000081525082611eb8565b611ad8604051806060016040528060348152602001614f9660349139612c15565b611ae23386612cae565b611aec8582612ccc565b33600b8b8b604051611aff929190613ebd565b908152602001604051809103902060006101000a81548173ffffffffffffffffffffffffffffffffffffffff021916908373ffffffffffffffffffffffffffffffffffffffff1602179055508989600e60008881526020019081526020016000209190611b6d929190613208565b50611b786007612d40565b50505050505050505050565b6060600d8383604051611b98929190613ebd565b90815260200160405180910390208054611bb190613ca5565b80601f0160208091040260200160405190810160405280929190818152602001828054611bdd90613ca5565b8015611c2a5780601f10611bff57610100808354040283529160200191611c2a565b820191906000526020600020905b815481529060010190602001808311611c0d57829003601f168201915b5050505050905092915050565b6060611c776040518060400160405280601f81526020017f47657474696e6720616c6c206e616d65732066726f6d20636f6e747261637400815250612c15565b6000611c83600761286c565b67ffffffffffffffff811115611c9c57611c9b6136f0565b5b604051908082528060200260200182016040528015611ccf57816020015b6060815260200190600190039081611cba5790505b50905060005b611cdf600761286c565b811015611e0d57600e60008281526020019081526020016000208054611d0490613ca5565b80601f0160208091040260200160405190810160405280929190818152602001828054611d3090613ca5565b8015611d7d5780601f10611d5257610100808354040283529160200191611d7d565b820191906000526020600020905b815481529060010190602001808311611d6057829003601f168201915b5050505050828281518110611d9557611d9461466b565b5b6020026020010181905250611dfa6040518060400160405280601781526020017f4e616d6520666f7220746f6b656e20256420697320257300000000000000000081525082848481518110611ded57611dec61466b565b5b6020026020010151612d56565b8080611e05906146c9565b915050611cd5565b508091505090565b600080611e6584848080601f016020809104026020016040519081016040528093929190818152602001838380828437600081840152601f19601f82011690508083019250505050505050612430565b905060008111611e7457600080fd5b6003811415611e8d5766b1a2bc2ec50000915050611eb2565b6004811415611ea657666a94d74f430000915050611eb2565b662386f26fc100009150505b92915050565b611f508282604051602401611ece929190614712565b6040516020818303038152906040527f4b5c4277000000000000000000000000000000000000000000000000000000007bffffffffffffffffffffffffffffffffffffffffffffffffffffffff19166020820180517bffffffffffffffffffffffffffffffffffffffffffffffffffffffff8381831617835250505050612df5565b5050565b60007f01ffc9a7000000000000000000000000000000000000000000000000000000007bffffffffffffffffffffffffffffffffffffffffffffffffffffffff1916827bffffffffffffffffffffffffffffffffffffffffffffffffffffffff1916149050919050565b60008073ffffffffffffffffffffffffffffffffffffffff166002600084815260200190815260200160002060009054906101000a900473ffffffffffffffffffffffffffffffffffffffff1673ffffffffffffffffffffffffffffffffffffffff1614159050919050565b600033905090565b816004600083815260200190815260200160002060006101000a81548173ffffffffffffffffffffffffffffffffffffffff021916908373ffffffffffffffffffffffffffffffffffffffff160217905550808273ffffffffffffffffffffffffffffffffffffffff166120a583610ef0565b73ffffffffffffffffffffffffffffffffffffffff167f8c5be1e5ebec7d5bd14f71427d1e84f3dd0314c0f7b2291e5b200ac8c7c3b92560405160405180910390a45050565b60006120f682611fbe565b612135576040517f08c379a000000000000000000000000000000000000000000000000000000000815260040161212c906147bb565b60405180910390fd5b600061214083610ef0565b90508073ffffffffffffffffffffffffffffffffffffffff168473ffffffffffffffffffffffffffffffffffffffff16148061218257506121818185611672565b5b806121c057508373ffffffffffffffffffffffffffffffffffffffff166121a88461092d565b73ffffffffffffffffffffffffffffffffffffffff16145b91505092915050565b8273ffffffffffffffffffffffffffffffffffffffff166121e982610ef0565b73ffffffffffffffffffffffffffffffffffffffff161461223f576040517f08c379a00000000000000000000000000000000000000000000000000000000081526004016122369061484d565b60405180910390fd5b600073ffffffffffffffffffffffffffffffffffffffff168273ffffffffffffffffffffffffffffffffffffffff1614156122af576040517f08c379a00000000000000000000000000000000000000000000000000000000081526004016122a6906148df565b60405180910390fd5b6122ba838383612e1e565b6122c5600082612032565b6001600360008573ffffffffffffffffffffffffffffffffffffffff1673ffffffffffffffffffffffffffffffffffffffff168152602001908152602001600020600082825461231591906148ff565b925050819055506001600360008473ffffffffffffffffffffffffffffffffffffffff1673ffffffffffffffffffffffffffffffffffffffff168152602001908152602001600020600082825461236c9190614933565b92505081905550816002600083815260200190815260200160002060006101000a81548173ffffffffffffffffffffffffffffffffffffffff021916908373ffffffffffffffffffffffffffffffffffffffff160217905550808273ffffffffffffffffffffffffffffffffffffffff168473ffffffffffffffffffffffffffffffffffffffff167fddf252ad1be2c89b69c2b068fc378daa952ba7f163c4a11628f55a4df523b3ef60405160405180910390a461242b838383612e23565b505050565b60008060008084519050600092505b808210156125da57600085838151811061245c5761245b61466b565b5b602001015160f81c60f81b9050608060f81b817effffffffffffffffffffffffffffffffffffffffffffffffffffffffffffff191610156124ab576001836124a49190614933565b92506125c6565b60e060f81b817effffffffffffffffffffffffffffffffffffffffffffffffffffffffffffff191610156124ed576002836124e69190614933565b92506125c5565b60f060f81b817effffffffffffffffffffffffffffffffffffffffffffffffffffffffffffff1916101561252f576003836125289190614933565b92506125c4565b60f8801b817effffffffffffffffffffffffffffffffffffffffffffffffffffffffffffff19161015612570576004836125699190614933565b92506125c3565b60fc60f81b817effffffffffffffffffffffffffffffffffffffffffffffffffffffffffffff191610156125b2576005836125ab9190614933565b92506125c2565b6006836125bf9190614933565b92505b5b5b5b5b5082806125d2906146c9565b93505061243f565b829350505050919050565b8173ffffffffffffffffffffffffffffffffffffffff168373ffffffffffffffffffffffffffffffffffffffff161415612654576040517f08c379a000000000000000000000000000000000000000000000000000000000815260040161264b906149d5565b60405180910390fd5b80600560008573ffffffffffffffffffffffffffffffffffffffff1673ffffffffffffffffffffffffffffffffffffffff16815260200190815260200160002060008473ffffffffffffffffffffffffffffffffffffffff1673ffffffffffffffffffffffffffffffffffffffff16815260200190815260200160002060006101000a81548160ff0219169083151502179055508173ffffffffffffffffffffffffffffffffffffffff168373ffffffffffffffffffffffffffffffffffffffff167f17307eab39ab6107e8899845ad3d59bd9653f200f220920489ca2b5937696c318360405161274591906133e5565b60405180910390a3505050565b61275d8484846121c9565b61276984848484612e28565b6127a8576040517f08c379a000000000000000000000000000000000000000000000000000000000815260040161279f90614a67565b60405180910390fd5b50505050565b606060405180602001604052806000815250905090565b60606127d082611fbe565b61280f576040517f08c379a000000000000000000000000000000000000000000000000000000000815260040161280690614af9565b60405180910390fd5b60006128196127ae565b905060008151116128395760405180602001604052806000815250612864565b806128438461287a565b604051602001612854929190614201565b6040516020818303038152906040525b915050919050565b600081600001549050919050565b606060008214156128c2576040518060400160405280600181526020017f300000000000000000000000000000000000000000000000000000000000000081525090506129d6565b600082905060005b600082146128f45780806128dd906146c9565b915050600a826128ed9190614b48565b91506128ca565b60008167ffffffffffffffff8111156129105761290f6136f0565b5b6040519080825280601f01601f1916602001820160405280156129425781602001600182028036833780820191505090505b5090505b600085146129cf5760018261295b91906148ff565b9150600a8561296a9190614b79565b60306129769190614933565b60f81b81838151811061298c5761298b61466b565b5b60200101907effffffffffffffffffffffffffffffffffffffffffffffffffffffffffffff1916908160001a905350600a856129c89190614b48565b9450612946565b8093505050505b919050565b612a77848484846040516024016129f59493929190614baa565b6040516020818303038152906040527f9fd009f5000000000000000000000000000000000000000000000000000000007bffffffffffffffffffffffffffffffffffffffffffffffffffffffff19166020820180517bffffffffffffffffffffffffffffffffffffffffffffffffffffffff8381831617835250505050612df5565b50505050565b60606000825190506000811415612aa65760405180602001604052806000815250915050612c10565b60006003600283612ab79190614933565b612ac19190614b48565b6004612acd9190614c04565b90506000602082612ade9190614933565b67ffffffffffffffff811115612af757612af66136f0565b5b6040519080825280601f01601f191660200182016040528015612b295781602001600182028036833780820191505090505b5090506000604051806060016040528060408152602001614f56604091399050600181016020830160005b86811015612bcd5760038101905062ffffff818a015116603f8160121c168401518060081b905060ff603f83600c1c1686015116810190508060081b905060ff603f8360061c1686015116810190508060081b905060ff603f831686015116810190508060e01b90508084526004840193505050612b54565b506003860660018114612be75760028114612bf757612c02565b613d3d60f01b6002830352612c02565b603d60f81b60018303525b508484525050819450505050505b919050565b612cab81604051602401612c299190613499565b6040516020818303038152906040527f41304fac000000000000000000000000000000000000000000000000000000007bffffffffffffffffffffffffffffffffffffffffffffffffffffffff19166020820180517bffffffffffffffffffffffffffffffffffffffffffffffffffffffff8381831617835250505050612df5565b50565b612cc8828260405180602001604052806000815250612fb0565b5050565b612cd582611fbe565b612d14576040517f08c379a0000000000000000000000000000000000000000000000000000000008152600401612d0b90614cd0565b60405180910390fd5b80600660008481526020019081526020016000209080519060200190612d3b92919061328e565b505050565b6001816000016000828254019250508190555050565b612df0838383604051602401612d6e93929190614cf0565b6040516020818303038152906040527fa3f5c739000000000000000000000000000000000000000000000000000000007bffffffffffffffffffffffffffffffffffffffffffffffffffffffff19166020820180517bffffffffffffffffffffffffffffffffffffffffffffffffffffffff8381831617835250505050612df5565b505050565b60008151905060006a636f6e736f6c652e6c6f679050602083016000808483855afa5050505050565b505050565b505050565b6000612e498473ffffffffffffffffffffffffffffffffffffffff1661300b565b15612fa3578373ffffffffffffffffffffffffffffffffffffffff1663150b7a02612e7261202a565b8786866040518563ffffffff1660e01b8152600401612e949493929190614d8a565b6020604051808303816000875af1925050508015612ed057506040513d601f19601f82011682018060405250810190612ecd9190614deb565b60015b612f53573d8060008114612f00576040519150601f19603f3d011682016040523d82523d6000602084013e612f05565b606091505b50600081511415612f4b576040517f08c379a0000000000000000000000000000000000000000000000000000000008152600401612f4290614a67565b60405180910390fd5b805181602001fd5b63150b7a0260e01b7bffffffffffffffffffffffffffffffffffffffffffffffffffffffff1916817bffffffffffffffffffffffffffffffffffffffffffffffffffffffff191614915050612fa8565b600190505b949350505050565b612fba838361302e565b612fc76000848484612e28565b613006576040517f08c379a0000000000000000000000000000000000000000000000000000000008152600401612ffd90614a67565b60405180910390fd5b505050565b6000808273ffffffffffffffffffffffffffffffffffffffff163b119050919050565b600073ffffffffffffffffffffffffffffffffffffffff168273ffffffffffffffffffffffffffffffffffffffff16141561309e576040517f08c379a000000000000000000000000000000000000000000000000000000000815260040161309590614e64565b60405180910390fd5b6130a781611fbe565b156130e7576040517f08c379a00000000000000000000000000000000000000000000000000000000081526004016130de90614ed0565b60405180910390fd5b6130f360008383612e1e565b6001600360008473ffffffffffffffffffffffffffffffffffffffff1673ffffffffffffffffffffffffffffffffffffffff16815260200190815260200160002060008282546131439190614933565b92505081905550816002600083815260200190815260200160002060006101000a81548173ffffffffffffffffffffffffffffffffffffffff021916908373ffffffffffffffffffffffffffffffffffffffff160217905550808273ffffffffffffffffffffffffffffffffffffffff16600073ffffffffffffffffffffffffffffffffffffffff167fddf252ad1be2c89b69c2b068fc378daa952ba7f163c4a11628f55a4df523b3ef60405160405180910390a461320460008383612e23565b5050565b82805461321490613ca5565b90600052602060002090601f016020900481019282613236576000855561327d565b82601f1061324f57803560ff191683800117855561327d565b8280016001018555821561327d579182015b8281111561327c578235825591602001919060010190613261565b5b50905061328a9190613314565b5090565b82805461329a90613ca5565b90600052602060002090601f0160209004810192826132bc5760008555613303565b82601f106132d557805160ff1916838001178555613303565b82800160010185558215613303579182015b828111156133025782518255916020019190600101906132e7565b5b5090506133109190613314565b5090565b5b8082111561332d576000816000905550600101613315565b5090565b6000604051905090565b600080fd5b600080fd5b60007fffffffff0000000000000000000000000000000000000000000000000000000082169050919050565b61337a81613345565b811461338557600080fd5b50565b60008135905061339781613371565b92915050565b6000602082840312156133b3576133b261333b565b5b60006133c184828501613388565b91505092915050565b60008115159050919050565b6133df816133ca565b82525050565b60006020820190506133fa60008301846133d6565b92915050565b600081519050919050565b600082825260208201905092915050565b60005b8381101561343a57808201518184015260208101905061341f565b83811115613449576000848401525b50505050565b6000601f19601f8301169050919050565b600061346b82613400565b613475818561340b565b935061348581856020860161341c565b61348e8161344f565b840191505092915050565b600060208201905081810360008301526134b38184613460565b905092915050565b6000819050919050565b6134ce816134bb565b81146134d957600080fd5b50565b6000813590506134eb816134c5565b92915050565b6000602082840312156135075761350661333b565b5b6000613515848285016134dc565b91505092915050565b600073ffffffffffffffffffffffffffffffffffffffff82169050919050565b60006135498261351e565b9050919050565b6135598161353e565b82525050565b60006020820190506135746000830184613550565b92915050565b6135838161353e565b811461358e57600080fd5b50565b6000813590506135a08161357a565b92915050565b600080604083850312156135bd576135bc61333b565b5b60006135cb85828601613591565b92505060206135dc858286016134dc565b9150509250929050565b600080fd5b600080fd5b600080fd5b60008083601f84011261360b5761360a6135e6565b5b8235905067ffffffffffffffff811115613628576136276135eb565b5b602083019150836001820283011115613644576136436135f0565b5b9250929050565b600080602083850312156136625761366161333b565b5b600083013567ffffffffffffffff8111156136805761367f613340565b5b61368c858286016135f5565b92509250509250929050565b6000806000606084860312156136b1576136b061333b565b5b60006136bf86828701613591565b93505060206136d086828701613591565b92505060406136e1868287016134dc565b9150509250925092565b600080fd5b7f4e487b7100000000000000000000000000000000000000000000000000000000600052604160045260246000fd5b6137288261344f565b810181811067ffffffffffffffff82111715613747576137466136f0565b5b80604052505050565b600061375a613331565b9050613766828261371f565b919050565b600067ffffffffffffffff821115613786576137856136f0565b5b61378f8261344f565b9050602081019050919050565b82818337600083830152505050565b60006137be6137b98461376b565b613750565b9050828152602081018484840111156137da576137d96136eb565b5b6137e584828561379c565b509392505050565b600082601f830112613802576138016135e6565b5b81356138128482602086016137ab565b91505092915050565b6000602082840312156138315761383061333b565b5b600082013567ffffffffffffffff81111561384f5761384e613340565b5b61385b848285016137ed565b91505092915050565b60006020828403121561387a5761387961333b565b5b600061388884828501613591565b91505092915050565b61389a816134bb565b82525050565b60006020820190506138b56000830184613891565b92915050565b600080600080604085870312156138d5576138d461333b565b5b600085013567ffffffffffffffff8111156138f3576138f2613340565b5b6138ff878288016135f5565b9450945050602085013567ffffffffffffffff81111561392257613921613340565b5b61392e878288016135f5565b925092505092959194509250565b60006139478261351e565b9050919050565b6139578161393c565b82525050565b6000602082019050613972600083018461394e565b92915050565b613981816133ca565b811461398c57600080fd5b50565b60008135905061399e81613978565b92915050565b600080604083850312156139bb576139ba61333b565b5b60006139c985828601613591565b92505060206139da8582860161398f565b9150509250929050565b600067ffffffffffffffff8211156139ff576139fe6136f0565b5b613a088261344f565b9050602081019050919050565b6000613a28613a23846139e4565b613750565b905082815260208101848484011115613a4457613a436136eb565b5b613a4f84828561379c565b509392505050565b600082601f830112613a6c57613a6b6135e6565b5b8135613a7c848260208601613a15565b91505092915050565b60008060008060808587031215613a9f57613a9e61333b565b5b6000613aad87828801613591565b9450506020613abe87828801613591565b9350506040613acf878288016134dc565b925050606085013567ffffffffffffffff811115613af057613aef613340565b5b613afc87828801613a57565b91505092959194509250565b60008060408385031215613b1f57613b1e61333b565b5b6000613b2d85828601613591565b9250506020613b3e85828601613591565b9150509250929050565b600081519050919050565b600082825260208201905092915050565b6000819050602082019050919050565b600082825260208201905092915050565b6000613b9082613400565b613b9a8185613b74565b9350613baa81856020860161341c565b613bb38161344f565b840191505092915050565b6000613bca8383613b85565b905092915050565b6000602082019050919050565b6000613bea82613b48565b613bf48185613b53565b935083602082028501613c0685613b64565b8060005b85811015613c425784840389528151613c238582613bbe565b9450613c2e83613bd2565b925060208a01995050600181019050613c0a565b50829750879550505050505092915050565b60006020820190508181036000830152613c6e8184613bdf565b905092915050565b7f4e487b7100000000000000000000000000000000000000000000000000000000600052602260045260246000fd5b60006002820490506001821680613cbd57607f821691505b60208210811415613cd157613cd0613c76565b5b50919050565b7f4552433732313a20617070726f76656420717565727920666f72206e6f6e657860008201527f697374656e7420746f6b656e0000000000000000000000000000000000000000602082015250565b6000613d33602c8361340b565b9150613d3e82613cd7565b604082019050919050565b60006020820190508181036000830152613d6281613d26565b9050919050565b7f4552433732313a20617070726f76616c20746f2063757272656e74206f776e6560008201527f7200000000000000000000000000000000000000000000000000000000000000602082015250565b6000613dc560218361340b565b9150613dd082613d69565b604082019050919050565b60006020820190508181036000830152613df481613db8565b9050919050565b7f4552433732313a20617070726f76652063616c6c6572206973206e6f74206f7760008201527f6e6572206e6f7220617070726f76656420666f7220616c6c0000000000000000602082015250565b6000613e5760388361340b565b9150613e6282613dfb565b604082019050919050565b60006020820190508181036000830152613e8681613e4a565b9050919050565b600081905092915050565b6000613ea48385613e8d565b9350613eb183858461379c565b82840190509392505050565b6000613eca828486613e98565b91508190509392505050565b7f4552433732313a207472616e736665722063616c6c6572206973206e6f74206f60008201527f776e6572206e6f7220617070726f766564000000000000000000000000000000602082015250565b6000613f3260318361340b565b9150613f3d82613ed6565b604082019050919050565b60006020820190508181036000830152613f6181613f25565b9050919050565b600081905092915050565b50565b6000613f83600083613f68565b9150613f8e82613f73565b600082019050919050565b6000613fa482613f76565b9150819050919050565b7f4661696c656420746f207769746864726177204d617469630000000000000000600082015250565b6000613fe460188361340b565b9150613fef82613fae565b602082019050919050565b6000602082019050818103600083015261401381613fd7565b9050919050565b7f4552433732313a206f776e657220717565727920666f72206e6f6e657869737460008201527f656e7420746f6b656e0000000000000000000000000000000000000000000000602082015250565b600061407660298361340b565b91506140818261401a565b604082019050919050565b600060208201905081810360008301526140a581614069565b9050919050565b7f4552433732313a2062616c616e636520717565727920666f7220746865207a6560008201527f726f206164647265737300000000000000000000000000000000000000000000602082015250565b6000614108602a8361340b565b9150614113826140ac565b604082019050919050565b60006020820190508181036000830152614137816140fb565b9050919050565b7f45524337323155524953746f726167653a2055524920717565727920666f722060008201527f6e6f6e6578697374656e7420746f6b656e000000000000000000000000000000602082015250565b600061419a60318361340b565b91506141a58261413e565b604082019050919050565b600060208201905081810360008301526141c98161418d565b9050919050565b60006141db82613400565b6141e58185613e8d565b93506141f581856020860161341c565b80840191505092915050565b600061420d82856141d0565b915061421982846141d0565b91508190509392505050565b6000614231838561340b565b935061423e83858461379c565b6142478361344f565b840190509392505050565b6000602082019050818103600083015261426d818486614225565b90509392505050565b7f4e6f7420656e6f756768204d6174696320706169640000000000000000000000600082015250565b60006142ac60158361340b565b91506142b782614276565b602082019050919050565b600060208201905081810360008301526142db8161429f565b9050919050565b7f2e00000000000000000000000000000000000000000000000000000000000000600082015250565b6000614318600183613e8d565b9150614323826142e2565b600182019050919050565b60008190508160005260206000209050919050565b6000815461435081613ca5565b61435a8186613e8d565b945060018216600081146143755760018114614386576143b9565b60ff198316865281860193506143b9565b61438f8561432e565b60005b838110156143b157815481890152600182019150602081019050614392565b838801955050505b50505092915050565b60006143cf828587613e98565b91506143da8261430b565b91506143e68284614343565b9150819050949350505050565b60006143ff8286614343565b915061440b82856141d0565b91506144178284614343565b9150819050949350505050565b7f7b226e616d65223a202200000000000000000000000000000000000000000000600082015250565b600061445a600a83613e8d565b915061446582614424565b600a82019050919050565b7f222c20226465736372697074696f6e223a20224120646f6d61696e206f6e207460008201527f686520436872756e646c65206e616d652073657276696365222c2022696d616760208201527f65223a2022646174613a696d6167652f7376672b786d6c3b6261736536342c00604082015250565b60006144f2605f83613e8d565b91506144fd82614470565b605f82019050919050565b7f222c226c656e677468223a220000000000000000000000000000000000000000600082015250565b600061453e600c83613e8d565b915061454982614508565b600c82019050919050565b7f227d000000000000000000000000000000000000000000000000000000000000600082015250565b600061458a600283613e8d565b915061459582614554565b600282019050919050565b60006145ab8261444d565b91506145b782866141d0565b91506145c2826144e5565b91506145ce82856141d0565b91506145d982614531565b91506145e582846141d0565b91506145f08261457d565b9150819050949350505050565b7f646174613a6170706c69636174696f6e2f6a736f6e3b6261736536342c000000600082015250565b6000614633601d83613e8d565b915061463e826145fd565b601d82019050919050565b600061465482614626565b915061466082846141d0565b915081905092915050565b7f4e487b7100000000000000000000000000000000000000000000000000000000600052603260045260246000fd5b7f4e487b7100000000000000000000000000000000000000000000000000000000600052601160045260246000fd5b60006146d4826134bb565b91507fffffffffffffffffffffffffffffffffffffffffffffffffffffffffffffffff8214156147075761470661469a565b5b600182019050919050565b6000604082019050818103600083015261472c8185613460565b905081810360208301526147408184613460565b90509392505050565b7f4552433732313a206f70657261746f7220717565727920666f72206e6f6e657860008201527f697374656e7420746f6b656e0000000000000000000000000000000000000000602082015250565b60006147a5602c8361340b565b91506147b082614749565b604082019050919050565b600060208201905081810360008301526147d481614798565b9050919050565b7f4552433732313a207472616e736665722066726f6d20696e636f72726563742060008201527f6f776e6572000000000000000000000000000000000000000000000000000000602082015250565b600061483760258361340b565b9150614842826147db565b604082019050919050565b600060208201905081810360008301526148668161482a565b9050919050565b7f4552433732313a207472616e7366657220746f20746865207a65726f2061646460008201527f7265737300000000000000000000000000000000000000000000000000000000602082015250565b60006148c960248361340b565b91506148d48261486d565b604082019050919050565b600060208201905081810360008301526148f8816148bc565b9050919050565b600061490a826134bb565b9150614915836134bb565b9250828210156149285761492761469a565b5b828203905092915050565b600061493e826134bb565b9150614949836134bb565b9250827fffffffffffffffffffffffffffffffffffffffffffffffffffffffffffffffff0382111561497e5761497d61469a565b5b828201905092915050565b7f4552433732313a20617070726f766520746f2063616c6c657200000000000000600082015250565b60006149bf60198361340b565b91506149ca82614989565b602082019050919050565b600060208201905081810360008301526149ee816149b2565b9050919050565b7f4552433732313a207472616e7366657220746f206e6f6e20455243373231526560008201527f63656976657220696d706c656d656e7465720000000000000000000000000000602082015250565b6000614a5160328361340b565b9150614a5c826149f5565b604082019050919050565b60006020820190508181036000830152614a8081614a44565b9050919050565b7f4552433732314d657461646174613a2055524920717565727920666f72206e6f60008201527f6e6578697374656e7420746f6b656e0000000000000000000000000000000000602082015250565b6000614ae3602f8361340b565b9150614aee82614a87565b604082019050919050565b60006020820190508181036000830152614b1281614ad6565b9050919050565b7f4e487b7100000000000000000000000000000000000000000000000000000000600052601260045260246000fd5b6000614b53826134bb565b9150614b5e836134bb565b925082614b6e57614b6d614b19565b5b828204905092915050565b6000614b84826134bb565b9150614b8f836134bb565b925082614b9f57614b9e614b19565b5b828206905092915050565b60006080820190508181036000830152614bc48187613460565b90508181036020830152614bd88186613460565b90508181036040830152614bec8185613460565b9050614bfb6060830184613891565b95945050505050565b6000614c0f826134bb565b9150614c1a836134bb565b9250817fffffffffffffffffffffffffffffffffffffffffffffffffffffffffffffffff0483118215151615614c5357614c5261469a565b5b828202905092915050565b7f45524337323155524953746f726167653a2055524920736574206f66206e6f6e60008201527f6578697374656e7420746f6b656e000000000000000000000000000000000000602082015250565b6000614cba602e8361340b565b9150614cc582614c5e565b604082019050919050565b60006020820190508181036000830152614ce981614cad565b9050919050565b60006060820190508181036000830152614d0a8186613460565b9050614d196020830185613891565b8181036040830152614d2b8184613460565b9050949350505050565b600081519050919050565b600082825260208201905092915050565b6000614d5c82614d35565b614d668185614d40565b9350614d7681856020860161341c565b614d7f8161344f565b840191505092915050565b6000608082019050614d9f6000830187613550565b614dac6020830186613550565b614db96040830185613891565b8181036060830152614dcb8184614d51565b905095945050505050565b600081519050614de581613371565b92915050565b600060208284031215614e0157614e0061333b565b5b6000614e0f84828501614dd6565b91505092915050565b7f4552433732313a206d696e7420746f20746865207a65726f2061646472657373600082015250565b6000614e4e60208361340b565b9150614e5982614e18565b602082019050919050565b60006020820190508181036000830152614e7d81614e41565b9050919050565b7f4552433732313a20746f6b656e20616c7265616479206d696e74656400000000600082015250565b6000614eba601c8361340b565b9150614ec582614e84565b602082019050919050565b60006020820190508181036000830152614ee981614ead565b905091905056fe5265676973746572696e672025732e2573206f6e2074686520636f6e7472616374207769746820746f6b656e49442025640a2d2d2d2d2d2d2d2d2d2d2d2d2d2d2d2d2d2d2d2d2d2d2d2d2d2d2d2d2d2d2d2d2d2d2d2d2d2d2d2d2d2d2d2d2d2d2d2d2d2d2d4142434445464748494a4b4c4d4e4f505152535455565758595a6162636465666768696a6b6c6d6e6f707172737475767778797a303132333435363738392b2f2d2d2d2d2d2d2d2d2d2d2d2d2d2d2d2d2d2d2d2d2d2d2d2d2d2d2d2d2d2d2d2d2d2d2d2d2d2d2d2d2d2d2d2d2d2d2d2d2d2d2d0aa2646970667358221220547c14efa7355b90db11ececda53da374584371fdb98a3ed1f77481e07f9f4b564736f6c634300080a00333c73766720786d6c6e733d27687474703a2f2f7777772e77332e6f72672f323030302f737667272077696474683d2732373027206865696768743d27323730272066696c6c3d276e6f6e65273e3c706174682066696c6c3d2775726c282342292720643d274d302030683237307632373048307a272f3e3c646566733e3c66696c7465722069643d27412720636f6c6f722d696e746572706f6c6174696f6e2d66696c746572733d2773524742272066696c746572556e6974733d277573657253706163654f6e55736527206865696768743d27323730272077696474683d27323730273e3c666544726f70536861646f772064783d2730272064793d27312720737464446576696174696f6e3d27322720666c6f6f642d6f7061636974793d272e323235272077696474683d273230302527206865696768743d2732303025272f3e3c2f66696c7465723e3c2f646566733e3c7061746820643d274d37322e3836332034322e393439632d2e3636382d2e3338372d312e3432362d2e35392d322e3139372d2e3539732d312e3532392e3230342d322e3139372e35396c2d31302e30383120362e3033322d362e383520332e3933342d31302e30383120362e303332632d2e3636382e3338372d312e3432362e35392d322e3139372e3539732d312e3532392d2e3230342d322e3139372d2e35396c2d382e3031332d342e37323161342e353220342e35322030203020312d312e3538392d312e363136632d2e3338342d2e3636352d2e3539342d312e3431382d2e3630382d322e313837762d392e3331632d2e3031332d2e3737352e3138352d312e3533382e3537322d322e32303861342e323520342e323520302030203120312e3632352d312e3539356c372e3838342d342e3539632e3636382d2e33383720312e3432362d2e353920322e3139372d2e353973312e3532392e32303420322e3139372e35396c372e38383420342e353961342e353220342e353220302030203120312e35383920312e363136632e3338342e3636352e35393420312e3431382e36303820322e31383776362e3033326c362e38352d342e303635762d362e303332632e3031332d2e3737352d2e3138352d312e3533382d2e3537322d322e32303861342e323520342e32352030203020302d312e3632352d312e3539354c34312e3435362032342e3539632d2e3636382d2e3338372d312e3432362d2e35392d322e3139372d2e3539732d312e3532392e3230342d322e3139372e35396c2d31342e38363420382e36353561342e323520342e32352030203020302d312e36323520312e353935632d2e3338372e36372d2e35383520312e3433342d2e35373220322e3230387631372e343431632d2e3031332e3737352e31383520312e3533382e35373220322e32303861342e323520342e323520302030203020312e36323520312e3539356c31342e38363420382e363535632e3636382e33383720312e3432362e353920322e3139372e353973312e3532392d2e32303420322e3139372d2e35396c31302e3038312d352e39303120362e38352d342e3036352031302e3038312d352e393031632e3636382d2e33383720312e3432362d2e353920322e3139372d2e353973312e3532392e32303420322e3139372e35396c372e38383420342e353961342e353220342e353220302030203120312e35383920312e363136632e3338342e3636352e35393420312e3431382e36303820322e31383776392e333131632e3031332e3737352d2e31383520312e3533382d2e35373220322e32303861342e323520342e32352030203020312d312e36323520312e3539356c2d372e38383420342e373231632d2e3636382e3338372d312e3432362e35392d322e3139372e3539732d312e3532392d2e3230342d322e3139372d2e35396c2d372e3838342d342e353961342e353220342e35322030203020312d312e3538392d312e363136632d2e3338352d2e3636352d2e3539342d312e3431382d2e3630382d322e313837762d362e3033326c2d362e383520342e30363576362e303332632d2e3031332e3737352e31383520312e3533382e35373220322e32303861342e323520342e323520302030203020312e36323520312e3539356c31342e38363420382e363535632e3636382e33383720312e3432362e353920322e3139372e353973312e3532392d2e32303420322e3139372d2e35396c31342e3836342d382e363535632e3635372d2e33393420312e3230342d2e393520312e3538392d312e363136732e3539342d312e3431382e3630392d322e3138375635352e353338632e3031332d2e3737352d2e3138352d312e3533382d2e3537322d322e32303861342e323520342e32352030203020302d312e3632352d312e3539356c2d31342e3939332d382e3738367a272066696c6c3d2723666666272f3e3c646566733e3c6c696e6561724772616469656e742069643d2742272078313d2730272079313d2730272078323d27323730272079323d2732373027206772616469656e74556e6974733d277573657253706163654f6e557365273e3c73746f702073746f702d636f6c6f723d2723636235656565272f3e3c73746f70206f66667365743d2731272073746f702d636f6c6f723d2723306364376534272073746f702d6f7061636974793d272e3939272f3e3c2f6c696e6561724772616469656e743e3c2f646566733e3c7465787420783d2733322e352720793d273233312720666f6e742d73697a653d273237272066696c6c3d2723666666272066696c7465723d2775726c282341292720666f6e742d66616d696c793d27506c7573204a616b617274612053616e732c44656a6156752053616e732c4e6f746f20436f6c6f7220456d6f6a692c4170706c6520436f6c6f7220456d6f6a692c73616e732d73657269662720666f6e742d7765696768743d27626f6c64273e",
  "linkReferences": {},
  "deployedLinkReferences": {}
}